{
  "contractName": "AccountRegistry",
  "abi": [
    {
      "inputs": [],
      "stateMutability": "nonpayable",
      "type": "constructor"
    },
    {
      "anonymous": false,
      "inputs": [
        {
          "indexed": true,
          "internalType": "address",
          "name": "account",
          "type": "address"
        },
        {
          "indexed": false,
          "internalType": "string",
          "name": "userId",
          "type": "string"
        },
        {
          "indexed": false,
          "internalType": "enum AccountRegistry.Role",
          "name": "role",
          "type": "uint8"
        },
        {
          "indexed": false,
          "internalType": "bool",
          "name": "active",
          "type": "bool"
        }
      ],
      "name": "AccountRegistered",
      "type": "event"
    },
    {
      "anonymous": false,
      "inputs": [
        {
          "indexed": true,
          "internalType": "address",
          "name": "account",
          "type": "address"
        },
        {
          "indexed": false,
          "internalType": "string",
          "name": "name",
          "type": "string"
        },
        {
          "indexed": false,
          "internalType": "string",
          "name": "metadata",
          "type": "string"
        }
      ],
      "name": "AccountUpdated",
      "type": "event"
    },
    {
      "anonymous": false,
      "inputs": [
        {
          "indexed": true,
          "internalType": "address",
          "name": "account",
          "type": "address"
        },
        {
          "indexed": false,
          "internalType": "bool",
          "name": "active",
          "type": "bool"
        }
      ],
      "name": "ActiveStatusChanged",
      "type": "event"
    },
    {
      "anonymous": false,
      "inputs": [
        {
          "indexed": true,
          "internalType": "address",
          "name": "previousOwner",
          "type": "address"
        },
        {
          "indexed": true,
          "internalType": "address",
          "name": "newOwner",
          "type": "address"
        }
      ],
      "name": "OwnerTransferred",
      "type": "event"
    },
    {
      "anonymous": false,
      "inputs": [
        {
          "indexed": true,
          "internalType": "address",
          "name": "account",
          "type": "address"
        },
        {
          "indexed": false,
          "internalType": "enum AccountRegistry.Role",
          "name": "role",
          "type": "uint8"
        }
      ],
      "name": "RoleChanged",
      "type": "event"
    },
    {
      "inputs": [],
      "name": "owner",
      "outputs": [
        {
          "internalType": "address",
          "name": "",
          "type": "address"
        }
      ],
      "stateMutability": "view",
      "type": "function"
    },
    {
      "inputs": [
        {
          "internalType": "address",
          "name": "newOwner",
          "type": "address"
        }
      ],
      "name": "transferOwnership",
      "outputs": [],
      "stateMutability": "nonpayable",
      "type": "function"
    },
    {
      "inputs": [
        {
          "internalType": "address",
          "name": "account",
          "type": "address"
        },
        {
          "internalType": "string",
          "name": "userId",
          "type": "string"
        },
        {
          "internalType": "string",
          "name": "name",
          "type": "string"
        },
        {
          "internalType": "string",
          "name": "metadata",
          "type": "string"
        },
        {
          "internalType": "enum AccountRegistry.Role",
          "name": "role",
          "type": "uint8"
        },
        {
          "internalType": "bool",
          "name": "active",
          "type": "bool"
        }
      ],
      "name": "registerAccount",
      "outputs": [],
      "stateMutability": "nonpayable",
      "type": "function"
    },
    {
      "inputs": [
        {
          "internalType": "address",
          "name": "account",
          "type": "address"
        },
        {
          "internalType": "string",
          "name": "name",
          "type": "string"
        },
        {
          "internalType": "string",
          "name": "metadata",
          "type": "string"
        }
      ],
      "name": "updateProfile",
      "outputs": [],
      "stateMutability": "nonpayable",
      "type": "function"
    },
    {
      "inputs": [
        {
          "internalType": "address",
          "name": "account",
          "type": "address"
        },
        {
          "internalType": "enum AccountRegistry.Role",
          "name": "role",
          "type": "uint8"
        }
      ],
      "name": "setRole",
      "outputs": [],
      "stateMutability": "nonpayable",
      "type": "function"
    },
    {
      "inputs": [
        {
          "internalType": "address",
          "name": "account",
          "type": "address"
        },
        {
          "internalType": "bool",
          "name": "active",
          "type": "bool"
        }
      ],
      "name": "setActive",
      "outputs": [],
      "stateMutability": "nonpayable",
      "type": "function"
    },
    {
      "inputs": [
        {
          "internalType": "address",
          "name": "account",
          "type": "address"
        }
      ],
      "name": "getAccount",
      "outputs": [
        {
          "internalType": "string",
          "name": "userId",
          "type": "string"
        },
        {
          "internalType": "string",
          "name": "name",
          "type": "string"
        },
        {
          "internalType": "string",
          "name": "metadata",
          "type": "string"
        },
        {
          "internalType": "enum AccountRegistry.Role",
          "name": "role",
          "type": "uint8"
        },
        {
          "internalType": "bool",
          "name": "active",
          "type": "bool"
        },
        {
          "internalType": "bool",
          "name": "exists",
          "type": "bool"
        }
      ],
      "stateMutability": "view",
      "type": "function"
    }
  ],
  "bytecode": "0x608060405234801561001057600080fd5b50336000806101000a81548173ffffffffffffffffffffffffffffffffffffffff021916908373ffffffffffffffffffffffffffffffffffffffff160217905550611a7b806100606000396000f3fe608060405234801561001057600080fd5b506004361061007d5760003560e01c8063805077be1161005b578063805077be146100d65780638da5cb5b146100f2578063f2fde38b14610110578063fbcbc0f11461012c5761007d565b80632ce962cf146100825780633dedde731461009e578063571c3e60146100ba575b600080fd5b61009c60048036038101906100979190610f45565b610161565b005b6100b860048036038101906100b3919061100f565b61032a565b005b6100d460048036038101906100cf91906110fe565b61068a565b005b6100f060048036038101906100eb919061113e565b610863565b005b6100fa610a7f565b60405161010791906111e2565b60405180910390f35b61012a600480360381019061012591906111fd565b610aa3565b005b610146600480360381019061014191906111fd565b610c5d565b60405161015896959493929190611340565b60405180910390f35b60008054906101000a900473ffffffffffffffffffffffffffffffffffffffff1673ffffffffffffffffffffffffffffffffffffffff163373ffffffffffffffffffffffffffffffffffffffff16146101ef576040517f08c379a00000000000000000000000000000000000000000000000000000000081526004016101e690611402565b60405180910390fd5b600160008373ffffffffffffffffffffffffffffffffffffffff1673ffffffffffffffffffffffffffffffffffffffff16815260200190815260200160002060030160029054906101000a900460ff1661027e576040517f08c379a00000000000000000000000000000000000000000000000000000000081526004016102759061146e565b60405180910390fd5b80600160008473ffffffffffffffffffffffffffffffffffffffff1673ffffffffffffffffffffffffffffffffffffffff16815260200190815260200160002060030160016101000a81548160ff0219169083151502179055508173ffffffffffffffffffffffffffffffffffffffff167fa5ab8b72c18a722b7e92b557d227ba48dc2985b22fce6d0f95804be26703b5958260405161031e919061148e565b60405180910390a25050565b60008054906101000a900473ffffffffffffffffffffffffffffffffffffffff1673ffffffffffffffffffffffffffffffffffffffff163373ffffffffffffffffffffffffffffffffffffffff16146103b8576040517f08c379a00000000000000000000000000000000000000000000000000000000081526004016103af90611402565b60405180910390fd5b600073ffffffffffffffffffffffffffffffffffffffff168973ffffffffffffffffffffffffffffffffffffffff1603610427576040517f08c379a000000000000000000000000000000000000000000000000000000000815260040161041e906114f5565b60405180910390fd5b6040518060c0016040528089898080601f016020809104026020016040519081016040528093929190818152602001838380828437600081840152601f19601f82011690508083019250505050505050815260200187878080601f016020809104026020016040519081016040528093929190818152602001838380828437600081840152601f19601f82011690508083019250505050505050815260200185858080601f016020809104026020016040519081016040528093929190818152602001838380828437600081840152601f19601f820116905080830192505050505050508152602001836004811115610523576105226112ba565b5b8152602001821515815260200160011515815250600160008b73ffffffffffffffffffffffffffffffffffffffff1673ffffffffffffffffffffffffffffffffffffffff168152602001908152602001600020600082015181600001908161058b919061175a565b5060208201518160010190816105a1919061175a565b5060408201518160020190816105b7919061175a565b5060608201518160030160006101000a81548160ff021916908360048111156105e3576105e26112ba565b5b021790555060808201518160030160016101000a81548160ff02191690831515021790555060a08201518160030160026101000a81548160ff0219169083151502179055509050508873ffffffffffffffffffffffffffffffffffffffff167fbc417c496dd52e0b0167098638c80150e370cde5410c9fd8444e6ea1d239c38c898985856040516106779493929190611868565b60405180910390a2505050505050505050565b60008054906101000a900473ffffffffffffffffffffffffffffffffffffffff1673ffffffffffffffffffffffffffffffffffffffff163373ffffffffffffffffffffffffffffffffffffffff1614610718576040517f08c379a000000000000000000000000000000000000000000000000000000000815260040161070f90611402565b60405180910390fd5b600160008373ffffffffffffffffffffffffffffffffffffffff1673ffffffffffffffffffffffffffffffffffffffff16815260200190815260200160002060030160029054906101000a900460ff166107a7576040517f08c379a000000000000000000000000000000000000000000000000000000000815260040161079e9061146e565b60405180910390fd5b80600160008473ffffffffffffffffffffffffffffffffffffffff1673ffffffffffffffffffffffffffffffffffffffff16815260200190815260200160002060030160006101000a81548160ff0219169083600481111561080c5761080b6112ba565b5b02179055508173ffffffffffffffffffffffffffffffffffffffff167f3cdc6ed770815602e888513518c6a3c86c2238544ea0e0086d6647e30b387afe8260405161085791906118a8565b60405180910390a25050565b60008054906101000a900473ffffffffffffffffffffffffffffffffffffffff1673ffffffffffffffffffffffffffffffffffffffff163373ffffffffffffffffffffffffffffffffffffffff16146108f1576040517f08c379a00000000000000000000000000000000000000000000000000000000081526004016108e890611402565b60405180910390fd5b600160008673ffffffffffffffffffffffffffffffffffffffff1673ffffffffffffffffffffffffffffffffffffffff16815260200190815260200160002060030160029054906101000a900460ff16610980576040517f08c379a00000000000000000000000000000000000000000000000000000000081526004016109779061146e565b60405180910390fd5b8383600160008873ffffffffffffffffffffffffffffffffffffffff1673ffffffffffffffffffffffffffffffffffffffff16815260200190815260200160002060010191826109d19291906118ce565b508181600160008873ffffffffffffffffffffffffffffffffffffffff1673ffffffffffffffffffffffffffffffffffffffff1681526020019081526020016000206002019182610a239291906118ce565b508473ffffffffffffffffffffffffffffffffffffffff167f9caca2116182c93540eb90890fecf78f2e1d9f556d6bf67c67c89345d86c32f885858585604051610a70949392919061199e565b60405180910390a25050505050565b60008054906101000a900473ffffffffffffffffffffffffffffffffffffffff1681565b60008054906101000a900473ffffffffffffffffffffffffffffffffffffffff1673ffffffffffffffffffffffffffffffffffffffff163373ffffffffffffffffffffffffffffffffffffffff1614610b31576040517f08c379a0000000000000000000000000000000000000000000000000000000008152600401610b2890611402565b60405180910390fd5b600073ffffffffffffffffffffffffffffffffffffffff168173ffffffffffffffffffffffffffffffffffffffff1603610ba0576040517f08c379a0000000000000000000000000000000000000000000000000000000008152600401610b9790611a25565b60405180910390fd5b8073ffffffffffffffffffffffffffffffffffffffff1660008054906101000a900473ffffffffffffffffffffffffffffffffffffffff1673ffffffffffffffffffffffffffffffffffffffff167f8934ce4adea8d9ce0d714d2c22b86790e41b7731c84b926fbbdc1d40ff6533c960405160405180910390a3806000806101000a81548173ffffffffffffffffffffffffffffffffffffffff021916908373ffffffffffffffffffffffffffffffffffffffff16021790555050565b6060806060600080600080600160008973ffffffffffffffffffffffffffffffffffffffff1673ffffffffffffffffffffffffffffffffffffffff16815260200190815260200160002090508060000181600101826002018360030160009054906101000a900460ff168460030160019054906101000a900460ff168560030160029054906101000a900460ff16858054610cf790611573565b80601f0160208091040260200160405190810160405280929190818152602001828054610d2390611573565b8015610d705780601f10610d4557610100808354040283529160200191610d70565b820191906000526020600020905b815481529060010190602001808311610d5357829003601f168201915b50505050509550848054610d8390611573565b80601f0160208091040260200160405190810160405280929190818152602001828054610daf90611573565b8015610dfc5780601f10610dd157610100808354040283529160200191610dfc565b820191906000526020600020905b815481529060010190602001808311610ddf57829003601f168201915b50505050509450838054610e0f90611573565b80601f0160208091040260200160405190810160405280929190818152602001828054610e3b90611573565b8015610e885780601f10610e5d57610100808354040283529160200191610e88565b820191906000526020600020905b815481529060010190602001808311610e6b57829003601f168201915b505050505093509650965096509650965096505091939550919395565b600080fd5b600080fd5b600073ffffffffffffffffffffffffffffffffffffffff82169050919050565b6000610eda82610eaf565b9050919050565b610eea81610ecf565b8114610ef557600080fd5b50565b600081359050610f0781610ee1565b92915050565b60008115159050919050565b610f2281610f0d565b8114610f2d57600080fd5b50565b600081359050610f3f81610f19565b92915050565b60008060408385031215610f5c57610f5b610ea5565b5b6000610f6a85828601610ef8565b9250506020610f7b85828601610f30565b9150509250929050565b600080fd5b600080fd5b600080fd5b60008083601f840112610faa57610fa9610f85565b5b8235905067ffffffffffffffff811115610fc757610fc6610f8a565b5b602083019150836001820283011115610fe357610fe2610f8f565b5b9250929050565b60058110610ff757600080fd5b50565b60008135905061100981610fea565b92915050565b600080600080600080600080600060c08a8c03121561103157611030610ea5565b5b600061103f8c828d01610ef8565b99505060208a013567ffffffffffffffff8111156110605761105f610eaa565b5b61106c8c828d01610f94565b985098505060408a013567ffffffffffffffff81111561108f5761108e610eaa565b5b61109b8c828d01610f94565b965096505060608a013567ffffffffffffffff8111156110be576110bd610eaa565b5b6110ca8c828d01610f94565b945094505060806110dd8c828d01610ffa565b92505060a06110ee8c828d01610f30565b9150509295985092959850929598565b6000806040838503121561111557611114610ea5565b5b600061112385828601610ef8565b925050602061113485828601610ffa565b9150509250929050565b60008060008060006060868803121561115a57611159610ea5565b5b600061116888828901610ef8565b955050602086013567ffffffffffffffff81111561118957611188610eaa565b5b61119588828901610f94565b9450945050604086013567ffffffffffffffff8111156111b8576111b7610eaa565b5b6111c488828901610f94565b92509250509295509295909350565b6111dc81610ecf565b82525050565b60006020820190506111f760008301846111d3565b92915050565b60006020828403121561121357611212610ea5565b5b600061122184828501610ef8565b91505092915050565b600081519050919050565b600082825260208201905092915050565b60005b83811015611264578082015181840152602081019050611249565b60008484015250505050565b6000601f19601f8301169050919050565b600061128c8261122a565b6112968185611235565b93506112a6818560208601611246565b6112af81611270565b840191505092915050565b7f4e487b7100000000000000000000000000000000000000000000000000000000600052602160045260246000fd5b600581106112fa576112f96112ba565b5b50565b600081905061130b826112e9565b919050565b600061131b826112fd565b9050919050565b61132b81611310565b82525050565b61133a81610f0d565b82525050565b600060c082019050818103600083015261135a8189611281565b9050818103602083015261136e8188611281565b905081810360408301526113828187611281565b90506113916060830186611322565b61139e6080830185611331565b6113ab60a0830184611331565b979650505050505050565b7f4f6e6c79206f776e657200000000000000000000000000000000000000000000600082015250565b60006113ec600a83611235565b91506113f7826113b6565b602082019050919050565b6000602082019050818103600083015261141b816113df565b9050919050565b7f4e6f742072656769737465726564000000000000000000000000000000000000600082015250565b6000611458600e83611235565b915061146382611422565b602082019050919050565b600060208201905081810360008301526114878161144b565b9050919050565b60006020820190506114a36000830184611331565b92915050565b7f426164206163636f756e74000000000000000000000000000000000000000000600082015250565b60006114df600b83611235565b91506114ea826114a9565b602082019050919050565b6000602082019050818103600083015261150e816114d2565b9050919050565b7f4e487b7100000000000000000000000000000000000000000000000000000000600052604160045260246000fd5b7f4e487b7100000000000000000000000000000000000000000000000000000000600052602260045260246000fd5b6000600282049050600182168061158b57607f821691505b60208210810361159e5761159d611544565b5b50919050565b60008190508160005260206000209050919050565b60006020601f8301049050919050565b600082821b905092915050565b6000600883026116067fffffffffffffffffffffffffffffffffffffffffffffffffffffffffffffffff826115c9565b61161086836115c9565b95508019841693508086168417925050509392505050565b6000819050919050565b6000819050919050565b600061165761165261164d84611628565b611632565b611628565b9050919050565b6000819050919050565b6116718361163c565b61168561167d8261165e565b8484546115d6565b825550505050565b600090565b61169a61168d565b6116a5818484611668565b505050565b5b818110156116c9576116be600082611692565b6001810190506116ab565b5050565b601f82111561170e576116df816115a4565b6116e8846115b9565b810160208510156116f7578190505b61170b611703856115b9565b8301826116aa565b50505b505050565b600082821c905092915050565b600061173160001984600802611713565b1980831691505092915050565b600061174a8383611720565b9150826002028217905092915050565b6117638261122a565b67ffffffffffffffff81111561177c5761177b611515565b5b6117868254611573565b6117918282856116cd565b600060209050601f8311600181146117c457600084156117b2578287015190505b6117bc858261173e565b865550611824565b601f1984166117d2866115a4565b60005b828110156117fa578489015182556001820191506020850194506020810190506117d5565b868310156118175784890151611813601f891682611720565b8355505b6001600288020188555050505b505050505050565b82818337600083830152505050565b60006118478385611235565b935061185483858461182c565b61185d83611270565b840190509392505050565b6000606082019050818103600083015261188381868861183b565b90506118926020830185611322565b61189f6040830184611331565b95945050505050565b60006020820190506118bd6000830184611322565b92915050565b600082905092915050565b6118d883836118c3565b67ffffffffffffffff8111156118f1576118f0611515565b5b6118fb8254611573565b6119068282856116cd565b6000601f8311600181146119355760008415611923578287013590505b61192d858261173e565b865550611995565b601f198416611943866115a4565b60005b8281101561196b57848901358255600182019150602085019450602081019050611946565b868310156119885784890135611984601f891682611720565b8355505b6001600288020188555050505b50505050505050565b600060408201905081810360008301526119b981868861183b565b905081810360208301526119ce81848661183b565b905095945050505050565b7f426164206f776e65720000000000000000000000000000000000000000000000600082015250565b6000611a0f600983611235565b9150611a1a826119d9565b602082019050919050565b60006020820190508181036000830152611a3e81611a02565b905091905056fea2646970667358221220c87a1762e00a28f24c379c2f8b6c955a93a2fc88c04a42f401de1480238c236864736f6c63430008130033",
  "immutableReferences": {},
  "source": "// SPDX-License-Identifier: MIT\npragma solidity ^0.8.19;\n\n/**\n * Simple registry to persist user account metadata and roles onchain.\n * Designed to be deployed alongside the ecommerce/escrow stack.\n */\ncontract AccountRegistry {\n    enum Role {\n        None,\n        Buyer,\n        Seller,\n        Staff,\n        Admin\n    }\n\n    struct Account {\n        string userId;      // optional off-chain reference (email/uuid)\n        string name;        // display name\n        string metadata;    // arbitrary JSON/URI string for client use\n        Role role;\n        bool active;\n        bool exists;\n    }\n\n    address public owner;\n    mapping(address => Account) private accounts;\n\n    event OwnerTransferred(address indexed previousOwner, address indexed newOwner);\n    event AccountRegistered(address indexed account, string userId, Role role, bool active);\n    event AccountUpdated(address indexed account, string name, string metadata);\n    event RoleChanged(address indexed account, Role role);\n    event ActiveStatusChanged(address indexed account, bool active);\n\n    modifier onlyOwner() {\n        require(msg.sender == owner, \"Only owner\");\n        _;\n    }\n\n    constructor() {\n        owner = msg.sender;\n    }\n\n    function transferOwnership(address newOwner) external onlyOwner {\n        require(newOwner != address(0), \"Bad owner\");\n        emit OwnerTransferred(owner, newOwner);\n        owner = newOwner;\n    }\n\n    function registerAccount(\n        address account,\n        string calldata userId,\n        string calldata name,\n        string calldata metadata,\n        Role role,\n        bool active\n    ) external onlyOwner {\n        require(account != address(0), \"Bad account\");\n        accounts[account] = Account({\n            userId: userId,\n            name: name,\n            metadata: metadata,\n            role: role,\n            active: active,\n            exists: true\n        });\n\n        emit AccountRegistered(account, userId, role, active);\n    }\n\n    function updateProfile(\n        address account,\n        string calldata name,\n        string calldata metadata\n    ) external onlyOwner {\n        require(accounts[account].exists, \"Not registered\");\n        accounts[account].name = name;\n        accounts[account].metadata = metadata;\n        emit AccountUpdated(account, name, metadata);\n    }\n\n    function setRole(address account, Role role) external onlyOwner {\n        require(accounts[account].exists, \"Not registered\");\n        accounts[account].role = role;\n        emit RoleChanged(account, role);\n    }\n\n    function setActive(address account, bool active) external onlyOwner {\n        require(accounts[account].exists, \"Not registered\");\n        accounts[account].active = active;\n        emit ActiveStatusChanged(account, active);\n    }\n\n    function getAccount(address account)\n        external\n        view\n        returns (\n            string memory userId,\n            string memory name,\n            string memory metadata,\n            Role role,\n            bool active,\n            bool exists\n        )\n    {\n        Account storage a = accounts[account];\n        return (a.userId, a.name, a.metadata, a.role, a.active, a.exists);\n    }\n}\n",
  "sourcePath": "C:\\Users\\24035476\\OneDrive - Republic Polytechnic\\Documents\\Year-2, sems-2\\C373, Distributed Ledger Technology Solutioning\\C373, FA-GA\\GA\\contracts\\AccountRegistry.sol",
  "compiler": {
    "name": "solc",
    "version": "0.8.19+commit.7dd6d404.Emscripten.clang"
  },
  "schemaVersion": "3.4.16",
  "updatedAt": "2026-01-30T14:06:22.891Z",
  "devdoc": {
    "kind": "dev",
    "methods": {},
    "version": 1
  },
  "userdoc": {
    "kind": "user",
    "methods": {},
    "notice": "Simple registry to persist user account metadata and roles onchain. Designed to be deployed alongside the ecommerce/escrow stack.",
    "version": 1
  }
}