{
  "contractName": "EcommerceContract",
  "abi": [
    {
      "inputs": [],
      "stateMutability": "nonpayable",
      "type": "constructor"
    },
    {
      "inputs": [],
      "name": "marketplaceName",
      "outputs": [
        {
          "internalType": "string",
          "name": "",
          "type": "string"
        }
      ],
      "stateMutability": "view",
      "type": "function"
    },
    {
      "inputs": [
        {
          "internalType": "uint256",
          "name": "",
          "type": "uint256"
        }
      ],
      "name": "products",
      "outputs": [
        {
          "components": [
            {
              "internalType": "string",
              "name": "id",
              "type": "string"
            },
            {
              "internalType": "string",
              "name": "name",
              "type": "string"
            },
            {
              "internalType": "string",
              "name": "category",
              "type": "string"
            },
            {
              "internalType": "string",
              "name": "releaseDate",
              "type": "string"
            }
          ],
          "internalType": "struct EcommerceContract.ProductInformation",
          "name": "productInfo",
          "type": "tuple"
        },
        {
          "components": [
            {
              "internalType": "string",
              "name": "supplierName",
              "type": "string"
            },
            {
              "internalType": "string",
              "name": "warehouseAddress",
              "type": "string"
            },
            {
              "internalType": "string",
              "name": "supplierId",
              "type": "string"
            },
            {
              "internalType": "string",
              "name": "phone",
              "type": "string"
            },
            {
              "internalType": "string",
              "name": "email",
              "type": "string"
            }
          ],
          "internalType": "struct EcommerceContract.SupplierWarehouseRecords",
          "name": "supplierWarehouseRecords",
          "type": "tuple"
        },
        {
          "components": [
            {
              "internalType": "string",
              "name": "orderId",
              "type": "string"
            },
            {
              "internalType": "string",
              "name": "customerName",
              "type": "string"
            },
            {
              "internalType": "string",
              "name": "purchaseDate",
              "type": "string"
            },
            {
              "internalType": "string",
              "name": "returnPolicy",
              "type": "string"
            },
            {
              "internalType": "uint256",
              "name": "purchaseTotal",
              "type": "uint256"
            }
          ],
          "internalType": "struct EcommerceContract.PurchaseAgreement",
          "name": "purchaseAgreement",
          "type": "tuple"
        },
        {
          "components": [
            {
              "internalType": "string",
              "name": "warrantyId",
              "type": "string"
            },
            {
              "internalType": "string",
              "name": "provider",
              "type": "string"
            },
            {
              "internalType": "string",
              "name": "coverageType",
              "type": "string"
            },
            {
              "internalType": "uint256",
              "name": "maxClaimAmount",
              "type": "uint256"
            },
            {
              "internalType": "uint256",
              "name": "premium",
              "type": "uint256"
            },
            {
              "internalType": "string",
              "name": "claimId",
              "type": "string"
            },
            {
              "internalType": "uint256",
              "name": "amountClaimed",
              "type": "uint256"
            },
            {
              "internalType": "string",
              "name": "claimDate",
              "type": "string"
            },
            {
              "internalType": "string",
              "name": "status",
              "type": "string"
            }
          ],
          "internalType": "struct EcommerceContract.WarrantyData",
          "name": "warrantyData",
          "type": "tuple"
        }
      ],
      "stateMutability": "view",
      "type": "function"
    },
    {
      "inputs": [],
      "name": "getMarketplaceName",
      "outputs": [
        {
          "internalType": "string",
          "name": "",
          "type": "string"
        }
      ],
      "stateMutability": "view",
      "type": "function"
    },
    {
      "inputs": [],
      "name": "registerProduct",
      "outputs": [
        {
          "internalType": "uint256",
          "name": "",
          "type": "uint256"
        }
      ],
      "stateMutability": "nonpayable",
      "type": "function"
    },
    {
      "inputs": [
        {
          "internalType": "uint256",
          "name": "productId",
          "type": "uint256"
        },
        {
          "internalType": "string",
          "name": "_id",
          "type": "string"
        },
        {
          "internalType": "string",
          "name": "_name",
          "type": "string"
        },
        {
          "internalType": "string",
          "name": "_category",
          "type": "string"
        },
        {
          "internalType": "string",
          "name": "_releaseDate",
          "type": "string"
        }
      ],
      "name": "addProductInfo",
      "outputs": [],
      "stateMutability": "nonpayable",
      "type": "function"
    },
    {
      "inputs": [
        {
          "internalType": "uint256",
          "name": "productId",
          "type": "uint256"
        },
        {
          "internalType": "string",
          "name": "_supplierName",
          "type": "string"
        },
        {
          "internalType": "string",
          "name": "_warehouseAddress",
          "type": "string"
        },
        {
          "internalType": "string",
          "name": "_supplierId",
          "type": "string"
        },
        {
          "internalType": "string",
          "name": "_phone",
          "type": "string"
        },
        {
          "internalType": "string",
          "name": "_email",
          "type": "string"
        }
      ],
      "name": "addSupplierWarehouseInfo",
      "outputs": [],
      "stateMutability": "nonpayable",
      "type": "function"
    },
    {
      "inputs": [
        {
          "internalType": "uint256",
          "name": "productId",
          "type": "uint256"
        },
        {
          "internalType": "string",
          "name": "_orderId",
          "type": "string"
        },
        {
          "internalType": "string",
          "name": "_customerName",
          "type": "string"
        },
        {
          "internalType": "string",
          "name": "_purchaseDate",
          "type": "string"
        },
        {
          "internalType": "string",
          "name": "_returnPolicy",
          "type": "string"
        },
        {
          "internalType": "uint256",
          "name": "_purchaseTotal",
          "type": "uint256"
        }
      ],
      "name": "addPurchaseAgreement",
      "outputs": [],
      "stateMutability": "nonpayable",
      "type": "function"
    },
    {
      "inputs": [
        {
          "internalType": "uint256",
          "name": "productId",
          "type": "uint256"
        },
        {
          "internalType": "string",
          "name": "_warrantyId",
          "type": "string"
        },
        {
          "internalType": "string",
          "name": "_provider",
          "type": "string"
        },
        {
          "internalType": "string",
          "name": "_coverageType",
          "type": "string"
        },
        {
          "internalType": "uint256",
          "name": "_maxClaimAmount",
          "type": "uint256"
        },
        {
          "internalType": "uint256",
          "name": "_premium",
          "type": "uint256"
        },
        {
          "internalType": "string",
          "name": "_claimId",
          "type": "string"
        },
        {
          "internalType": "uint256",
          "name": "_amountClaimed",
          "type": "uint256"
        },
        {
          "internalType": "string",
          "name": "_claimDate",
          "type": "string"
        },
        {
          "internalType": "string",
          "name": "_status",
          "type": "string"
        }
      ],
      "name": "addWarrantyData",
      "outputs": [],
      "stateMutability": "nonpayable",
      "type": "function"
    },
    {
      "inputs": [
        {
          "internalType": "uint256",
          "name": "productId",
          "type": "uint256"
        },
        {
          "internalType": "string",
          "name": "_customerId",
          "type": "string"
        },
        {
          "internalType": "string",
          "name": "_customerName",
          "type": "string"
        },
        {
          "internalType": "string",
          "name": "_purchaseDate",
          "type": "string"
        },
        {
          "internalType": "string",
          "name": "_phone",
          "type": "string"
        },
        {
          "internalType": "string",
          "name": "_email",
          "type": "string"
        }
      ],
      "name": "addCustomerRecord",
      "outputs": [],
      "stateMutability": "nonpayable",
      "type": "function"
    },
    {
      "inputs": [
        {
          "internalType": "uint256",
          "name": "productId",
          "type": "uint256"
        },
        {
          "internalType": "string",
          "name": "_inspectionName",
          "type": "string"
        },
        {
          "internalType": "string",
          "name": "_inspectionDate",
          "type": "string"
        },
        {
          "internalType": "string",
          "name": "_inspectorName",
          "type": "string"
        },
        {
          "internalType": "string",
          "name": "_facilityName",
          "type": "string"
        },
        {
          "internalType": "string",
          "name": "_phone",
          "type": "string"
        },
        {
          "internalType": "string",
          "name": "_email",
          "type": "string"
        }
      ],
      "name": "addQualityCheckRecord",
      "outputs": [],
      "stateMutability": "nonpayable",
      "type": "function"
    },
    {
      "inputs": [
        {
          "internalType": "uint256",
          "name": "productId",
          "type": "uint256"
        },
        {
          "internalType": "string",
          "name": "_campaignType",
          "type": "string"
        },
        {
          "internalType": "string",
          "name": "_managerName",
          "type": "string"
        },
        {
          "internalType": "string",
          "name": "_channel",
          "type": "string"
        },
        {
          "internalType": "string",
          "name": "_phone",
          "type": "string"
        },
        {
          "internalType": "string",
          "name": "_campaignDate",
          "type": "string"
        },
        {
          "internalType": "string",
          "name": "_progress",
          "type": "string"
        }
      ],
      "name": "addMarketingRecord",
      "outputs": [],
      "stateMutability": "nonpayable",
      "type": "function"
    },
    {
      "inputs": [],
      "name": "getNoOfProducts",
      "outputs": [
        {
          "internalType": "uint256",
          "name": "",
          "type": "uint256"
        }
      ],
      "stateMutability": "view",
      "type": "function"
    },
    {
      "inputs": [
        {
          "internalType": "uint256",
          "name": "productId",
          "type": "uint256"
        }
      ],
      "name": "getProductInfo",
      "outputs": [
        {
          "components": [
            {
              "internalType": "string",
              "name": "id",
              "type": "string"
            },
            {
              "internalType": "string",
              "name": "name",
              "type": "string"
            },
            {
              "internalType": "string",
              "name": "category",
              "type": "string"
            },
            {
              "internalType": "string",
              "name": "releaseDate",
              "type": "string"
            }
          ],
          "internalType": "struct EcommerceContract.ProductInformation",
          "name": "",
          "type": "tuple"
        }
      ],
      "stateMutability": "view",
      "type": "function"
    },
    {
      "inputs": [
        {
          "internalType": "uint256",
          "name": "productId",
          "type": "uint256"
        }
      ],
      "name": "getSupplierWarehouseInfo",
      "outputs": [
        {
          "components": [
            {
              "internalType": "string",
              "name": "supplierName",
              "type": "string"
            },
            {
              "internalType": "string",
              "name": "warehouseAddress",
              "type": "string"
            },
            {
              "internalType": "string",
              "name": "supplierId",
              "type": "string"
            },
            {
              "internalType": "string",
              "name": "phone",
              "type": "string"
            },
            {
              "internalType": "string",
              "name": "email",
              "type": "string"
            }
          ],
          "internalType": "struct EcommerceContract.SupplierWarehouseRecords",
          "name": "",
          "type": "tuple"
        }
      ],
      "stateMutability": "view",
      "type": "function"
    },
    {
      "inputs": [
        {
          "internalType": "uint256",
          "name": "productId",
          "type": "uint256"
        }
      ],
      "name": "getCustomerRecords",
      "outputs": [
        {
          "components": [
            {
              "internalType": "string",
              "name": "customerId",
              "type": "string"
            },
            {
              "internalType": "string",
              "name": "customerName",
              "type": "string"
            },
            {
              "internalType": "string",
              "name": "purchaseDate",
              "type": "string"
            },
            {
              "internalType": "string",
              "name": "phone",
              "type": "string"
            },
            {
              "internalType": "string",
              "name": "email",
              "type": "string"
            }
          ],
          "internalType": "struct EcommerceContract.CustomerRecord[]",
          "name": "",
          "type": "tuple[]"
        }
      ],
      "stateMutability": "view",
      "type": "function"
    },
    {
      "inputs": [
        {
          "internalType": "uint256",
          "name": "productId",
          "type": "uint256"
        }
      ],
      "name": "getQualityCheckRecords",
      "outputs": [
        {
          "components": [
            {
              "internalType": "string",
              "name": "inspectionName",
              "type": "string"
            },
            {
              "internalType": "string",
              "name": "inspectionDate",
              "type": "string"
            },
            {
              "internalType": "string",
              "name": "inspectorName",
              "type": "string"
            },
            {
              "internalType": "string",
              "name": "facilityName",
              "type": "string"
            },
            {
              "internalType": "string",
              "name": "phone",
              "type": "string"
            },
            {
              "internalType": "string",
              "name": "email",
              "type": "string"
            }
          ],
          "internalType": "struct EcommerceContract.QualityCheckRecord[]",
          "name": "",
          "type": "tuple[]"
        }
      ],
      "stateMutability": "view",
      "type": "function"
    },
    {
      "inputs": [
        {
          "internalType": "uint256",
          "name": "productId",
          "type": "uint256"
        }
      ],
      "name": "getMarketingRecords",
      "outputs": [
        {
          "components": [
            {
              "internalType": "string",
              "name": "campaignType",
              "type": "string"
            },
            {
              "internalType": "string",
              "name": "managerName",
              "type": "string"
            },
            {
              "internalType": "string",
              "name": "channel",
              "type": "string"
            },
            {
              "internalType": "string",
              "name": "phone",
              "type": "string"
            },
            {
              "internalType": "string",
              "name": "campaignDate",
              "type": "string"
            },
            {
              "internalType": "string",
              "name": "progress",
              "type": "string"
            }
          ],
          "internalType": "struct EcommerceContract.MarketingRecord[]",
          "name": "",
          "type": "tuple[]"
        }
      ],
      "stateMutability": "view",
      "type": "function"
    },
    {
      "inputs": [
        {
          "internalType": "uint256",
          "name": "productId",
          "type": "uint256"
        }
      ],
      "name": "getWarrantyData",
      "outputs": [
        {
          "components": [
            {
              "internalType": "string",
              "name": "warrantyId",
              "type": "string"
            },
            {
              "internalType": "string",
              "name": "provider",
              "type": "string"
            },
            {
              "internalType": "string",
              "name": "coverageType",
              "type": "string"
            },
            {
              "internalType": "uint256",
              "name": "maxClaimAmount",
              "type": "uint256"
            },
            {
              "internalType": "uint256",
              "name": "premium",
              "type": "uint256"
            },
            {
              "internalType": "string",
              "name": "claimId",
              "type": "string"
            },
            {
              "internalType": "uint256",
              "name": "amountClaimed",
              "type": "uint256"
            },
            {
              "internalType": "string",
              "name": "claimDate",
              "type": "string"
            },
            {
              "internalType": "string",
              "name": "status",
              "type": "string"
            }
          ],
          "internalType": "struct EcommerceContract.WarrantyData",
          "name": "",
          "type": "tuple"
        }
      ],
      "stateMutability": "view",
      "type": "function"
    },
    {
      "inputs": [
        {
          "internalType": "uint256",
          "name": "productId",
          "type": "uint256"
        }
      ],
      "name": "getPurchaseAgreement",
      "outputs": [
        {
          "components": [
            {
              "internalType": "string",
              "name": "orderId",
              "type": "string"
            },
            {
              "internalType": "string",
              "name": "customerName",
              "type": "string"
            },
            {
              "internalType": "string",
              "name": "purchaseDate",
              "type": "string"
            },
            {
              "internalType": "string",
              "name": "returnPolicy",
              "type": "string"
            },
            {
              "internalType": "uint256",
              "name": "purchaseTotal",
              "type": "uint256"
            }
          ],
          "internalType": "struct EcommerceContract.PurchaseAgreement",
          "name": "",
          "type": "tuple"
        }
      ],
      "stateMutability": "view",
      "type": "function"
    }
  ],
  "bytecode": "0x60806040523480156200001157600080fd5b5060006001819055506040518060400160405280601281526020017f45636f6d6d65204d61726b6574706c616365000000000000000000000000000081525060009081620000609190620002e1565b50620003c8565b600081519050919050565b7f4e487b7100000000000000000000000000000000000000000000000000000000600052604160045260246000fd5b7f4e487b7100000000000000000000000000000000000000000000000000000000600052602260045260246000fd5b60006002820490506001821680620000e957607f821691505b602082108103620000ff57620000fe620000a1565b5b50919050565b60008190508160005260206000209050919050565b60006020601f8301049050919050565b600082821b905092915050565b600060088302620001697fffffffffffffffffffffffffffffffffffffffffffffffffffffffffffffffff826200012a565b6200017586836200012a565b95508019841693508086168417925050509392505050565b6000819050919050565b6000819050919050565b6000620001c2620001bc620001b6846200018d565b62000197565b6200018d565b9050919050565b6000819050919050565b620001de83620001a1565b620001f6620001ed82620001c9565b84845462000137565b825550505050565b600090565b6200020d620001fe565b6200021a818484620001d3565b505050565b5b8181101562000242576200023660008262000203565b60018101905062000220565b5050565b601f82111562000291576200025b8162000105565b62000266846200011a565b8101602085101562000276578190505b6200028e62000285856200011a565b8301826200021f565b50505b505050565b600082821c905092915050565b6000620002b66000198460080262000296565b1980831691505092915050565b6000620002d18383620002a3565b9150826002028217905092915050565b620002ec8262000067565b67ffffffffffffffff81111562000308576200030762000072565b5b620003148254620000d0565b6200032182828562000246565b600060209050601f83116001811462000359576000841562000344578287015190505b620003508582620002c3565b865550620003c0565b601f198416620003698662000105565b60005b8281101562000393578489015182556001820191506020850194506020810190506200036c565b86831015620003b35784890151620003af601f891682620002a3565b8355505b6001600288020188555050505b505050505050565b61423980620003d86000396000f3fe608060405234801561001057600080fd5b50600436106101215760003560e01c80637bd30e97116100ad578063de0c113411610071578063de0c113414610343578063dfd92f8a14610373578063fee4dc6c14610391578063ff3f64c4146103ad578063ff4074f3146103c957610121565b80637bd30e971461027b57806384fee211146102ab57806385f3388c146102db578063981d07cd1461030b578063a637047a1461032757610121565b8063455d04b6116100f4578063455d04b61461019a5780636558bc59146101ca57806378a6d599146101fa57806379a85e6c146102185780637acc0b201461024857610121565b806312eb1de5146101265780631d6069fc146101425780632ab1c2ca146101605780632c4d30051461017c575b600080fd5b610140600480360381019061013b9190612f8f565b6103e5565b005b61014a61047e565b60405161015791906130f9565b60405180910390f35b61017a6004803603810190610175919061311b565b61050c565b005b6101846105b6565b60405161019191906130f9565b60405180910390f35b6101b460048036038101906101af9190613218565b610648565b6040516101c19190613386565b60405180910390f35b6101e460048036038101906101df9190613218565b610a03565b6040516101f19190613433565b60405180910390f35b610202610c85565b60405161020f9190613464565b60405180910390f35b610232600480360381019061022d9190613218565b610c8f565b60405161023f91906134f7565b60405180910390f35b610262600480360381019061025d9190613218565b610f07565b60405161027294939291906135ab565b60405180910390f35b61029560048036038101906102909190613218565b611a5e565b6040516102a2919061360c565b60405180910390f35b6102c560048036038101906102c09190613218565b611d68565b6040516102d2919061379c565b60405180910390f35b6102f560048036038101906102f09190613218565b612149565b604051610302919061392c565b60405180910390f35b6103256004803603810190610320919061394e565b61252a565b005b610341600480360381019061033c9190613ad5565b612632565b005b61035d60048036038101906103589190613218565b61272d565b60405161036a9190613d73565b60405180910390f35b61037b612a7c565b6040516103889190613464565b60405180910390f35b6103ab60048036038101906103a69190613ad5565b612a9e565b005b6103c760048036038101906103c29190613d95565b612b99565b005b6103e360048036038101906103de9190613d95565b612c4f565b005b60405180608001604052808581526020018481526020018381526020018281525060026000878152602001908152602001600020600001600082015181600001908161043191906140ba565b50602082015181600101908161044791906140ba565b50604082015181600201908161045d91906140ba565b50606082015181600301908161047391906140ba565b509050505050505050565b6000805461048b90613edd565b80601f01602080910402602001604051908101604052809291908181526020018280546104b790613edd565b80156105045780601f106104d957610100808354040283529160200191610504565b820191906000526020600020905b8154815290600101906020018083116104e757829003601f168201915b505050505081565b6040518060a001604052808681526020018581526020018481526020018381526020018281525060026000888152602001908152602001600020600901600082015181600001908161055e91906140ba565b50602082015181600101908161057491906140ba565b50604082015181600201908161058a91906140ba565b5060608201518160030190816105a091906140ba565b5060808201518160040155905050505050505050565b6060600080546105c590613edd565b80601f01602080910402602001604051908101604052809291908181526020018280546105f190613edd565b801561063e5780601f106106135761010080835404028352916020019161063e565b820191906000526020600020905b81548152906001019060200180831161062157829003601f168201915b5050505050905090565b610650612d2d565b60026000838152602001908152602001600020600e016040518061012001604052908160008201805461068290613edd565b80601f01602080910402602001604051908101604052809291908181526020018280546106ae90613edd565b80156106fb5780601f106106d0576101008083540402835291602001916106fb565b820191906000526020600020905b8154815290600101906020018083116106de57829003601f168201915b5050505050815260200160018201805461071490613edd565b80601f016020809104026020016040519081016040528092919081815260200182805461074090613edd565b801561078d5780601f106107625761010080835404028352916020019161078d565b820191906000526020600020905b81548152906001019060200180831161077057829003601f168201915b505050505081526020016002820180546107a690613edd565b80601f01602080910402602001604051908101604052809291908181526020018280546107d290613edd565b801561081f5780601f106107f45761010080835404028352916020019161081f565b820191906000526020600020905b81548152906001019060200180831161080257829003601f168201915b50505050508152602001600382015481526020016004820154815260200160058201805461084c90613edd565b80601f016020809104026020016040519081016040528092919081815260200182805461087890613edd565b80156108c55780601f1061089a576101008083540402835291602001916108c5565b820191906000526020600020905b8154815290600101906020018083116108a857829003601f168201915b50505050508152602001600682015481526020016007820180546108e890613edd565b80601f016020809104026020016040519081016040528092919081815260200182805461091490613edd565b80156109615780601f1061093657610100808354040283529160200191610961565b820191906000526020600020905b81548152906001019060200180831161094457829003601f168201915b5050505050815260200160088201805461097a90613edd565b80601f01602080910402602001604051908101604052809291908181526020018280546109a690613edd565b80156109f35780601f106109c8576101008083540402835291602001916109f3565b820191906000526020600020905b8154815290600101906020018083116109d657829003601f168201915b5050505050815250509050919050565b610a0b612d79565b600260008381526020019081526020016000206009016040518060a0016040529081600082018054610a3c90613edd565b80601f0160208091040260200160405190810160405280929190818152602001828054610a6890613edd565b8015610ab55780601f10610a8a57610100808354040283529160200191610ab5565b820191906000526020600020905b815481529060010190602001808311610a9857829003601f168201915b50505050508152602001600182018054610ace90613edd565b80601f0160208091040260200160405190810160405280929190818152602001828054610afa90613edd565b8015610b475780601f10610b1c57610100808354040283529160200191610b47565b820191906000526020600020905b815481529060010190602001808311610b2a57829003601f168201915b50505050508152602001600282018054610b6090613edd565b80601f0160208091040260200160405190810160405280929190818152602001828054610b8c90613edd565b8015610bd95780601f10610bae57610100808354040283529160200191610bd9565b820191906000526020600020905b815481529060010190602001808311610bbc57829003601f168201915b50505050508152602001600382018054610bf290613edd565b80601f0160208091040260200160405190810160405280929190818152602001828054610c1e90613edd565b8015610c6b5780601f10610c4057610100808354040283529160200191610c6b565b820191906000526020600020905b815481529060010190602001808311610c4e57829003601f168201915b505050505081526020016004820154815250509050919050565b6000600154905090565b610c97612da8565b60026000838152602001908152602001600020600001604051806080016040529081600082018054610cc890613edd565b80601f0160208091040260200160405190810160405280929190818152602001828054610cf490613edd565b8015610d415780601f10610d1657610100808354040283529160200191610d41565b820191906000526020600020905b815481529060010190602001808311610d2457829003601f168201915b50505050508152602001600182018054610d5a90613edd565b80601f0160208091040260200160405190810160405280929190818152602001828054610d8690613edd565b8015610dd35780601f10610da857610100808354040283529160200191610dd3565b820191906000526020600020905b815481529060010190602001808311610db657829003601f168201915b50505050508152602001600282018054610dec90613edd565b80601f0160208091040260200160405190810160405280929190818152602001828054610e1890613edd565b8015610e655780601f10610e3a57610100808354040283529160200191610e65565b820191906000526020600020905b815481529060010190602001808311610e4857829003601f168201915b50505050508152602001600382018054610e7e90613edd565b80601f0160208091040260200160405190810160405280929190818152602001828054610eaa90613edd565b8015610ef75780601f10610ecc57610100808354040283529160200191610ef7565b820191906000526020600020905b815481529060010190602001808311610eda57829003601f168201915b5050505050815250509050919050565b600260205280600052604060002060009150905080600001604051806080016040529081600082018054610f3a90613edd565b80601f0160208091040260200160405190810160405280929190818152602001828054610f6690613edd565b8015610fb35780601f10610f8857610100808354040283529160200191610fb3565b820191906000526020600020905b815481529060010190602001808311610f9657829003601f168201915b50505050508152602001600182018054610fcc90613edd565b80601f0160208091040260200160405190810160405280929190818152602001828054610ff890613edd565b80156110455780601f1061101a57610100808354040283529160200191611045565b820191906000526020600020905b81548152906001019060200180831161102857829003601f168201915b5050505050815260200160028201805461105e90613edd565b80601f016020809104026020016040519081016040528092919081815260200182805461108a90613edd565b80156110d75780601f106110ac576101008083540402835291602001916110d7565b820191906000526020600020905b8154815290600101906020018083116110ba57829003601f168201915b505050505081526020016003820180546110f090613edd565b80601f016020809104026020016040519081016040528092919081815260200182805461111c90613edd565b80156111695780601f1061113e57610100808354040283529160200191611169565b820191906000526020600020905b81548152906001019060200180831161114c57829003601f168201915b50505050508152505090806004016040518060a001604052908160008201805461119290613edd565b80601f01602080910402602001604051908101604052809291908181526020018280546111be90613edd565b801561120b5780601f106111e05761010080835404028352916020019161120b565b820191906000526020600020905b8154815290600101906020018083116111ee57829003601f168201915b5050505050815260200160018201805461122490613edd565b80601f016020809104026020016040519081016040528092919081815260200182805461125090613edd565b801561129d5780601f106112725761010080835404028352916020019161129d565b820191906000526020600020905b81548152906001019060200180831161128057829003601f168201915b505050505081526020016002820180546112b690613edd565b80601f01602080910402602001604051908101604052809291908181526020018280546112e290613edd565b801561132f5780601f106113045761010080835404028352916020019161132f565b820191906000526020600020905b81548152906001019060200180831161131257829003601f168201915b5050505050815260200160038201805461134890613edd565b80601f016020809104026020016040519081016040528092919081815260200182805461137490613edd565b80156113c15780601f10611396576101008083540402835291602001916113c1565b820191906000526020600020905b8154815290600101906020018083116113a457829003601f168201915b505050505081526020016004820180546113da90613edd565b80601f016020809104026020016040519081016040528092919081815260200182805461140690613edd565b80156114535780601f1061142857610100808354040283529160200191611453565b820191906000526020600020905b81548152906001019060200180831161143657829003601f168201915b50505050508152505090806009016040518060a001604052908160008201805461147c90613edd565b80601f01602080910402602001604051908101604052809291908181526020018280546114a890613edd565b80156114f55780601f106114ca576101008083540402835291602001916114f5565b820191906000526020600020905b8154815290600101906020018083116114d857829003601f168201915b5050505050815260200160018201805461150e90613edd565b80601f016020809104026020016040519081016040528092919081815260200182805461153a90613edd565b80156115875780601f1061155c57610100808354040283529160200191611587565b820191906000526020600020905b81548152906001019060200180831161156a57829003601f168201915b505050505081526020016002820180546115a090613edd565b80601f01602080910402602001604051908101604052809291908181526020018280546115cc90613edd565b80156116195780601f106115ee57610100808354040283529160200191611619565b820191906000526020600020905b8154815290600101906020018083116115fc57829003601f168201915b5050505050815260200160038201805461163290613edd565b80601f016020809104026020016040519081016040528092919081815260200182805461165e90613edd565b80156116ab5780601f10611680576101008083540402835291602001916116ab565b820191906000526020600020905b81548152906001019060200180831161168e57829003601f168201915b505050505081526020016004820154815250509080600e01604051806101200160405290816000820180546116df90613edd565b80601f016020809104026020016040519081016040528092919081815260200182805461170b90613edd565b80156117585780601f1061172d57610100808354040283529160200191611758565b820191906000526020600020905b81548152906001019060200180831161173b57829003601f168201915b5050505050815260200160018201805461177190613edd565b80601f016020809104026020016040519081016040528092919081815260200182805461179d90613edd565b80156117ea5780601f106117bf576101008083540402835291602001916117ea565b820191906000526020600020905b8154815290600101906020018083116117cd57829003601f168201915b5050505050815260200160028201805461180390613edd565b80601f016020809104026020016040519081016040528092919081815260200182805461182f90613edd565b801561187c5780601f106118515761010080835404028352916020019161187c565b820191906000526020600020905b81548152906001019060200180831161185f57829003601f168201915b5050505050815260200160038201548152602001600482015481526020016005820180546118a990613edd565b80601f01602080910402602001604051908101604052809291908181526020018280546118d590613edd565b80156119225780601f106118f757610100808354040283529160200191611922565b820191906000526020600020905b81548152906001019060200180831161190557829003601f168201915b505050505081526020016006820154815260200160078201805461194590613edd565b80601f016020809104026020016040519081016040528092919081815260200182805461197190613edd565b80156119be5780601f10611993576101008083540402835291602001916119be565b820191906000526020600020905b8154815290600101906020018083116119a157829003601f168201915b505050505081526020016008820180546119d790613edd565b80601f0160208091040260200160405190810160405280929190818152602001828054611a0390613edd565b8015611a505780601f10611a2557610100808354040283529160200191611a50565b820191906000526020600020905b815481529060010190602001808311611a3357829003601f168201915b505050505081525050905084565b611a66612dd0565b600260008381526020019081526020016000206004016040518060a0016040529081600082018054611a9790613edd565b80601f0160208091040260200160405190810160405280929190818152602001828054611ac390613edd565b8015611b105780601f10611ae557610100808354040283529160200191611b10565b820191906000526020600020905b815481529060010190602001808311611af357829003601f168201915b50505050508152602001600182018054611b2990613edd565b80601f0160208091040260200160405190810160405280929190818152602001828054611b5590613edd565b8015611ba25780601f10611b7757610100808354040283529160200191611ba2565b820191906000526020600020905b815481529060010190602001808311611b8557829003601f168201915b50505050508152602001600282018054611bbb90613edd565b80601f0160208091040260200160405190810160405280929190818152602001828054611be790613edd565b8015611c345780601f10611c0957610100808354040283529160200191611c34565b820191906000526020600020905b815481529060010190602001808311611c1757829003601f168201915b50505050508152602001600382018054611c4d90613edd565b80601f0160208091040260200160405190810160405280929190818152602001828054611c7990613edd565b8015611cc65780601f10611c9b57610100808354040283529160200191611cc6565b820191906000526020600020905b815481529060010190602001808311611ca957829003601f168201915b50505050508152602001600482018054611cdf90613edd565b80601f0160208091040260200160405190810160405280929190818152602001828054611d0b90613edd565b8015611d585780601f10611d2d57610100808354040283529160200191611d58565b820191906000526020600020905b815481529060010190602001808311611d3b57829003601f168201915b5050505050815250509050919050565b606060026000838152602001908152602001600020601901805480602002602001604051908101604052809291908181526020016000905b8282101561213e57838290600052602060002090600602016040518060c0016040529081600082018054611dd390613edd565b80601f0160208091040260200160405190810160405280929190818152602001828054611dff90613edd565b8015611e4c5780601f10611e2157610100808354040283529160200191611e4c565b820191906000526020600020905b815481529060010190602001808311611e2f57829003601f168201915b50505050508152602001600182018054611e6590613edd565b80601f0160208091040260200160405190810160405280929190818152602001828054611e9190613edd565b8015611ede5780601f10611eb357610100808354040283529160200191611ede565b820191906000526020600020905b815481529060010190602001808311611ec157829003601f168201915b50505050508152602001600282018054611ef790613edd565b80601f0160208091040260200160405190810160405280929190818152602001828054611f2390613edd565b8015611f705780601f10611f4557610100808354040283529160200191611f70565b820191906000526020600020905b815481529060010190602001808311611f5357829003601f168201915b50505050508152602001600382018054611f8990613edd565b80601f0160208091040260200160405190810160405280929190818152602001828054611fb590613edd565b80156120025780601f10611fd757610100808354040283529160200191612002565b820191906000526020600020905b815481529060010190602001808311611fe557829003601f168201915b5050505050815260200160048201805461201b90613edd565b80601f016020809104026020016040519081016040528092919081815260200182805461204790613edd565b80156120945780601f1061206957610100808354040283529160200191612094565b820191906000526020600020905b81548152906001019060200180831161207757829003601f168201915b505050505081526020016005820180546120ad90613edd565b80601f01602080910402602001604051908101604052809291908181526020018280546120d990613edd565b80156121265780601f106120fb57610100808354040283529160200191612126565b820191906000526020600020905b81548152906001019060200180831161210957829003601f168201915b50505050508152505081526020019060010190611da0565b505050509050919050565b606060026000838152602001908152602001600020601801805480602002602001604051908101604052809291908181526020016000905b8282101561251f57838290600052602060002090600602016040518060c00160405290816000820180546121b490613edd565b80601f01602080910402602001604051908101604052809291908181526020018280546121e090613edd565b801561222d5780601f106122025761010080835404028352916020019161222d565b820191906000526020600020905b81548152906001019060200180831161221057829003601f168201915b5050505050815260200160018201805461224690613edd565b80601f016020809104026020016040519081016040528092919081815260200182805461227290613edd565b80156122bf5780601f10612294576101008083540402835291602001916122bf565b820191906000526020600020905b8154815290600101906020018083116122a257829003601f168201915b505050505081526020016002820180546122d890613edd565b80601f016020809104026020016040519081016040528092919081815260200182805461230490613edd565b80156123515780601f1061232657610100808354040283529160200191612351565b820191906000526020600020905b81548152906001019060200180831161233457829003601f168201915b5050505050815260200160038201805461236a90613edd565b80601f016020809104026020016040519081016040528092919081815260200182805461239690613edd565b80156123e35780601f106123b8576101008083540402835291602001916123e3565b820191906000526020600020905b8154815290600101906020018083116123c657829003601f168201915b505050505081526020016004820180546123fc90613edd565b80601f016020809104026020016040519081016040528092919081815260200182805461242890613edd565b80156124755780601f1061244a57610100808354040283529160200191612475565b820191906000526020600020905b81548152906001019060200180831161245857829003601f168201915b5050505050815260200160058201805461248e90613edd565b80601f01602080910402602001604051908101604052809291908181526020018280546124ba90613edd565b80156125075780601f106124dc57610100808354040283529160200191612507565b820191906000526020600020905b8154815290600101906020018083116124ea57829003601f168201915b50505050508152505081526020019060010190612181565b505050509050919050565b6040518061012001604052808a815260200189815260200188815260200187815260200186815260200185815260200184815260200183815260200182815250600260008c8152602001908152602001600020600e01600082015181600001908161259591906140ba565b5060208201518160010190816125ab91906140ba565b5060408201518160020190816125c191906140ba565b50606082015181600301556080820151816004015560a08201518160050190816125eb91906140ba565b5060c0820151816006015560e082015181600701908161260b91906140ba565b5061010082015181600801908161262291906140ba565b5090505050505050505050505050565b600260008881526020019081526020016000206018016040518060c0016040528088815260200187815260200186815260200185815260200184815260200183815250908060018154018082558091505060019003906000526020600020906006020160009091909190915060008201518160000190816126b391906140ba565b5060208201518160010190816126c991906140ba565b5060408201518160020190816126df91906140ba565b5060608201518160030190816126f591906140ba565b50608082015181600401908161270b91906140ba565b5060a082015181600501908161272191906140ba565b50505050505050505050565b606060026000838152602001908152602001600020601701805480602002602001604051908101604052809291908181526020016000905b82821015612a7157838290600052602060002090600502016040518060a001604052908160008201805461279890613edd565b80601f01602080910402602001604051908101604052809291908181526020018280546127c490613edd565b80156128115780601f106127e657610100808354040283529160200191612811565b820191906000526020600020905b8154815290600101906020018083116127f457829003601f168201915b5050505050815260200160018201805461282a90613edd565b80601f016020809104026020016040519081016040528092919081815260200182805461285690613edd565b80156128a35780601f10612878576101008083540402835291602001916128a3565b820191906000526020600020905b81548152906001019060200180831161288657829003601f168201915b505050505081526020016002820180546128bc90613edd565b80601f01602080910402602001604051908101604052809291908181526020018280546128e890613edd565b80156129355780601f1061290a57610100808354040283529160200191612935565b820191906000526020600020905b81548152906001019060200180831161291857829003601f168201915b5050505050815260200160038201805461294e90613edd565b80601f016020809104026020016040519081016040528092919081815260200182805461297a90613edd565b80156129c75780601f1061299c576101008083540402835291602001916129c7565b820191906000526020600020905b8154815290600101906020018083116129aa57829003601f168201915b505050505081526020016004820180546129e090613edd565b80601f0160208091040260200160405190810160405280929190818152602001828054612a0c90613edd565b8015612a595780601f10612a2e57610100808354040283529160200191612a59565b820191906000526020600020905b815481529060010190602001808311612a3c57829003601f168201915b50505050508152505081526020019060010190612765565b505050509050919050565b600060016000815480929190612a91906141bb565b9190505550600154905090565b600260008881526020019081526020016000206019016040518060c001604052808881526020018781526020018681526020018581526020018481526020018381525090806001815401808255809150506001900390600052602060002090600602016000909190919091506000820151816000019081612b1f91906140ba565b506020820151816001019081612b3591906140ba565b506040820151816002019081612b4b91906140ba565b506060820151816003019081612b6191906140ba565b506080820151816004019081612b7791906140ba565b5060a0820151816005019081612b8d91906140ba565b50505050505050505050565b6040518060a0016040528086815260200185815260200184815260200183815260200182815250600260008881526020019081526020016000206004016000820151816000019081612beb91906140ba565b506020820151816001019081612c0191906140ba565b506040820151816002019081612c1791906140ba565b506060820151816003019081612c2d91906140ba565b506080820151816004019081612c4391906140ba565b50905050505050505050565b600260008781526020019081526020016000206017016040518060a001604052808781526020018681526020018581526020018481526020018381525090806001815401808255809150506001900390600052602060002090600502016000909190919091506000820151816000019081612cca91906140ba565b506020820151816001019081612ce091906140ba565b506040820151816002019081612cf691906140ba565b506060820151816003019081612d0c91906140ba565b506080820151816004019081612d2291906140ba565b505050505050505050565b6040518061012001604052806060815260200160608152602001606081526020016000815260200160008152602001606081526020016000815260200160608152602001606081525090565b6040518060a0016040528060608152602001606081526020016060815260200160608152602001600081525090565b6040518060800160405280606081526020016060815260200160608152602001606081525090565b6040518060a0016040528060608152602001606081526020016060815260200160608152602001606081525090565b6000604051905090565b600080fd5b600080fd5b6000819050919050565b612e2681612e13565b8114612e3157600080fd5b50565b600081359050612e4381612e1d565b92915050565b600080fd5b600080fd5b6000601f19601f8301169050919050565b7f4e487b7100000000000000000000000000000000000000000000000000000000600052604160045260246000fd5b612e9c82612e53565b810181811067ffffffffffffffff82111715612ebb57612eba612e64565b5b80604052505050565b6000612ece612dff565b9050612eda8282612e93565b919050565b600067ffffffffffffffff821115612efa57612ef9612e64565b5b612f0382612e53565b9050602081019050919050565b82818337600083830152505050565b6000612f32612f2d84612edf565b612ec4565b905082815260208101848484011115612f4e57612f4d612e4e565b5b612f59848285612f10565b509392505050565b600082601f830112612f7657612f75612e49565b5b8135612f86848260208601612f1f565b91505092915050565b600080600080600060a08688031215612fab57612faa612e09565b5b6000612fb988828901612e34565b955050602086013567ffffffffffffffff811115612fda57612fd9612e0e565b5b612fe688828901612f61565b945050604086013567ffffffffffffffff81111561300757613006612e0e565b5b61301388828901612f61565b935050606086013567ffffffffffffffff81111561303457613033612e0e565b5b61304088828901612f61565b925050608086013567ffffffffffffffff81111561306157613060612e0e565b5b61306d88828901612f61565b9150509295509295909350565b600081519050919050565b600082825260208201905092915050565b60005b838110156130b4578082015181840152602081019050613099565b60008484015250505050565b60006130cb8261307a565b6130d58185613085565b93506130e5818560208601613096565b6130ee81612e53565b840191505092915050565b6000602082019050818103600083015261311381846130c0565b905092915050565b60008060008060008060c0878903121561313857613137612e09565b5b600061314689828a01612e34565b965050602087013567ffffffffffffffff81111561316757613166612e0e565b5b61317389828a01612f61565b955050604087013567ffffffffffffffff81111561319457613193612e0e565b5b6131a089828a01612f61565b945050606087013567ffffffffffffffff8111156131c1576131c0612e0e565b5b6131cd89828a01612f61565b935050608087013567ffffffffffffffff8111156131ee576131ed612e0e565b5b6131fa89828a01612f61565b92505060a061320b89828a01612e34565b9150509295509295509295565b60006020828403121561322e5761322d612e09565b5b600061323c84828501612e34565b91505092915050565b600082825260208201905092915050565b60006132618261307a565b61326b8185613245565b935061327b818560208601613096565b61328481612e53565b840191505092915050565b61329881612e13565b82525050565b60006101208301600083015184820360008601526132bc8282613256565b915050602083015184820360208601526132d68282613256565b915050604083015184820360408601526132f08282613256565b9150506060830151613305606086018261328f565b506080830151613318608086018261328f565b5060a083015184820360a08601526133308282613256565b91505060c083015161334560c086018261328f565b5060e083015184820360e086015261335d8282613256565b9150506101008301518482036101008601526133798282613256565b9150508091505092915050565b600060208201905081810360008301526133a0818461329e565b905092915050565b600060a08301600083015184820360008601526133c58282613256565b915050602083015184820360208601526133df8282613256565b915050604083015184820360408601526133f98282613256565b915050606083015184820360608601526134138282613256565b9150506080830151613428608086018261328f565b508091505092915050565b6000602082019050818103600083015261344d81846133a8565b905092915050565b61345e81612e13565b82525050565b60006020820190506134796000830184613455565b92915050565b6000608083016000830151848203600086015261349c8282613256565b915050602083015184820360208601526134b68282613256565b915050604083015184820360408601526134d08282613256565b915050606083015184820360608601526134ea8282613256565b9150508091505092915050565b60006020820190508181036000830152613511818461347f565b905092915050565b600060a08301600083015184820360008601526135368282613256565b915050602083015184820360208601526135508282613256565b9150506040830151848203604086015261356a8282613256565b915050606083015184820360608601526135848282613256565b9150506080830151848203608086015261359e8282613256565b9150508091505092915050565b600060808201905081810360008301526135c5818761347f565b905081810360208301526135d98186613519565b905081810360408301526135ed81856133a8565b90508181036060830152613601818461329e565b905095945050505050565b600060208201905081810360008301526136268184613519565b905092915050565b600081519050919050565b600082825260208201905092915050565b6000819050602082019050919050565b600060c08301600083015184820360008601526136778282613256565b915050602083015184820360208601526136918282613256565b915050604083015184820360408601526136ab8282613256565b915050606083015184820360608601526136c58282613256565b915050608083015184820360808601526136df8282613256565b91505060a083015184820360a08601526136f98282613256565b9150508091505092915050565b6000613712838361365a565b905092915050565b6000602082019050919050565b60006137328261362e565b61373c8185613639565b93508360208202850161374e8561364a565b8060005b8581101561378a578484038952815161376b8582613706565b94506137768361371a565b925060208a01995050600181019050613752565b50829750879550505050505092915050565b600060208201905081810360008301526137b68184613727565b905092915050565b600081519050919050565b600082825260208201905092915050565b6000819050602082019050919050565b600060c08301600083015184820360008601526138078282613256565b915050602083015184820360208601526138218282613256565b9150506040830151848203604086015261383b8282613256565b915050606083015184820360608601526138558282613256565b9150506080830151848203608086015261386f8282613256565b91505060a083015184820360a08601526138898282613256565b9150508091505092915050565b60006138a283836137ea565b905092915050565b6000602082019050919050565b60006138c2826137be565b6138cc81856137c9565b9350836020820285016138de856137da565b8060005b8581101561391a57848403895281516138fb8582613896565b9450613906836138aa565b925060208a019950506001810190506138e2565b50829750879550505050505092915050565b6000602082019050818103600083015261394681846138b7565b905092915050565b6000806000806000806000806000806101408b8d03121561397257613971612e09565b5b60006139808d828e01612e34565b9a505060208b013567ffffffffffffffff8111156139a1576139a0612e0e565b5b6139ad8d828e01612f61565b99505060408b013567ffffffffffffffff8111156139ce576139cd612e0e565b5b6139da8d828e01612f61565b98505060608b013567ffffffffffffffff8111156139fb576139fa612e0e565b5b613a078d828e01612f61565b9750506080613a188d828e01612e34565b96505060a0613a298d828e01612e34565b95505060c08b013567ffffffffffffffff811115613a4a57613a49612e0e565b5b613a568d828e01612f61565b94505060e0613a678d828e01612e34565b9350506101008b013567ffffffffffffffff811115613a8957613a88612e0e565b5b613a958d828e01612f61565b9250506101208b013567ffffffffffffffff811115613ab757613ab6612e0e565b5b613ac38d828e01612f61565b9150509295989b9194979a5092959850565b600080600080600080600060e0888a031215613af457613af3612e09565b5b6000613b028a828b01612e34565b975050602088013567ffffffffffffffff811115613b2357613b22612e0e565b5b613b2f8a828b01612f61565b965050604088013567ffffffffffffffff811115613b5057613b4f612e0e565b5b613b5c8a828b01612f61565b955050606088013567ffffffffffffffff811115613b7d57613b7c612e0e565b5b613b898a828b01612f61565b945050608088013567ffffffffffffffff811115613baa57613ba9612e0e565b5b613bb68a828b01612f61565b93505060a088013567ffffffffffffffff811115613bd757613bd6612e0e565b5b613be38a828b01612f61565b92505060c088013567ffffffffffffffff811115613c0457613c03612e0e565b5b613c108a828b01612f61565b91505092959891949750929550565b600081519050919050565b600082825260208201905092915050565b6000819050602082019050919050565b600060a0830160008301518482036000860152613c688282613256565b91505060208301518482036020860152613c828282613256565b91505060408301518482036040860152613c9c8282613256565b91505060608301518482036060860152613cb68282613256565b91505060808301518482036080860152613cd08282613256565b9150508091505092915050565b6000613ce98383613c4b565b905092915050565b6000602082019050919050565b6000613d0982613c1f565b613d138185613c2a565b935083602082028501613d2585613c3b565b8060005b85811015613d615784840389528151613d428582613cdd565b9450613d4d83613cf1565b925060208a01995050600181019050613d29565b50829750879550505050505092915050565b60006020820190508181036000830152613d8d8184613cfe565b905092915050565b60008060008060008060c08789031215613db257613db1612e09565b5b6000613dc089828a01612e34565b965050602087013567ffffffffffffffff811115613de157613de0612e0e565b5b613ded89828a01612f61565b955050604087013567ffffffffffffffff811115613e0e57613e0d612e0e565b5b613e1a89828a01612f61565b945050606087013567ffffffffffffffff811115613e3b57613e3a612e0e565b5b613e4789828a01612f61565b935050608087013567ffffffffffffffff811115613e6857613e67612e0e565b5b613e7489828a01612f61565b92505060a087013567ffffffffffffffff811115613e9557613e94612e0e565b5b613ea189828a01612f61565b9150509295509295509295565b7f4e487b7100000000000000000000000000000000000000000000000000000000600052602260045260246000fd5b60006002820490506001821680613ef557607f821691505b602082108103613f0857613f07613eae565b5b50919050565b60008190508160005260206000209050919050565b60006020601f8301049050919050565b600082821b905092915050565b600060088302613f707fffffffffffffffffffffffffffffffffffffffffffffffffffffffffffffffff82613f33565b613f7a8683613f33565b95508019841693508086168417925050509392505050565b6000819050919050565b6000613fb7613fb2613fad84612e13565b613f92565b612e13565b9050919050565b6000819050919050565b613fd183613f9c565b613fe5613fdd82613fbe565b848454613f40565b825550505050565b600090565b613ffa613fed565b614005818484613fc8565b505050565b5b818110156140295761401e600082613ff2565b60018101905061400b565b5050565b601f82111561406e5761403f81613f0e565b61404884613f23565b81016020851015614057578190505b61406b61406385613f23565b83018261400a565b50505b505050565b600082821c905092915050565b600061409160001984600802614073565b1980831691505092915050565b60006140aa8383614080565b9150826002028217905092915050565b6140c38261307a565b67ffffffffffffffff8111156140dc576140db612e64565b5b6140e68254613edd565b6140f182828561402d565b600060209050601f8311600181146141245760008415614112578287015190505b61411c858261409e565b865550614184565b601f19841661413286613f0e565b60005b8281101561415a57848901518255600182019150602085019450602081019050614135565b868310156141775784890151614173601f891682614080565b8355505b6001600288020188555050505b505050505050565b7f4e487b7100000000000000000000000000000000000000000000000000000000600052601160045260246000fd5b60006141c682612e13565b91507fffffffffffffffffffffffffffffffffffffffffffffffffffffffffffffffff82036141f8576141f761418c565b5b60018201905091905056fea2646970667358221220b3b3a98294e31a2b269702dfc94d4a2cc93454f08d4a402ec2c651ac24ddc48c64736f6c63430008130033",
  "immutableReferences": {},
  "source": "// SPDX-License-Identifier: MIT\r\npragma solidity ^0.8.19;\r\n\r\ncontract EcommerceContract {\r\n    enum ProductStatus {Sold, Available}\r\n    \r\n    string public marketplaceName;\r\n    uint productCount;\r\n\r\n    // Constructor code is only run when the contract is created\r\n    constructor() {\r\n        productCount = 0;\r\n        marketplaceName = \"Ecomme Marketplace\";\r\n    }\r\n\r\n    function getMarketplaceName() public view returns(string memory){\r\n        return marketplaceName;\r\n    }\r\n\r\n    struct CustomerRecord {\r\n        string customerId;\r\n        string customerName;\r\n        string purchaseDate;\r\n        string phone;\r\n        string email;  \r\n    }\r\n\r\n    struct QualityCheckRecord {\r\n        string inspectionName;\r\n        string inspectionDate;\r\n        string inspectorName;\r\n        string facilityName;\r\n        string phone;\r\n        string email;\r\n    }\r\n\r\n    struct PurchaseAgreement {\r\n        string orderId;\r\n        string customerName;\r\n        string purchaseDate;\r\n        string returnPolicy;\r\n        uint256 purchaseTotal;\r\n    }\r\n  \r\n    struct WarrantyData {\r\n        string warrantyId;\r\n        string provider;\r\n        string coverageType;\r\n        uint256 maxClaimAmount;\r\n        uint256 premium;\r\n        string claimId;\r\n        uint256 amountClaimed;\r\n        string claimDate;\r\n        string status;\r\n    }\r\n\r\n    struct MarketingRecord {\r\n        string campaignType;\r\n        string managerName;\r\n        string channel;\r\n        string phone;\r\n        string campaignDate;\r\n        string progress;\r\n    }\r\n\r\n    struct SupplierWarehouseRecords {\r\n        string supplierName;\r\n        string warehouseAddress;\r\n        string supplierId;\r\n        string phone;\r\n        string email;       \r\n    }\r\n\r\n    struct ProductInformation {\r\n        string id;\r\n        string name;\r\n        string category;\r\n        string releaseDate;\r\n    }\r\n\r\n    struct Product {\r\n        ProductInformation productInfo;\r\n        SupplierWarehouseRecords supplierWarehouseRecords;\r\n        PurchaseAgreement purchaseAgreement;\r\n        WarrantyData warrantyData;\r\n        CustomerRecord[] customerRecords;\r\n        QualityCheckRecord[] qualityCheckHistory;\r\n        MarketingRecord[] marketingHistory;\r\n    }\r\n    mapping(uint256 => Product) public products;\r\n \r\n    function registerProduct() public returns (uint256) {\r\n        productCount++;\r\n    \r\n        return productCount;\r\n    }\r\n    \r\n    // Function to add product information\r\n    function addProductInfo(\r\n        uint256 productId,\r\n        string memory _id,\r\n        string memory _name,\r\n        string memory _category,\r\n        string memory _releaseDate\r\n    ) public {\r\n        products[productId].productInfo = ProductInformation(_id, _name, _category, _releaseDate);\r\n    }\r\n\r\n    // Function to add supplier and warehouse information\r\n    function addSupplierWarehouseInfo(uint256 productId, \r\n        string memory _supplierName,\r\n        string memory _warehouseAddress,\r\n        string memory _supplierId,\r\n        string memory _phone,\r\n        string memory _email ) public {\r\n            products[productId].supplierWarehouseRecords = SupplierWarehouseRecords(_supplierName, _warehouseAddress, _supplierId,\r\n            _phone, _email);\r\n\r\n    }\r\n   \r\n    // Function to add purchase agreement \r\n    function addPurchaseAgreement (uint256 productId, \r\n        string memory _orderId,\r\n        string memory _customerName,\r\n        string memory _purchaseDate,\r\n        string memory _returnPolicy,\r\n        uint256 _purchaseTotal) public {\r\n            products[productId].purchaseAgreement = PurchaseAgreement(_orderId, _customerName, _purchaseDate,\r\n            _returnPolicy, _purchaseTotal);\r\n\r\n    }\r\n\r\n    // Function to add warranty data \r\n    function addWarrantyData (uint256 productId, \r\n       string memory _warrantyId,\r\n        string memory _provider,\r\n        string memory _coverageType,\r\n        uint256 _maxClaimAmount,\r\n        uint256 _premium,\r\n        string memory _claimId,\r\n        uint256 _amountClaimed,\r\n        string memory _claimDate,\r\n        string memory _status) public {\r\n            products[productId].warrantyData = WarrantyData(_warrantyId, _provider, _coverageType,\r\n             _maxClaimAmount, _premium, _claimId, _amountClaimed, _claimDate, _status);\r\n\r\n    }\r\n      \r\n    // Function to add a new customer record\r\n    function addCustomerRecord (uint256 productId, \r\n        string memory _customerId,\r\n        string memory _customerName,\r\n        string memory _purchaseDate,\r\n        string memory _phone,\r\n        string memory _email ) public {\r\n            products[productId].customerRecords.push(CustomerRecord(_customerId, _customerName, _purchaseDate, _phone, _email));\r\n    }\r\n\r\n    function addQualityCheckRecord (uint256 productId, \r\n        string memory _inspectionName,\r\n        string memory _inspectionDate,\r\n        string memory _inspectorName,\r\n        string memory _facilityName,\r\n        string memory _phone,\r\n        string memory _email) public {\r\n            products[productId].qualityCheckHistory.push(QualityCheckRecord(_inspectionName, _inspectionDate, _inspectorName, _facilityName, _phone, _email));\r\n    }\r\n\r\n    function addMarketingRecord (uint256 productId, \r\n         string memory _campaignType,\r\n        string memory _managerName,\r\n        string memory _channel,\r\n        string memory _phone,\r\n        string memory _campaignDate,\r\n        string memory _progress) public {\r\n            products[productId].marketingHistory.push(MarketingRecord(_campaignType, _managerName, _channel, _phone,\r\n        _campaignDate, _progress));\r\n\r\n    }\r\n\r\n    //Write a function getNoOfProducts to obtain the productCount\r\n    function getNoOfProducts() public view returns (uint) {\r\n        return productCount;\r\n    }\r\n\r\n     // Function to retrieve product information\r\n    function getProductInfo(uint256 productId) public view returns (ProductInformation memory) {\r\n        return products[productId].productInfo;\r\n    }\r\n\r\n     // Function to retrieve supplier warehouse information\r\n    function getSupplierWarehouseInfo(uint256 productId) public view returns (SupplierWarehouseRecords memory) {\r\n        return products[productId].supplierWarehouseRecords;\r\n    }\r\n\r\n    // Function to retrieve customer records\r\n    function getCustomerRecords(uint256 productId) public view returns (CustomerRecord[] memory) {\r\n        return products[productId].customerRecords;\r\n    }\r\n\r\n    // Function to retrieve quality check records\r\n    function getQualityCheckRecords(uint256 productId) public view returns (QualityCheckRecord[] memory) {\r\n        return products[productId].qualityCheckHistory;\r\n    }\r\n\r\n    // Function to retrieve marketing records\r\n    function getMarketingRecords(uint256 productId) public view returns (MarketingRecord[] memory) {\r\n        return products[productId].marketingHistory;\r\n    }\r\n\r\n    // Function to retrieve warranty data\r\n    function getWarrantyData(uint256 productId) public view returns (WarrantyData memory) {\r\n        return products[productId].warrantyData;\r\n    }\r\n\r\n    // Function to retrieve purchase agreement details\r\n    function getPurchaseAgreement(uint256 productId) public view returns (PurchaseAgreement memory) {\r\n        return products[productId].purchaseAgreement;\r\n    }\r\n\r\n}\r\n",
  "sourcePath": "C:\\Users\\24023516\\GA\\contracts\\EcommerceContract.sol",
  "compiler": {
    "name": "solc",
    "version": "0.8.19+commit.7dd6d404.Emscripten.clang"
  },
  "schemaVersion": "3.4.16",
  "updatedAt": "2026-01-28T11:19:36.960Z",
  "devdoc": {
    "kind": "dev",
    "methods": {},
    "version": 1
  },
  "userdoc": {
    "kind": "user",
    "methods": {},
    "version": 1
  }
}