{
  "contractName": "EcommerceContract",
  "abi": [
    {
      "inputs": [],
      "stateMutability": "nonpayable",
      "type": "constructor"
    },
    {
      "inputs": [],
      "name": "marketplaceName",
      "outputs": [
        {
          "internalType": "string",
          "name": "",
          "type": "string"
        }
      ],
      "stateMutability": "view",
      "type": "function",
      "constant": true
    },
    {
      "inputs": [
        {
          "internalType": "uint256",
          "name": "",
          "type": "uint256"
        }
      ],
      "name": "products",
      "outputs": [
        {
          "internalType": "string",
          "name": "id",
          "type": "string"
        },
        {
          "internalType": "string",
          "name": "name",
          "type": "string"
        },
        {
          "internalType": "string",
          "name": "description",
          "type": "string"
        },
        {
          "internalType": "uint256",
          "name": "price",
          "type": "uint256"
        },
        {
          "internalType": "uint256",
          "name": "stock",
          "type": "uint256"
        },
        {
          "internalType": "string",
          "name": "releaseDate",
          "type": "string"
        },
        {
          "internalType": "string",
          "name": "category",
          "type": "string"
        },
        {
          "internalType": "string",
          "name": "image",
          "type": "string"
        },
        {
          "internalType": "bool",
          "name": "exists",
          "type": "bool"
        },
        {
          "components": [
            {
              "internalType": "string",
              "name": "supplierName",
              "type": "string"
            },
            {
              "internalType": "string",
              "name": "warehouseAddress",
              "type": "string"
            },
            {
              "internalType": "string",
              "name": "supplierId",
              "type": "string"
            },
            {
              "internalType": "string",
              "name": "phone",
              "type": "string"
            },
            {
              "internalType": "string",
              "name": "email",
              "type": "string"
            }
          ],
          "internalType": "struct EcommerceContract.SupplierWarehouseRecords",
          "name": "supplierWarehouseRecords",
          "type": "tuple"
        },
        {
          "components": [
            {
              "internalType": "string",
              "name": "orderId",
              "type": "string"
            },
            {
              "internalType": "string",
              "name": "customerName",
              "type": "string"
            },
            {
              "internalType": "string",
              "name": "purchaseDate",
              "type": "string"
            },
            {
              "internalType": "string",
              "name": "returnPolicy",
              "type": "string"
            },
            {
              "internalType": "uint256",
              "name": "purchaseTotal",
              "type": "uint256"
            }
          ],
          "internalType": "struct EcommerceContract.PurchaseAgreement",
          "name": "purchaseAgreement",
          "type": "tuple"
        },
        {
          "components": [
            {
              "internalType": "string",
              "name": "warrantyId",
              "type": "string"
            },
            {
              "internalType": "string",
              "name": "provider",
              "type": "string"
            },
            {
              "internalType": "string",
              "name": "coverageType",
              "type": "string"
            },
            {
              "internalType": "uint256",
              "name": "maxClaimAmount",
              "type": "uint256"
            },
            {
              "internalType": "uint256",
              "name": "premium",
              "type": "uint256"
            },
            {
              "internalType": "string",
              "name": "claimId",
              "type": "string"
            },
            {
              "internalType": "uint256",
              "name": "amountClaimed",
              "type": "uint256"
            },
            {
              "internalType": "string",
              "name": "claimDate",
              "type": "string"
            },
            {
              "internalType": "string",
              "name": "status",
              "type": "string"
            }
          ],
          "internalType": "struct EcommerceContract.WarrantyData",
          "name": "warrantyData",
          "type": "tuple"
        }
      ],
      "stateMutability": "view",
      "type": "function",
      "constant": true
    },
    {
      "inputs": [],
      "name": "getMarketplaceName",
      "outputs": [
        {
          "internalType": "string",
          "name": "",
          "type": "string"
        }
      ],
      "stateMutability": "view",
      "type": "function",
      "constant": true
    },
    {
      "inputs": [],
      "name": "registerProduct",
      "outputs": [
        {
          "internalType": "uint256",
          "name": "",
          "type": "uint256"
        }
      ],
      "stateMutability": "nonpayable",
      "type": "function"
    },
    {
      "inputs": [
        {
          "internalType": "uint256",
          "name": "productId",
          "type": "uint256"
        },
        {
          "internalType": "string",
          "name": "_id",
          "type": "string"
        },
        {
          "internalType": "string",
          "name": "_name",
          "type": "string"
        },
        {
          "internalType": "string",
          "name": "_category",
          "type": "string"
        },
        {
          "internalType": "string",
          "name": "_releaseDate",
          "type": "string"
        },
        {
          "internalType": "string",
          "name": "_description",
          "type": "string"
        },
        {
          "internalType": "uint256",
          "name": "_price",
          "type": "uint256"
        },
        {
          "internalType": "uint256",
          "name": "_stock",
          "type": "uint256"
        },
        {
          "internalType": "string",
          "name": "_image",
          "type": "string"
        }
      ],
      "name": "addProductInfo",
      "outputs": [],
      "stateMutability": "nonpayable",
      "type": "function"
    },
    {
      "inputs": [
        {
          "internalType": "uint256",
          "name": "productId",
          "type": "uint256"
        },
        {
          "internalType": "string",
          "name": "_supplierName",
          "type": "string"
        },
        {
          "internalType": "string",
          "name": "_warehouseAddress",
          "type": "string"
        },
        {
          "internalType": "string",
          "name": "_supplierId",
          "type": "string"
        },
        {
          "internalType": "string",
          "name": "_phone",
          "type": "string"
        },
        {
          "internalType": "string",
          "name": "_email",
          "type": "string"
        }
      ],
      "name": "addSupplierWarehouseInfo",
      "outputs": [],
      "stateMutability": "nonpayable",
      "type": "function"
    },
    {
      "inputs": [
        {
          "internalType": "uint256",
          "name": "productId",
          "type": "uint256"
        },
        {
          "internalType": "string",
          "name": "_orderId",
          "type": "string"
        },
        {
          "internalType": "string",
          "name": "_customerName",
          "type": "string"
        },
        {
          "internalType": "string",
          "name": "_purchaseDate",
          "type": "string"
        },
        {
          "internalType": "string",
          "name": "_returnPolicy",
          "type": "string"
        },
        {
          "internalType": "uint256",
          "name": "_purchaseTotal",
          "type": "uint256"
        }
      ],
      "name": "addPurchaseAgreement",
      "outputs": [],
      "stateMutability": "nonpayable",
      "type": "function"
    },
    {
      "inputs": [
        {
          "internalType": "uint256",
          "name": "productId",
          "type": "uint256"
        },
        {
          "internalType": "string",
          "name": "_warrantyId",
          "type": "string"
        },
        {
          "internalType": "string",
          "name": "_provider",
          "type": "string"
        },
        {
          "internalType": "string",
          "name": "_coverageType",
          "type": "string"
        },
        {
          "internalType": "uint256",
          "name": "_maxClaimAmount",
          "type": "uint256"
        },
        {
          "internalType": "uint256",
          "name": "_premium",
          "type": "uint256"
        },
        {
          "internalType": "string",
          "name": "_claimId",
          "type": "string"
        },
        {
          "internalType": "uint256",
          "name": "_amountClaimed",
          "type": "uint256"
        },
        {
          "internalType": "string",
          "name": "_claimDate",
          "type": "string"
        },
        {
          "internalType": "string",
          "name": "_status",
          "type": "string"
        }
      ],
      "name": "addWarrantyData",
      "outputs": [],
      "stateMutability": "nonpayable",
      "type": "function"
    },
    {
      "inputs": [
        {
          "internalType": "uint256",
          "name": "productId",
          "type": "uint256"
        },
        {
          "internalType": "string",
          "name": "_customerId",
          "type": "string"
        },
        {
          "internalType": "string",
          "name": "_customerName",
          "type": "string"
        },
        {
          "internalType": "string",
          "name": "_purchaseDate",
          "type": "string"
        },
        {
          "internalType": "string",
          "name": "_phone",
          "type": "string"
        },
        {
          "internalType": "string",
          "name": "_email",
          "type": "string"
        }
      ],
      "name": "addCustomerRecord",
      "outputs": [],
      "stateMutability": "nonpayable",
      "type": "function"
    },
    {
      "inputs": [
        {
          "internalType": "uint256",
          "name": "productId",
          "type": "uint256"
        },
        {
          "internalType": "string",
          "name": "_inspectionName",
          "type": "string"
        },
        {
          "internalType": "string",
          "name": "_inspectionDate",
          "type": "string"
        },
        {
          "internalType": "string",
          "name": "_inspectorName",
          "type": "string"
        },
        {
          "internalType": "string",
          "name": "_facilityName",
          "type": "string"
        },
        {
          "internalType": "string",
          "name": "_phone",
          "type": "string"
        },
        {
          "internalType": "string",
          "name": "_email",
          "type": "string"
        }
      ],
      "name": "addQualityCheckRecord",
      "outputs": [],
      "stateMutability": "nonpayable",
      "type": "function"
    },
    {
      "inputs": [
        {
          "internalType": "uint256",
          "name": "productId",
          "type": "uint256"
        },
        {
          "internalType": "string",
          "name": "_campaignType",
          "type": "string"
        },
        {
          "internalType": "string",
          "name": "_managerName",
          "type": "string"
        },
        {
          "internalType": "string",
          "name": "_channel",
          "type": "string"
        },
        {
          "internalType": "string",
          "name": "_phone",
          "type": "string"
        },
        {
          "internalType": "string",
          "name": "_campaignDate",
          "type": "string"
        },
        {
          "internalType": "string",
          "name": "_progress",
          "type": "string"
        }
      ],
      "name": "addMarketingRecord",
      "outputs": [],
      "stateMutability": "nonpayable",
      "type": "function"
    },
    {
      "inputs": [],
      "name": "getNoOfProducts",
      "outputs": [
        {
          "internalType": "uint256",
          "name": "",
          "type": "uint256"
        }
      ],
      "stateMutability": "view",
      "type": "function",
      "constant": true
    },
    {
      "inputs": [
        {
          "internalType": "uint256",
          "name": "productId",
          "type": "uint256"
        }
      ],
      "name": "getProductInfo",
      "outputs": [
        {
          "internalType": "string",
          "name": "id",
          "type": "string"
        },
        {
          "internalType": "string",
          "name": "name",
          "type": "string"
        },
        {
          "internalType": "string",
          "name": "category",
          "type": "string"
        },
        {
          "internalType": "string",
          "name": "releaseDate",
          "type": "string"
        },
        {
          "internalType": "string",
          "name": "description",
          "type": "string"
        },
        {
          "internalType": "uint256",
          "name": "price",
          "type": "uint256"
        },
        {
          "internalType": "uint256",
          "name": "stock",
          "type": "uint256"
        },
        {
          "internalType": "string",
          "name": "image",
          "type": "string"
        },
        {
          "internalType": "bool",
          "name": "exists",
          "type": "bool"
        }
      ],
      "stateMutability": "view",
      "type": "function",
      "constant": true
    },
    {
      "inputs": [
        {
          "internalType": "uint256",
          "name": "productId",
          "type": "uint256"
        }
      ],
      "name": "getSupplierWarehouseInfo",
      "outputs": [
        {
          "components": [
            {
              "internalType": "string",
              "name": "supplierName",
              "type": "string"
            },
            {
              "internalType": "string",
              "name": "warehouseAddress",
              "type": "string"
            },
            {
              "internalType": "string",
              "name": "supplierId",
              "type": "string"
            },
            {
              "internalType": "string",
              "name": "phone",
              "type": "string"
            },
            {
              "internalType": "string",
              "name": "email",
              "type": "string"
            }
          ],
          "internalType": "struct EcommerceContract.SupplierWarehouseRecords",
          "name": "",
          "type": "tuple"
        }
      ],
      "stateMutability": "view",
      "type": "function",
      "constant": true
    },
    {
      "inputs": [
        {
          "internalType": "uint256",
          "name": "productId",
          "type": "uint256"
        }
      ],
      "name": "getCustomerRecords",
      "outputs": [
        {
          "components": [
            {
              "internalType": "string",
              "name": "customerId",
              "type": "string"
            },
            {
              "internalType": "string",
              "name": "customerName",
              "type": "string"
            },
            {
              "internalType": "string",
              "name": "purchaseDate",
              "type": "string"
            },
            {
              "internalType": "string",
              "name": "phone",
              "type": "string"
            },
            {
              "internalType": "string",
              "name": "email",
              "type": "string"
            }
          ],
          "internalType": "struct EcommerceContract.CustomerRecord[]",
          "name": "",
          "type": "tuple[]"
        }
      ],
      "stateMutability": "view",
      "type": "function",
      "constant": true
    },
    {
      "inputs": [
        {
          "internalType": "uint256",
          "name": "productId",
          "type": "uint256"
        }
      ],
      "name": "getQualityCheckRecords",
      "outputs": [
        {
          "components": [
            {
              "internalType": "string",
              "name": "inspectionName",
              "type": "string"
            },
            {
              "internalType": "string",
              "name": "inspectionDate",
              "type": "string"
            },
            {
              "internalType": "string",
              "name": "inspectorName",
              "type": "string"
            },
            {
              "internalType": "string",
              "name": "facilityName",
              "type": "string"
            },
            {
              "internalType": "string",
              "name": "phone",
              "type": "string"
            },
            {
              "internalType": "string",
              "name": "email",
              "type": "string"
            }
          ],
          "internalType": "struct EcommerceContract.QualityCheckRecord[]",
          "name": "",
          "type": "tuple[]"
        }
      ],
      "stateMutability": "view",
      "type": "function",
      "constant": true
    },
    {
      "inputs": [
        {
          "internalType": "uint256",
          "name": "productId",
          "type": "uint256"
        }
      ],
      "name": "getMarketingRecords",
      "outputs": [
        {
          "components": [
            {
              "internalType": "string",
              "name": "campaignType",
              "type": "string"
            },
            {
              "internalType": "string",
              "name": "managerName",
              "type": "string"
            },
            {
              "internalType": "string",
              "name": "channel",
              "type": "string"
            },
            {
              "internalType": "string",
              "name": "phone",
              "type": "string"
            },
            {
              "internalType": "string",
              "name": "campaignDate",
              "type": "string"
            },
            {
              "internalType": "string",
              "name": "progress",
              "type": "string"
            }
          ],
          "internalType": "struct EcommerceContract.MarketingRecord[]",
          "name": "",
          "type": "tuple[]"
        }
      ],
      "stateMutability": "view",
      "type": "function",
      "constant": true
    },
    {
      "inputs": [
        {
          "internalType": "uint256",
          "name": "productId",
          "type": "uint256"
        }
      ],
      "name": "getWarrantyData",
      "outputs": [
        {
          "components": [
            {
              "internalType": "string",
              "name": "warrantyId",
              "type": "string"
            },
            {
              "internalType": "string",
              "name": "provider",
              "type": "string"
            },
            {
              "internalType": "string",
              "name": "coverageType",
              "type": "string"
            },
            {
              "internalType": "uint256",
              "name": "maxClaimAmount",
              "type": "uint256"
            },
            {
              "internalType": "uint256",
              "name": "premium",
              "type": "uint256"
            },
            {
              "internalType": "string",
              "name": "claimId",
              "type": "string"
            },
            {
              "internalType": "uint256",
              "name": "amountClaimed",
              "type": "uint256"
            },
            {
              "internalType": "string",
              "name": "claimDate",
              "type": "string"
            },
            {
              "internalType": "string",
              "name": "status",
              "type": "string"
            }
          ],
          "internalType": "struct EcommerceContract.WarrantyData",
          "name": "",
          "type": "tuple"
        }
      ],
      "stateMutability": "view",
      "type": "function",
      "constant": true
    },
    {
      "inputs": [
        {
          "internalType": "uint256",
          "name": "productId",
          "type": "uint256"
        }
      ],
      "name": "getPurchaseAgreement",
      "outputs": [
        {
          "components": [
            {
              "internalType": "string",
              "name": "orderId",
              "type": "string"
            },
            {
              "internalType": "string",
              "name": "customerName",
              "type": "string"
            },
            {
              "internalType": "string",
              "name": "purchaseDate",
              "type": "string"
            },
            {
              "internalType": "string",
              "name": "returnPolicy",
              "type": "string"
            },
            {
              "internalType": "uint256",
              "name": "purchaseTotal",
              "type": "uint256"
            }
          ],
          "internalType": "struct EcommerceContract.PurchaseAgreement",
          "name": "",
          "type": "tuple"
        }
      ],
      "stateMutability": "view",
      "type": "function",
      "constant": true
    }
  ],
  "bytecode": "0x60806040523480156200001157600080fd5b5060006001819055506040518060400160405280601281526020017f45636f6d6d65204d61726b6574706c616365000000000000000000000000000081525060009081620000609190620002e1565b50620003c8565b600081519050919050565b7f4e487b7100000000000000000000000000000000000000000000000000000000600052604160045260246000fd5b7f4e487b7100000000000000000000000000000000000000000000000000000000600052602260045260246000fd5b60006002820490506001821680620000e957607f821691505b602082108103620000ff57620000fe620000a1565b5b50919050565b60008190508160005260206000209050919050565b60006020601f8301049050919050565b600082821b905092915050565b600060088302620001697fffffffffffffffffffffffffffffffffffffffffffffffffffffffffffffffff826200012a565b6200017586836200012a565b95508019841693508086168417925050509392505050565b6000819050919050565b6000819050919050565b6000620001c2620001bc620001b6846200018d565b62000197565b6200018d565b9050919050565b6000819050919050565b620001de83620001a1565b620001f6620001ed82620001c9565b84845462000137565b825550505050565b600090565b6200020d620001fe565b6200021a818484620001d3565b505050565b5b8181101562000242576200023660008262000203565b60018101905062000220565b5050565b601f82111562000291576200025b8162000105565b62000266846200011a565b8101602085101562000276578190505b6200028e62000285856200011a565b8301826200021f565b50505b505050565b600082821c905092915050565b6000620002b66000198460080262000296565b1980831691505092915050565b6000620002d18383620002a3565b9150826002028217905092915050565b620002ec8262000067565b67ffffffffffffffff81111562000308576200030762000072565b5b620003148254620000d0565b6200032182828562000246565b600060209050601f83116001811462000359576000841562000344578287015190505b620003508582620002c3565b865550620003c0565b601f198416620003698662000105565b60005b8281101562000393578489015182556001820191506020850194506020810190506200036c565b86831015620003b35784890151620003af601f891682620002a3565b8355505b6001600288020188555050505b505050505050565b61474880620003d86000396000f3fe608060405234801561001057600080fd5b50600436106101215760003560e01c806384fee211116100ad578063de0c113411610071578063de0c113414610353578063dfd92f8a14610383578063fee4dc6c146103a1578063ff3f64c4146103bd578063ff4074f3146103d957610121565b806384fee2111461029f57806385f3388c146102cf578063981d07cd146102ff578063a637047a1461031b578063c2e22f6d1461033757610121565b80636558bc59116100f45780636558bc59146101ae57806378a6d599146101de57806379a85e6c146101fc5780637acc0b20146102345780637bd30e971461026f57610121565b80631d6069fc146101265780632ab1c2ca146101445780632c4d300514610160578063455d04b61461017e575b600080fd5b61012e6103f5565b60405161013b91906131db565b60405180910390f35b61015e6004803603810190610159919061337c565b610483565b005b61016861052d565b60405161017591906131db565b60405180910390f35b61019860048036038101906101939190613479565b6105bf565b6040516101a591906135e7565b60405180910390f35b6101c860048036038101906101c39190613479565b61097a565b6040516101d59190613694565b60405180910390f35b6101e6610bfc565b6040516101f391906136c5565b60405180910390f35b61021660048036038101906102119190613479565b610c06565b60405161022b999897969594939291906136fb565b60405180910390f35b61024e60048036038101906102499190613479565b610fc7565b6040516102669c9b9a99989796959493929190613844565b60405180910390f35b61028960048036038101906102849190613479565b611c39565b604051610296919061393d565b60405180910390f35b6102b960048036038101906102b49190613479565b611f43565b6040516102c69190613acd565b60405180910390f35b6102e960048036038101906102e49190613479565b612324565b6040516102f69190613c5d565b60405180910390f35b61031960048036038101906103149190613c7f565b612705565b005b61033560048036038101906103309190613e06565b61280d565b005b610351600480360381019061034c9190613f50565b612908565b005b61036d60048036038101906103689190613479565b612aa1565b60405161037a9190614216565b60405180910390f35b61038b612df0565b60405161039891906136c5565b60405180910390f35b6103bb60048036038101906103b69190613e06565b612e12565b005b6103d760048036038101906103d29190614238565b612f0d565b005b6103f360048036038101906103ee9190614238565b612fc3565b005b6000805461040290614380565b80601f016020809104026020016040519081016040528092919081815260200182805461042e90614380565b801561047b5780601f106104505761010080835404028352916020019161047b565b820191906000526020600020905b81548152906001019060200180831161045e57829003601f168201915b505050505081565b6040518060a001604052808681526020018581526020018481526020018381526020018281525060026000888152602001908152602001600020600e0160008201518160000190816104d5919061455d565b5060208201518160010190816104eb919061455d565b506040820151816002019081610501919061455d565b506060820151816003019081610517919061455d565b5060808201518160040155905050505050505050565b60606000805461053c90614380565b80601f016020809104026020016040519081016040528092919081815260200182805461056890614380565b80156105b55780601f1061058a576101008083540402835291602001916105b5565b820191906000526020600020905b81548152906001019060200180831161059857829003601f168201915b5050505050905090565b6105c76130a1565b60026000838152602001908152602001600020601301604051806101200160405290816000820180546105f990614380565b80601f016020809104026020016040519081016040528092919081815260200182805461062590614380565b80156106725780601f1061064757610100808354040283529160200191610672565b820191906000526020600020905b81548152906001019060200180831161065557829003601f168201915b5050505050815260200160018201805461068b90614380565b80601f01602080910402602001604051908101604052809291908181526020018280546106b790614380565b80156107045780601f106106d957610100808354040283529160200191610704565b820191906000526020600020905b8154815290600101906020018083116106e757829003601f168201915b5050505050815260200160028201805461071d90614380565b80601f016020809104026020016040519081016040528092919081815260200182805461074990614380565b80156107965780601f1061076b57610100808354040283529160200191610796565b820191906000526020600020905b81548152906001019060200180831161077957829003601f168201915b5050505050815260200160038201548152602001600482015481526020016005820180546107c390614380565b80601f01602080910402602001604051908101604052809291908181526020018280546107ef90614380565b801561083c5780601f106108115761010080835404028352916020019161083c565b820191906000526020600020905b81548152906001019060200180831161081f57829003601f168201915b505050505081526020016006820154815260200160078201805461085f90614380565b80601f016020809104026020016040519081016040528092919081815260200182805461088b90614380565b80156108d85780601f106108ad576101008083540402835291602001916108d8565b820191906000526020600020905b8154815290600101906020018083116108bb57829003601f168201915b505050505081526020016008820180546108f190614380565b80601f016020809104026020016040519081016040528092919081815260200182805461091d90614380565b801561096a5780601f1061093f5761010080835404028352916020019161096a565b820191906000526020600020905b81548152906001019060200180831161094d57829003601f168201915b5050505050815250509050919050565b6109826130ed565b60026000838152602001908152602001600020600e016040518060a00160405290816000820180546109b390614380565b80601f01602080910402602001604051908101604052809291908181526020018280546109df90614380565b8015610a2c5780601f10610a0157610100808354040283529160200191610a2c565b820191906000526020600020905b815481529060010190602001808311610a0f57829003601f168201915b50505050508152602001600182018054610a4590614380565b80601f0160208091040260200160405190810160405280929190818152602001828054610a7190614380565b8015610abe5780601f10610a9357610100808354040283529160200191610abe565b820191906000526020600020905b815481529060010190602001808311610aa157829003601f168201915b50505050508152602001600282018054610ad790614380565b80601f0160208091040260200160405190810160405280929190818152602001828054610b0390614380565b8015610b505780601f10610b2557610100808354040283529160200191610b50565b820191906000526020600020905b815481529060010190602001808311610b3357829003601f168201915b50505050508152602001600382018054610b6990614380565b80601f0160208091040260200160405190810160405280929190818152602001828054610b9590614380565b8015610be25780601f10610bb757610100808354040283529160200191610be2565b820191906000526020600020905b815481529060010190602001808311610bc557829003601f168201915b505050505081526020016004820154815250509050919050565b6000600154905090565b60608060608060606000806060600080600260008c81526020019081526020016000209050806000018160010182600601836005018460020185600301548660040154876007018860080160009054906101000a900460ff16888054610c6b90614380565b80601f0160208091040260200160405190810160405280929190818152602001828054610c9790614380565b8015610ce45780601f10610cb957610100808354040283529160200191610ce4565b820191906000526020600020905b815481529060010190602001808311610cc757829003601f168201915b50505050509850878054610cf790614380565b80601f0160208091040260200160405190810160405280929190818152602001828054610d2390614380565b8015610d705780601f10610d4557610100808354040283529160200191610d70565b820191906000526020600020905b815481529060010190602001808311610d5357829003601f168201915b50505050509750868054610d8390614380565b80601f0160208091040260200160405190810160405280929190818152602001828054610daf90614380565b8015610dfc5780601f10610dd157610100808354040283529160200191610dfc565b820191906000526020600020905b815481529060010190602001808311610ddf57829003601f168201915b50505050509650858054610e0f90614380565b80601f0160208091040260200160405190810160405280929190818152602001828054610e3b90614380565b8015610e885780601f10610e5d57610100808354040283529160200191610e88565b820191906000526020600020905b815481529060010190602001808311610e6b57829003601f168201915b50505050509550848054610e9b90614380565b80601f0160208091040260200160405190810160405280929190818152602001828054610ec790614380565b8015610f145780601f10610ee957610100808354040283529160200191610f14565b820191906000526020600020905b815481529060010190602001808311610ef757829003601f168201915b50505050509450818054610f2790614380565b80601f0160208091040260200160405190810160405280929190818152602001828054610f5390614380565b8015610fa05780601f10610f7557610100808354040283529160200191610fa0565b820191906000526020600020905b815481529060010190602001808311610f8357829003601f168201915b50505050509150995099509950995099509950995099509950509193959799909294969850565b6002602052806000526040600020600091509050806000018054610fea90614380565b80601f016020809104026020016040519081016040528092919081815260200182805461101690614380565b80156110635780601f1061103857610100808354040283529160200191611063565b820191906000526020600020905b81548152906001019060200180831161104657829003601f168201915b50505050509080600101805461107890614380565b80601f01602080910402602001604051908101604052809291908181526020018280546110a490614380565b80156110f15780601f106110c6576101008083540402835291602001916110f1565b820191906000526020600020905b8154815290600101906020018083116110d457829003601f168201915b50505050509080600201805461110690614380565b80601f016020809104026020016040519081016040528092919081815260200182805461113290614380565b801561117f5780601f106111545761010080835404028352916020019161117f565b820191906000526020600020905b81548152906001019060200180831161116257829003601f168201915b5050505050908060030154908060040154908060050180546111a090614380565b80601f01602080910402602001604051908101604052809291908181526020018280546111cc90614380565b80156112195780601f106111ee57610100808354040283529160200191611219565b820191906000526020600020905b8154815290600101906020018083116111fc57829003601f168201915b50505050509080600601805461122e90614380565b80601f016020809104026020016040519081016040528092919081815260200182805461125a90614380565b80156112a75780601f1061127c576101008083540402835291602001916112a7565b820191906000526020600020905b81548152906001019060200180831161128a57829003601f168201915b5050505050908060070180546112bc90614380565b80601f01602080910402602001604051908101604052809291908181526020018280546112e890614380565b80156113355780601f1061130a57610100808354040283529160200191611335565b820191906000526020600020905b81548152906001019060200180831161131857829003601f168201915b5050505050908060080160009054906101000a900460ff1690806009016040518060a001604052908160008201805461136d90614380565b80601f016020809104026020016040519081016040528092919081815260200182805461139990614380565b80156113e65780601f106113bb576101008083540402835291602001916113e6565b820191906000526020600020905b8154815290600101906020018083116113c957829003601f168201915b505050505081526020016001820180546113ff90614380565b80601f016020809104026020016040519081016040528092919081815260200182805461142b90614380565b80156114785780601f1061144d57610100808354040283529160200191611478565b820191906000526020600020905b81548152906001019060200180831161145b57829003601f168201915b5050505050815260200160028201805461149190614380565b80601f01602080910402602001604051908101604052809291908181526020018280546114bd90614380565b801561150a5780601f106114df5761010080835404028352916020019161150a565b820191906000526020600020905b8154815290600101906020018083116114ed57829003601f168201915b5050505050815260200160038201805461152390614380565b80601f016020809104026020016040519081016040528092919081815260200182805461154f90614380565b801561159c5780601f106115715761010080835404028352916020019161159c565b820191906000526020600020905b81548152906001019060200180831161157f57829003601f168201915b505050505081526020016004820180546115b590614380565b80601f01602080910402602001604051908101604052809291908181526020018280546115e190614380565b801561162e5780601f106116035761010080835404028352916020019161162e565b820191906000526020600020905b81548152906001019060200180831161161157829003601f168201915b5050505050815250509080600e016040518060a001604052908160008201805461165790614380565b80601f016020809104026020016040519081016040528092919081815260200182805461168390614380565b80156116d05780601f106116a5576101008083540402835291602001916116d0565b820191906000526020600020905b8154815290600101906020018083116116b357829003601f168201915b505050505081526020016001820180546116e990614380565b80601f016020809104026020016040519081016040528092919081815260200182805461171590614380565b80156117625780601f1061173757610100808354040283529160200191611762565b820191906000526020600020905b81548152906001019060200180831161174557829003601f168201915b5050505050815260200160028201805461177b90614380565b80601f01602080910402602001604051908101604052809291908181526020018280546117a790614380565b80156117f45780601f106117c9576101008083540402835291602001916117f4565b820191906000526020600020905b8154815290600101906020018083116117d757829003601f168201915b5050505050815260200160038201805461180d90614380565b80601f016020809104026020016040519081016040528092919081815260200182805461183990614380565b80156118865780601f1061185b57610100808354040283529160200191611886565b820191906000526020600020905b81548152906001019060200180831161186957829003601f168201915b505050505081526020016004820154815250509080601301604051806101200160405290816000820180546118ba90614380565b80601f01602080910402602001604051908101604052809291908181526020018280546118e690614380565b80156119335780601f1061190857610100808354040283529160200191611933565b820191906000526020600020905b81548152906001019060200180831161191657829003601f168201915b5050505050815260200160018201805461194c90614380565b80601f016020809104026020016040519081016040528092919081815260200182805461197890614380565b80156119c55780601f1061199a576101008083540402835291602001916119c5565b820191906000526020600020905b8154815290600101906020018083116119a857829003601f168201915b505050505081526020016002820180546119de90614380565b80601f0160208091040260200160405190810160405280929190818152602001828054611a0a90614380565b8015611a575780601f10611a2c57610100808354040283529160200191611a57565b820191906000526020600020905b815481529060010190602001808311611a3a57829003601f168201915b505050505081526020016003820154815260200160048201548152602001600582018054611a8490614380565b80601f0160208091040260200160405190810160405280929190818152602001828054611ab090614380565b8015611afd5780601f10611ad257610100808354040283529160200191611afd565b820191906000526020600020905b815481529060010190602001808311611ae057829003601f168201915b5050505050815260200160068201548152602001600782018054611b2090614380565b80601f0160208091040260200160405190810160405280929190818152602001828054611b4c90614380565b8015611b995780601f10611b6e57610100808354040283529160200191611b99565b820191906000526020600020905b815481529060010190602001808311611b7c57829003601f168201915b50505050508152602001600882018054611bb290614380565b80601f0160208091040260200160405190810160405280929190818152602001828054611bde90614380565b8015611c2b5780601f10611c0057610100808354040283529160200191611c2b565b820191906000526020600020905b815481529060010190602001808311611c0e57829003601f168201915b50505050508152505090508c565b611c4161311c565b600260008381526020019081526020016000206009016040518060a0016040529081600082018054611c7290614380565b80601f0160208091040260200160405190810160405280929190818152602001828054611c9e90614380565b8015611ceb5780601f10611cc057610100808354040283529160200191611ceb565b820191906000526020600020905b815481529060010190602001808311611cce57829003601f168201915b50505050508152602001600182018054611d0490614380565b80601f0160208091040260200160405190810160405280929190818152602001828054611d3090614380565b8015611d7d5780601f10611d5257610100808354040283529160200191611d7d565b820191906000526020600020905b815481529060010190602001808311611d6057829003601f168201915b50505050508152602001600282018054611d9690614380565b80601f0160208091040260200160405190810160405280929190818152602001828054611dc290614380565b8015611e0f5780601f10611de457610100808354040283529160200191611e0f565b820191906000526020600020905b815481529060010190602001808311611df257829003601f168201915b50505050508152602001600382018054611e2890614380565b80601f0160208091040260200160405190810160405280929190818152602001828054611e5490614380565b8015611ea15780601f10611e7657610100808354040283529160200191611ea1565b820191906000526020600020905b815481529060010190602001808311611e8457829003601f168201915b50505050508152602001600482018054611eba90614380565b80601f0160208091040260200160405190810160405280929190818152602001828054611ee690614380565b8015611f335780601f10611f0857610100808354040283529160200191611f33565b820191906000526020600020905b815481529060010190602001808311611f1657829003601f168201915b5050505050815250509050919050565b606060026000838152602001908152602001600020601e01805480602002602001604051908101604052809291908181526020016000905b8282101561231957838290600052602060002090600602016040518060c0016040529081600082018054611fae90614380565b80601f0160208091040260200160405190810160405280929190818152602001828054611fda90614380565b80156120275780601f10611ffc57610100808354040283529160200191612027565b820191906000526020600020905b81548152906001019060200180831161200a57829003601f168201915b5050505050815260200160018201805461204090614380565b80601f016020809104026020016040519081016040528092919081815260200182805461206c90614380565b80156120b95780601f1061208e576101008083540402835291602001916120b9565b820191906000526020600020905b81548152906001019060200180831161209c57829003601f168201915b505050505081526020016002820180546120d290614380565b80601f01602080910402602001604051908101604052809291908181526020018280546120fe90614380565b801561214b5780601f106121205761010080835404028352916020019161214b565b820191906000526020600020905b81548152906001019060200180831161212e57829003601f168201915b5050505050815260200160038201805461216490614380565b80601f016020809104026020016040519081016040528092919081815260200182805461219090614380565b80156121dd5780601f106121b2576101008083540402835291602001916121dd565b820191906000526020600020905b8154815290600101906020018083116121c057829003601f168201915b505050505081526020016004820180546121f690614380565b80601f016020809104026020016040519081016040528092919081815260200182805461222290614380565b801561226f5780601f106122445761010080835404028352916020019161226f565b820191906000526020600020905b81548152906001019060200180831161225257829003601f168201915b5050505050815260200160058201805461228890614380565b80601f01602080910402602001604051908101604052809291908181526020018280546122b490614380565b80156123015780601f106122d657610100808354040283529160200191612301565b820191906000526020600020905b8154815290600101906020018083116122e457829003601f168201915b50505050508152505081526020019060010190611f7b565b505050509050919050565b606060026000838152602001908152602001600020601d01805480602002602001604051908101604052809291908181526020016000905b828210156126fa57838290600052602060002090600602016040518060c001604052908160008201805461238f90614380565b80601f01602080910402602001604051908101604052809291908181526020018280546123bb90614380565b80156124085780601f106123dd57610100808354040283529160200191612408565b820191906000526020600020905b8154815290600101906020018083116123eb57829003601f168201915b5050505050815260200160018201805461242190614380565b80601f016020809104026020016040519081016040528092919081815260200182805461244d90614380565b801561249a5780601f1061246f5761010080835404028352916020019161249a565b820191906000526020600020905b81548152906001019060200180831161247d57829003601f168201915b505050505081526020016002820180546124b390614380565b80601f01602080910402602001604051908101604052809291908181526020018280546124df90614380565b801561252c5780601f106125015761010080835404028352916020019161252c565b820191906000526020600020905b81548152906001019060200180831161250f57829003601f168201915b5050505050815260200160038201805461254590614380565b80601f016020809104026020016040519081016040528092919081815260200182805461257190614380565b80156125be5780601f10612593576101008083540402835291602001916125be565b820191906000526020600020905b8154815290600101906020018083116125a157829003601f168201915b505050505081526020016004820180546125d790614380565b80601f016020809104026020016040519081016040528092919081815260200182805461260390614380565b80156126505780601f1061262557610100808354040283529160200191612650565b820191906000526020600020905b81548152906001019060200180831161263357829003601f168201915b5050505050815260200160058201805461266990614380565b80601f016020809104026020016040519081016040528092919081815260200182805461269590614380565b80156126e25780601f106126b7576101008083540402835291602001916126e2565b820191906000526020600020905b8154815290600101906020018083116126c557829003601f168201915b5050505050815250508152602001906001019061235c565b505050509050919050565b6040518061012001604052808a815260200189815260200188815260200187815260200186815260200185815260200184815260200183815260200182815250600260008c81526020019081526020016000206013016000820151816000019081612770919061455d565b506020820151816001019081612786919061455d565b50604082015181600201908161279c919061455d565b50606082015181600301556080820151816004015560a08201518160050190816127c6919061455d565b5060c0820151816006015560e08201518160070190816127e6919061455d565b506101008201518160080190816127fd919061455d565b5090505050505050505050505050565b60026000888152602001908152602001600020601d016040518060c00160405280888152602001878152602001868152602001858152602001848152602001838152509080600181540180825580915050600190039060005260206000209060060201600090919091909150600082015181600001908161288e919061455d565b5060208201518160010190816128a4919061455d565b5060408201518160020190816128ba919061455d565b5060608201518160030190816128d0919061455d565b5060808201518160040190816128e6919061455d565b5060a08201518160050190816128fc919061455d565b50505050505050505050565b60008911801561291a57506001548911155b612959576040517f08c379a00000000000000000000000000000000000000000000000000000000081526004016129509061467b565b60405180910390fd5b87600260008b8152602001908152602001600020600001908161297c919061455d565b5086600260008b815260200190815260200160002060010190816129a0919061455d565b5085600260008b815260200190815260200160002060060190816129c4919061455d565b5084600260008b815260200190815260200160002060050190816129e8919061455d565b5083600260008b81526020019081526020016000206002019081612a0c919061455d565b5082600260008b81526020019081526020016000206003018190555081600260008b81526020019081526020016000206004018190555080600260008b81526020019081526020016000206007019081612a66919061455d565b506001600260008b815260200190815260200160002060080160006101000a81548160ff021916908315150217905550505050505050505050565b606060026000838152602001908152602001600020601c01805480602002602001604051908101604052809291908181526020016000905b82821015612de557838290600052602060002090600502016040518060a0016040529081600082018054612b0c90614380565b80601f0160208091040260200160405190810160405280929190818152602001828054612b3890614380565b8015612b855780601f10612b5a57610100808354040283529160200191612b85565b820191906000526020600020905b815481529060010190602001808311612b6857829003601f168201915b50505050508152602001600182018054612b9e90614380565b80601f0160208091040260200160405190810160405280929190818152602001828054612bca90614380565b8015612c175780601f10612bec57610100808354040283529160200191612c17565b820191906000526020600020905b815481529060010190602001808311612bfa57829003601f168201915b50505050508152602001600282018054612c3090614380565b80601f0160208091040260200160405190810160405280929190818152602001828054612c5c90614380565b8015612ca95780601f10612c7e57610100808354040283529160200191612ca9565b820191906000526020600020905b815481529060010190602001808311612c8c57829003601f168201915b50505050508152602001600382018054612cc290614380565b80601f0160208091040260200160405190810160405280929190818152602001828054612cee90614380565b8015612d3b5780601f10612d1057610100808354040283529160200191612d3b565b820191906000526020600020905b815481529060010190602001808311612d1e57829003601f168201915b50505050508152602001600482018054612d5490614380565b80601f0160208091040260200160405190810160405280929190818152602001828054612d8090614380565b8015612dcd5780601f10612da257610100808354040283529160200191612dcd565b820191906000526020600020905b815481529060010190602001808311612db057829003601f168201915b50505050508152505081526020019060010190612ad9565b505050509050919050565b600060016000815480929190612e05906146ca565b9190505550600154905090565b60026000888152602001908152602001600020601e016040518060c001604052808881526020018781526020018681526020018581526020018481526020018381525090806001815401808255809150506001900390600052602060002090600602016000909190919091506000820151816000019081612e93919061455d565b506020820151816001019081612ea9919061455d565b506040820151816002019081612ebf919061455d565b506060820151816003019081612ed5919061455d565b506080820151816004019081612eeb919061455d565b5060a0820151816005019081612f01919061455d565b50505050505050505050565b6040518060a0016040528086815260200185815260200184815260200183815260200182815250600260008881526020019081526020016000206009016000820151816000019081612f5f919061455d565b506020820151816001019081612f75919061455d565b506040820151816002019081612f8b919061455d565b506060820151816003019081612fa1919061455d565b506080820151816004019081612fb7919061455d565b50905050505050505050565b60026000878152602001908152602001600020601c016040518060a00160405280878152602001868152602001858152602001848152602001838152509080600181540180825580915050600190039060005260206000209060050201600090919091909150600082015181600001908161303e919061455d565b506020820151816001019081613054919061455d565b50604082015181600201908161306a919061455d565b506060820151816003019081613080919061455d565b506080820151816004019081613096919061455d565b505050505050505050565b6040518061012001604052806060815260200160608152602001606081526020016000815260200160008152602001606081526020016000815260200160608152602001606081525090565b6040518060a0016040528060608152602001606081526020016060815260200160608152602001600081525090565b6040518060a0016040528060608152602001606081526020016060815260200160608152602001606081525090565b600081519050919050565b600082825260208201905092915050565b60005b8381101561318557808201518184015260208101905061316a565b60008484015250505050565b6000601f19601f8301169050919050565b60006131ad8261314b565b6131b78185613156565b93506131c7818560208601613167565b6131d081613191565b840191505092915050565b600060208201905081810360008301526131f581846131a2565b905092915050565b6000604051905090565b600080fd5b600080fd5b6000819050919050565b61322481613211565b811461322f57600080fd5b50565b6000813590506132418161321b565b92915050565b600080fd5b600080fd5b7f4e487b7100000000000000000000000000000000000000000000000000000000600052604160045260246000fd5b61328982613191565b810181811067ffffffffffffffff821117156132a8576132a7613251565b5b80604052505050565b60006132bb6131fd565b90506132c78282613280565b919050565b600067ffffffffffffffff8211156132e7576132e6613251565b5b6132f082613191565b9050602081019050919050565b82818337600083830152505050565b600061331f61331a846132cc565b6132b1565b90508281526020810184848401111561333b5761333a61324c565b5b6133468482856132fd565b509392505050565b600082601f83011261336357613362613247565b5b813561337384826020860161330c565b91505092915050565b60008060008060008060c0878903121561339957613398613207565b5b60006133a789828a01613232565b965050602087013567ffffffffffffffff8111156133c8576133c761320c565b5b6133d489828a0161334e565b955050604087013567ffffffffffffffff8111156133f5576133f461320c565b5b61340189828a0161334e565b945050606087013567ffffffffffffffff8111156134225761342161320c565b5b61342e89828a0161334e565b935050608087013567ffffffffffffffff81111561344f5761344e61320c565b5b61345b89828a0161334e565b92505060a061346c89828a01613232565b9150509295509295509295565b60006020828403121561348f5761348e613207565b5b600061349d84828501613232565b91505092915050565b600082825260208201905092915050565b60006134c28261314b565b6134cc81856134a6565b93506134dc818560208601613167565b6134e581613191565b840191505092915050565b6134f981613211565b82525050565b600061012083016000830151848203600086015261351d82826134b7565b9150506020830151848203602086015261353782826134b7565b9150506040830151848203604086015261355182826134b7565b915050606083015161356660608601826134f0565b50608083015161357960808601826134f0565b5060a083015184820360a086015261359182826134b7565b91505060c08301516135a660c08601826134f0565b5060e083015184820360e08601526135be82826134b7565b9150506101008301518482036101008601526135da82826134b7565b9150508091505092915050565b6000602082019050818103600083015261360181846134ff565b905092915050565b600060a083016000830151848203600086015261362682826134b7565b9150506020830151848203602086015261364082826134b7565b9150506040830151848203604086015261365a82826134b7565b9150506060830151848203606086015261367482826134b7565b915050608083015161368960808601826134f0565b508091505092915050565b600060208201905081810360008301526136ae8184613609565b905092915050565b6136bf81613211565b82525050565b60006020820190506136da60008301846136b6565b92915050565b60008115159050919050565b6136f5816136e0565b82525050565b6000610120820190508181036000830152613716818c6131a2565b9050818103602083015261372a818b6131a2565b9050818103604083015261373e818a6131a2565b9050818103606083015261375281896131a2565b9050818103608083015261376681886131a2565b905061377560a08301876136b6565b61378260c08301866136b6565b81810360e083015261379481856131a2565b90506137a46101008301846136ec565b9a9950505050505050505050565b600060a08301600083015184820360008601526137cf82826134b7565b915050602083015184820360208601526137e982826134b7565b9150506040830151848203604086015261380382826134b7565b9150506060830151848203606086015261381d82826134b7565b9150506080830151848203608086015261383782826134b7565b9150508091505092915050565b600061018082019050818103600083015261385f818f6131a2565b90508181036020830152613873818e6131a2565b90508181036040830152613887818d6131a2565b9050613896606083018c6136b6565b6138a3608083018b6136b6565b81810360a08301526138b5818a6131a2565b905081810360c08301526138c981896131a2565b905081810360e08301526138dd81886131a2565b90506138ed6101008301876136ec565b81810361012083015261390081866137b2565b90508181036101408301526139158185613609565b905081810361016083015261392a81846134ff565b90509d9c50505050505050505050505050565b6000602082019050818103600083015261395781846137b2565b905092915050565b600081519050919050565b600082825260208201905092915050565b6000819050602082019050919050565b600060c08301600083015184820360008601526139a882826134b7565b915050602083015184820360208601526139c282826134b7565b915050604083015184820360408601526139dc82826134b7565b915050606083015184820360608601526139f682826134b7565b91505060808301518482036080860152613a1082826134b7565b91505060a083015184820360a0860152613a2a82826134b7565b9150508091505092915050565b6000613a43838361398b565b905092915050565b6000602082019050919050565b6000613a638261395f565b613a6d818561396a565b935083602082028501613a7f8561397b565b8060005b85811015613abb5784840389528151613a9c8582613a37565b9450613aa783613a4b565b925060208a01995050600181019050613a83565b50829750879550505050505092915050565b60006020820190508181036000830152613ae78184613a58565b905092915050565b600081519050919050565b600082825260208201905092915050565b6000819050602082019050919050565b600060c0830160008301518482036000860152613b3882826134b7565b91505060208301518482036020860152613b5282826134b7565b91505060408301518482036040860152613b6c82826134b7565b91505060608301518482036060860152613b8682826134b7565b91505060808301518482036080860152613ba082826134b7565b91505060a083015184820360a0860152613bba82826134b7565b9150508091505092915050565b6000613bd38383613b1b565b905092915050565b6000602082019050919050565b6000613bf382613aef565b613bfd8185613afa565b935083602082028501613c0f85613b0b565b8060005b85811015613c4b5784840389528151613c2c8582613bc7565b9450613c3783613bdb565b925060208a01995050600181019050613c13565b50829750879550505050505092915050565b60006020820190508181036000830152613c778184613be8565b905092915050565b6000806000806000806000806000806101408b8d031215613ca357613ca2613207565b5b6000613cb18d828e01613232565b9a505060208b013567ffffffffffffffff811115613cd257613cd161320c565b5b613cde8d828e0161334e565b99505060408b013567ffffffffffffffff811115613cff57613cfe61320c565b5b613d0b8d828e0161334e565b98505060608b013567ffffffffffffffff811115613d2c57613d2b61320c565b5b613d388d828e0161334e565b9750506080613d498d828e01613232565b96505060a0613d5a8d828e01613232565b95505060c08b013567ffffffffffffffff811115613d7b57613d7a61320c565b5b613d878d828e0161334e565b94505060e0613d988d828e01613232565b9350506101008b013567ffffffffffffffff811115613dba57613db961320c565b5b613dc68d828e0161334e565b9250506101208b013567ffffffffffffffff811115613de857613de761320c565b5b613df48d828e0161334e565b9150509295989b9194979a5092959850565b600080600080600080600060e0888a031215613e2557613e24613207565b5b6000613e338a828b01613232565b975050602088013567ffffffffffffffff811115613e5457613e5361320c565b5b613e608a828b0161334e565b965050604088013567ffffffffffffffff811115613e8157613e8061320c565b5b613e8d8a828b0161334e565b955050606088013567ffffffffffffffff811115613eae57613ead61320c565b5b613eba8a828b0161334e565b945050608088013567ffffffffffffffff811115613edb57613eda61320c565b5b613ee78a828b0161334e565b93505060a088013567ffffffffffffffff811115613f0857613f0761320c565b5b613f148a828b0161334e565b92505060c088013567ffffffffffffffff811115613f3557613f3461320c565b5b613f418a828b0161334e565b91505092959891949750929550565b60008060008060008060008060006101208a8c031215613f7357613f72613207565b5b6000613f818c828d01613232565b99505060208a013567ffffffffffffffff811115613fa257613fa161320c565b5b613fae8c828d0161334e565b98505060408a013567ffffffffffffffff811115613fcf57613fce61320c565b5b613fdb8c828d0161334e565b97505060608a013567ffffffffffffffff811115613ffc57613ffb61320c565b5b6140088c828d0161334e565b96505060808a013567ffffffffffffffff8111156140295761402861320c565b5b6140358c828d0161334e565b95505060a08a013567ffffffffffffffff8111156140565761405561320c565b5b6140628c828d0161334e565b94505060c06140738c828d01613232565b93505060e06140848c828d01613232565b9250506101008a013567ffffffffffffffff8111156140a6576140a561320c565b5b6140b28c828d0161334e565b9150509295985092959850929598565b600081519050919050565b600082825260208201905092915050565b6000819050602082019050919050565b600060a083016000830151848203600086015261410b82826134b7565b9150506020830151848203602086015261412582826134b7565b9150506040830151848203604086015261413f82826134b7565b9150506060830151848203606086015261415982826134b7565b9150506080830151848203608086015261417382826134b7565b9150508091505092915050565b600061418c83836140ee565b905092915050565b6000602082019050919050565b60006141ac826140c2565b6141b681856140cd565b9350836020820285016141c8856140de565b8060005b8581101561420457848403895281516141e58582614180565b94506141f083614194565b925060208a019950506001810190506141cc565b50829750879550505050505092915050565b6000602082019050818103600083015261423081846141a1565b905092915050565b60008060008060008060c0878903121561425557614254613207565b5b600061426389828a01613232565b965050602087013567ffffffffffffffff8111156142845761428361320c565b5b61429089828a0161334e565b955050604087013567ffffffffffffffff8111156142b1576142b061320c565b5b6142bd89828a0161334e565b945050606087013567ffffffffffffffff8111156142de576142dd61320c565b5b6142ea89828a0161334e565b935050608087013567ffffffffffffffff81111561430b5761430a61320c565b5b61431789828a0161334e565b92505060a087013567ffffffffffffffff8111156143385761433761320c565b5b61434489828a0161334e565b9150509295509295509295565b7f4e487b7100000000000000000000000000000000000000000000000000000000600052602260045260246000fd5b6000600282049050600182168061439857607f821691505b6020821081036143ab576143aa614351565b5b50919050565b60008190508160005260206000209050919050565b60006020601f8301049050919050565b600082821b905092915050565b6000600883026144137fffffffffffffffffffffffffffffffffffffffffffffffffffffffffffffffff826143d6565b61441d86836143d6565b95508019841693508086168417925050509392505050565b6000819050919050565b600061445a61445561445084613211565b614435565b613211565b9050919050565b6000819050919050565b6144748361443f565b61448861448082614461565b8484546143e3565b825550505050565b600090565b61449d614490565b6144a881848461446b565b505050565b5b818110156144cc576144c1600082614495565b6001810190506144ae565b5050565b601f821115614511576144e2816143b1565b6144eb846143c6565b810160208510156144fa578190505b61450e614506856143c6565b8301826144ad565b50505b505050565b600082821c905092915050565b600061453460001984600802614516565b1980831691505092915050565b600061454d8383614523565b9150826002028217905092915050565b6145668261314b565b67ffffffffffffffff81111561457f5761457e613251565b5b6145898254614380565b6145948282856144d0565b600060209050601f8311600181146145c757600084156145b5578287015190505b6145bf8582614541565b865550614627565b601f1984166145d5866143b1565b60005b828110156145fd578489015182556001820191506020850194506020810190506145d8565b8683101561461a5784890151614616601f891682614523565b8355505b6001600288020188555050505b505050505050565b7f496e76616c69642070726f647563744964000000000000000000000000000000600082015250565b6000614665601183613156565b91506146708261462f565b602082019050919050565b6000602082019050818103600083015261469481614658565b9050919050565b7f4e487b7100000000000000000000000000000000000000000000000000000000600052601160045260246000fd5b60006146d582613211565b91507fffffffffffffffffffffffffffffffffffffffffffffffffffffffffffffffff82036147075761470661469b565b5b60018201905091905056fea26469706673582212206ea60d1c8b250922b169be0ffab8824a9ee47f4ba30041bc83a86724397f2f1764736f6c63430008130033",
  "immutableReferences": {},
  "source": "// SPDX-License-Identifier: MIT\npragma solidity ^0.8.19;\n\ncontract EcommerceContract {\n    enum ProductStatus {Sold, Available}\n    \n    string public marketplaceName;\n    uint productCount;\n\n    // Constructor code is only run when the contract is created\n    constructor() {\n        productCount = 0;\n        marketplaceName = \"Ecomme Marketplace\";\n    }\n\n    function getMarketplaceName() public view returns(string memory){\n        return marketplaceName;\n    }\n\n    struct CustomerRecord {\n        string customerId;\n        string customerName;\n        string purchaseDate;\n        string phone;\n        string email;  \n    }\n\n    struct QualityCheckRecord {\n        string inspectionName;\n        string inspectionDate;\n        string inspectorName;\n        string facilityName;\n        string phone;\n        string email;\n    }\n\n    struct PurchaseAgreement {\n        string orderId;\n        string customerName;\n        string purchaseDate;\n        string returnPolicy;\n        uint256 purchaseTotal;\n    }\n  \n    struct WarrantyData {\n        string warrantyId;\n        string provider;\n        string coverageType;\n        uint256 maxClaimAmount;\n        uint256 premium;\n        string claimId;\n        uint256 amountClaimed;\n        string claimDate;\n        string status;\n    }\n\n    struct MarketingRecord {\n        string campaignType;\n        string managerName;\n        string channel;\n        string phone;\n        string campaignDate;\n        string progress;\n    }\n\n    struct SupplierWarehouseRecords {\n        string supplierName;\n        string warehouseAddress;\n        string supplierId;\n        string phone;\n        string email;       \n    }\n\n    struct Product {\n        string id;\n        string name;\n        string description;\n        uint256 price;\n        uint256 stock;\n        string releaseDate;\n        string category;\n        string image;\n        bool exists;\n        SupplierWarehouseRecords supplierWarehouseRecords;\n        PurchaseAgreement purchaseAgreement;\n        WarrantyData warrantyData;\n        CustomerRecord[] customerRecords;\n        QualityCheckRecord[] qualityCheckHistory;\n        MarketingRecord[] marketingHistory;\n    }\n    mapping(uint256 => Product) public products;\n \n    function registerProduct() public returns (uint256) {\n        productCount++;\n    \n        return productCount;\n    }\n    \n    // Function to add product information\n    function addProductInfo(\n        uint256 productId,\n        string memory _id,\n        string memory _name,\n        string memory _category,\n        string memory _releaseDate,\n        string memory _description,\n        uint256 _price,\n        uint256 _stock,\n        string memory _image\n    ) public {\n        require(productId > 0 && productId <= productCount, \"Invalid productId\");\n        products[productId].id = _id;\n        products[productId].name = _name;\n        products[productId].category = _category;\n        products[productId].releaseDate = _releaseDate;\n        products[productId].description = _description;\n        products[productId].price = _price;\n        products[productId].stock = _stock;\n        products[productId].image = _image;\n        products[productId].exists = true;\n    }\n\n    // Function to add supplier and warehouse information\n    function addSupplierWarehouseInfo(uint256 productId, \n        string memory _supplierName,\n        string memory _warehouseAddress,\n        string memory _supplierId,\n        string memory _phone,\n        string memory _email ) public {\n            products[productId].supplierWarehouseRecords = SupplierWarehouseRecords(_supplierName, _warehouseAddress, _supplierId,\n            _phone, _email);\n\n    }\n   \n    // Function to add purchase agreement \n    function addPurchaseAgreement (uint256 productId, \n        string memory _orderId,\n        string memory _customerName,\n        string memory _purchaseDate,\n        string memory _returnPolicy,\n        uint256 _purchaseTotal) public {\n            products[productId].purchaseAgreement = PurchaseAgreement(_orderId, _customerName, _purchaseDate,\n            _returnPolicy, _purchaseTotal);\n\n    }\n\n    // Function to add warranty data \n    function addWarrantyData (uint256 productId, \n       string memory _warrantyId,\n        string memory _provider,\n        string memory _coverageType,\n        uint256 _maxClaimAmount,\n        uint256 _premium,\n        string memory _claimId,\n        uint256 _amountClaimed,\n        string memory _claimDate,\n        string memory _status) public {\n            products[productId].warrantyData = WarrantyData(_warrantyId, _provider, _coverageType,\n             _maxClaimAmount, _premium, _claimId, _amountClaimed, _claimDate, _status);\n\n    }\n      \n    // Function to add a new customer record\n    function addCustomerRecord (uint256 productId, \n        string memory _customerId,\n        string memory _customerName,\n        string memory _purchaseDate,\n        string memory _phone,\n        string memory _email ) public {\n            products[productId].customerRecords.push(CustomerRecord(_customerId, _customerName, _purchaseDate, _phone, _email));\n    }\n\n    function addQualityCheckRecord (uint256 productId, \n        string memory _inspectionName,\n        string memory _inspectionDate,\n        string memory _inspectorName,\n        string memory _facilityName,\n        string memory _phone,\n        string memory _email) public {\n            products[productId].qualityCheckHistory.push(QualityCheckRecord(_inspectionName, _inspectionDate, _inspectorName, _facilityName, _phone, _email));\n    }\n\n    function addMarketingRecord (uint256 productId, \n         string memory _campaignType,\n        string memory _managerName,\n        string memory _channel,\n        string memory _phone,\n        string memory _campaignDate,\n        string memory _progress) public {\n            products[productId].marketingHistory.push(MarketingRecord(_campaignType, _managerName, _channel, _phone,\n        _campaignDate, _progress));\n\n    }\n\n    //Write a function getNoOfProducts to obtain the productCount\n    function getNoOfProducts() public view returns (uint) {\n        return productCount;\n    }\n\n     // Function to retrieve product information\n    function getProductInfo(uint256 productId) public view returns (\n        string memory id,\n        string memory name,\n        string memory category,\n        string memory releaseDate,\n        string memory description,\n        uint256 price,\n        uint256 stock,\n        string memory image,\n        bool exists\n    ) {\n        Product storage p = products[productId];\n        return (p.id, p.name, p.category, p.releaseDate, p.description, p.price, p.stock, p.image, p.exists);\n    }\n\n     // Function to retrieve supplier warehouse information\n    function getSupplierWarehouseInfo(uint256 productId) public view returns (SupplierWarehouseRecords memory) {\n        return products[productId].supplierWarehouseRecords;\n    }\n\n    // Function to retrieve customer records\n    function getCustomerRecords(uint256 productId) public view returns (CustomerRecord[] memory) {\n        return products[productId].customerRecords;\n    }\n\n    // Function to retrieve quality check records\n    function getQualityCheckRecords(uint256 productId) public view returns (QualityCheckRecord[] memory) {\n        return products[productId].qualityCheckHistory;\n    }\n\n    // Function to retrieve marketing records\n    function getMarketingRecords(uint256 productId) public view returns (MarketingRecord[] memory) {\n        return products[productId].marketingHistory;\n    }\n\n    // Function to retrieve warranty data\n    function getWarrantyData(uint256 productId) public view returns (WarrantyData memory) {\n        return products[productId].warrantyData;\n    }\n\n    // Function to retrieve purchase agreement details\n    function getPurchaseAgreement(uint256 productId) public view returns (PurchaseAgreement memory) {\n        return products[productId].purchaseAgreement;\n    }\n\n}\n",
  "sourcePath": "C:\\Users\\24024565\\C373Projects\\C373 FA GA Team 3 (interim)\\GA\\contracts\\EcommerceContract.sol",
  "compiler": {
    "name": "solc",
    "version": "0.8.19+commit.7dd6d404.Emscripten.clang"
  },
  "schemaVersion": "3.4.16",
  "updatedAt": "2026-01-30T07:25:18.388Z",
  "networkType": "ethereum",
  "devdoc": {
    "kind": "dev",
    "methods": {},
    "version": 1
  },
  "userdoc": {
    "kind": "user",
    "methods": {},
    "version": 1
  }
}