{
  "contractName": "EcommerceContract",
  "abi": [
    {
      "inputs": [],
      "stateMutability": "nonpayable",
      "type": "constructor"
    },
    {
      "inputs": [],
      "name": "marketplaceName",
      "outputs": [
        {
          "internalType": "string",
          "name": "",
          "type": "string"
        }
      ],
      "stateMutability": "view",
      "type": "function",
      "constant": true
    },
    {
      "inputs": [
        {
          "internalType": "uint256",
          "name": "",
          "type": "uint256"
        }
      ],
      "name": "products",
      "outputs": [
        {
          "components": [
            {
              "internalType": "string",
              "name": "id",
              "type": "string"
            },
            {
              "internalType": "string",
              "name": "name",
              "type": "string"
            },
            {
              "internalType": "string",
              "name": "category",
              "type": "string"
            },
            {
              "internalType": "string",
              "name": "releaseDate",
              "type": "string"
            },
            {
              "internalType": "string",
              "name": "description",
              "type": "string"
            },
            {
              "internalType": "uint256",
              "name": "price",
              "type": "uint256"
            },
            {
              "internalType": "uint256",
              "name": "stock",
              "type": "uint256"
            },
            {
              "internalType": "string",
              "name": "image",
              "type": "string"
            },
            {
              "internalType": "enum EcommerceContract.ProductStatus",
              "name": "status",
              "type": "uint8"
            }
          ],
          "internalType": "struct EcommerceContract.ProductInformation",
          "name": "productInfo",
          "type": "tuple"
        },
        {
          "components": [
            {
              "internalType": "string",
              "name": "supplierName",
              "type": "string"
            },
            {
              "internalType": "string",
              "name": "warehouseAddress",
              "type": "string"
            },
            {
              "internalType": "string",
              "name": "supplierId",
              "type": "string"
            },
            {
              "internalType": "string",
              "name": "phone",
              "type": "string"
            },
            {
              "internalType": "string",
              "name": "email",
              "type": "string"
            }
          ],
          "internalType": "struct EcommerceContract.SupplierWarehouseRecords",
          "name": "supplierWarehouseRecords",
          "type": "tuple"
        },
        {
          "components": [
            {
              "internalType": "string",
              "name": "orderId",
              "type": "string"
            },
            {
              "internalType": "string",
              "name": "customerName",
              "type": "string"
            },
            {
              "internalType": "string",
              "name": "purchaseDate",
              "type": "string"
            },
            {
              "internalType": "string",
              "name": "returnPolicy",
              "type": "string"
            },
            {
              "internalType": "uint256",
              "name": "purchaseTotal",
              "type": "uint256"
            }
          ],
          "internalType": "struct EcommerceContract.PurchaseAgreement",
          "name": "purchaseAgreement",
          "type": "tuple"
        },
        {
          "components": [
            {
              "internalType": "string",
              "name": "warrantyId",
              "type": "string"
            },
            {
              "internalType": "string",
              "name": "provider",
              "type": "string"
            },
            {
              "internalType": "string",
              "name": "coverageType",
              "type": "string"
            },
            {
              "internalType": "uint256",
              "name": "maxClaimAmount",
              "type": "uint256"
            },
            {
              "internalType": "uint256",
              "name": "premium",
              "type": "uint256"
            },
            {
              "internalType": "string",
              "name": "claimId",
              "type": "string"
            },
            {
              "internalType": "uint256",
              "name": "amountClaimed",
              "type": "uint256"
            },
            {
              "internalType": "string",
              "name": "claimDate",
              "type": "string"
            },
            {
              "internalType": "string",
              "name": "status",
              "type": "string"
            }
          ],
          "internalType": "struct EcommerceContract.WarrantyData",
          "name": "warrantyData",
          "type": "tuple"
        }
      ],
      "stateMutability": "view",
      "type": "function",
      "constant": true
    },
    {
      "inputs": [],
      "name": "getMarketplaceName",
      "outputs": [
        {
          "internalType": "string",
          "name": "",
          "type": "string"
        }
      ],
      "stateMutability": "view",
      "type": "function",
      "constant": true
    },
    {
      "inputs": [],
      "name": "registerProduct",
      "outputs": [
        {
          "internalType": "uint256",
          "name": "",
          "type": "uint256"
        }
      ],
      "stateMutability": "nonpayable",
      "type": "function"
    },
    {
      "inputs": [
        {
          "internalType": "uint256",
          "name": "productId",
          "type": "uint256"
        },
        {
          "internalType": "string",
          "name": "_id",
          "type": "string"
        },
        {
          "internalType": "string",
          "name": "_name",
          "type": "string"
        },
        {
          "internalType": "string",
          "name": "_category",
          "type": "string"
        },
        {
          "internalType": "string",
          "name": "_releaseDate",
          "type": "string"
        },
        {
          "internalType": "string",
          "name": "_description",
          "type": "string"
        },
        {
          "internalType": "uint256",
          "name": "_price",
          "type": "uint256"
        },
        {
          "internalType": "uint256",
          "name": "_stock",
          "type": "uint256"
        },
        {
          "internalType": "string",
          "name": "_image",
          "type": "string"
        }
      ],
      "name": "addProductInfo",
      "outputs": [],
      "stateMutability": "nonpayable",
      "type": "function"
    },
    {
      "inputs": [
        {
          "internalType": "uint256",
          "name": "productId",
          "type": "uint256"
        },
        {
          "internalType": "string",
          "name": "_supplierName",
          "type": "string"
        },
        {
          "internalType": "string",
          "name": "_warehouseAddress",
          "type": "string"
        },
        {
          "internalType": "string",
          "name": "_supplierId",
          "type": "string"
        },
        {
          "internalType": "string",
          "name": "_phone",
          "type": "string"
        },
        {
          "internalType": "string",
          "name": "_email",
          "type": "string"
        }
      ],
      "name": "addSupplierWarehouseInfo",
      "outputs": [],
      "stateMutability": "nonpayable",
      "type": "function"
    },
    {
      "inputs": [
        {
          "internalType": "uint256",
          "name": "productId",
          "type": "uint256"
        },
        {
          "internalType": "string",
          "name": "_orderId",
          "type": "string"
        },
        {
          "internalType": "string",
          "name": "_customerName",
          "type": "string"
        },
        {
          "internalType": "string",
          "name": "_purchaseDate",
          "type": "string"
        },
        {
          "internalType": "string",
          "name": "_returnPolicy",
          "type": "string"
        },
        {
          "internalType": "uint256",
          "name": "_purchaseTotal",
          "type": "uint256"
        }
      ],
      "name": "addPurchaseAgreement",
      "outputs": [],
      "stateMutability": "nonpayable",
      "type": "function"
    },
    {
      "inputs": [
        {
          "internalType": "uint256",
          "name": "productId",
          "type": "uint256"
        },
        {
          "internalType": "string",
          "name": "_warrantyId",
          "type": "string"
        },
        {
          "internalType": "string",
          "name": "_provider",
          "type": "string"
        },
        {
          "internalType": "string",
          "name": "_coverageType",
          "type": "string"
        },
        {
          "internalType": "uint256",
          "name": "_maxClaimAmount",
          "type": "uint256"
        },
        {
          "internalType": "uint256",
          "name": "_premium",
          "type": "uint256"
        },
        {
          "internalType": "string",
          "name": "_claimId",
          "type": "string"
        },
        {
          "internalType": "uint256",
          "name": "_amountClaimed",
          "type": "uint256"
        },
        {
          "internalType": "string",
          "name": "_claimDate",
          "type": "string"
        },
        {
          "internalType": "string",
          "name": "_status",
          "type": "string"
        }
      ],
      "name": "addWarrantyData",
      "outputs": [],
      "stateMutability": "nonpayable",
      "type": "function"
    },
    {
      "inputs": [
        {
          "internalType": "uint256",
          "name": "productId",
          "type": "uint256"
        },
        {
          "internalType": "string",
          "name": "_customerId",
          "type": "string"
        },
        {
          "internalType": "string",
          "name": "_customerName",
          "type": "string"
        },
        {
          "internalType": "string",
          "name": "_purchaseDate",
          "type": "string"
        },
        {
          "internalType": "string",
          "name": "_phone",
          "type": "string"
        },
        {
          "internalType": "string",
          "name": "_email",
          "type": "string"
        }
      ],
      "name": "addCustomerRecord",
      "outputs": [],
      "stateMutability": "nonpayable",
      "type": "function"
    },
    {
      "inputs": [
        {
          "internalType": "uint256",
          "name": "productId",
          "type": "uint256"
        },
        {
          "internalType": "string",
          "name": "_inspectionName",
          "type": "string"
        },
        {
          "internalType": "string",
          "name": "_inspectionDate",
          "type": "string"
        },
        {
          "internalType": "string",
          "name": "_inspectorName",
          "type": "string"
        },
        {
          "internalType": "string",
          "name": "_facilityName",
          "type": "string"
        },
        {
          "internalType": "string",
          "name": "_phone",
          "type": "string"
        },
        {
          "internalType": "string",
          "name": "_email",
          "type": "string"
        }
      ],
      "name": "addQualityCheckRecord",
      "outputs": [],
      "stateMutability": "nonpayable",
      "type": "function"
    },
    {
      "inputs": [
        {
          "internalType": "uint256",
          "name": "productId",
          "type": "uint256"
        },
        {
          "internalType": "string",
          "name": "_campaignType",
          "type": "string"
        },
        {
          "internalType": "string",
          "name": "_managerName",
          "type": "string"
        },
        {
          "internalType": "string",
          "name": "_channel",
          "type": "string"
        },
        {
          "internalType": "string",
          "name": "_phone",
          "type": "string"
        },
        {
          "internalType": "string",
          "name": "_campaignDate",
          "type": "string"
        },
        {
          "internalType": "string",
          "name": "_progress",
          "type": "string"
        }
      ],
      "name": "addMarketingRecord",
      "outputs": [],
      "stateMutability": "nonpayable",
      "type": "function"
    },
    {
      "inputs": [],
      "name": "getNoOfProducts",
      "outputs": [
        {
          "internalType": "uint256",
          "name": "",
          "type": "uint256"
        }
      ],
      "stateMutability": "view",
      "type": "function",
      "constant": true
    },
    {
      "inputs": [
        {
          "internalType": "uint256",
          "name": "productId",
          "type": "uint256"
        }
      ],
      "name": "getProductInfo",
      "outputs": [
        {
          "components": [
            {
              "internalType": "string",
              "name": "id",
              "type": "string"
            },
            {
              "internalType": "string",
              "name": "name",
              "type": "string"
            },
            {
              "internalType": "string",
              "name": "category",
              "type": "string"
            },
            {
              "internalType": "string",
              "name": "releaseDate",
              "type": "string"
            },
            {
              "internalType": "string",
              "name": "description",
              "type": "string"
            },
            {
              "internalType": "uint256",
              "name": "price",
              "type": "uint256"
            },
            {
              "internalType": "uint256",
              "name": "stock",
              "type": "uint256"
            },
            {
              "internalType": "string",
              "name": "image",
              "type": "string"
            },
            {
              "internalType": "enum EcommerceContract.ProductStatus",
              "name": "status",
              "type": "uint8"
            }
          ],
          "internalType": "struct EcommerceContract.ProductInformation",
          "name": "",
          "type": "tuple"
        }
      ],
      "stateMutability": "view",
      "type": "function",
      "constant": true
    },
    {
      "inputs": [
        {
          "internalType": "uint256",
          "name": "productId",
          "type": "uint256"
        }
      ],
      "name": "getSupplierWarehouseInfo",
      "outputs": [
        {
          "components": [
            {
              "internalType": "string",
              "name": "supplierName",
              "type": "string"
            },
            {
              "internalType": "string",
              "name": "warehouseAddress",
              "type": "string"
            },
            {
              "internalType": "string",
              "name": "supplierId",
              "type": "string"
            },
            {
              "internalType": "string",
              "name": "phone",
              "type": "string"
            },
            {
              "internalType": "string",
              "name": "email",
              "type": "string"
            }
          ],
          "internalType": "struct EcommerceContract.SupplierWarehouseRecords",
          "name": "",
          "type": "tuple"
        }
      ],
      "stateMutability": "view",
      "type": "function",
      "constant": true
    },
    {
      "inputs": [
        {
          "internalType": "uint256",
          "name": "productId",
          "type": "uint256"
        }
      ],
      "name": "getCustomerRecords",
      "outputs": [
        {
          "components": [
            {
              "internalType": "string",
              "name": "customerId",
              "type": "string"
            },
            {
              "internalType": "string",
              "name": "customerName",
              "type": "string"
            },
            {
              "internalType": "string",
              "name": "purchaseDate",
              "type": "string"
            },
            {
              "internalType": "string",
              "name": "phone",
              "type": "string"
            },
            {
              "internalType": "string",
              "name": "email",
              "type": "string"
            }
          ],
          "internalType": "struct EcommerceContract.CustomerRecord[]",
          "name": "",
          "type": "tuple[]"
        }
      ],
      "stateMutability": "view",
      "type": "function",
      "constant": true
    },
    {
      "inputs": [
        {
          "internalType": "uint256",
          "name": "productId",
          "type": "uint256"
        }
      ],
      "name": "getQualityCheckRecords",
      "outputs": [
        {
          "components": [
            {
              "internalType": "string",
              "name": "inspectionName",
              "type": "string"
            },
            {
              "internalType": "string",
              "name": "inspectionDate",
              "type": "string"
            },
            {
              "internalType": "string",
              "name": "inspectorName",
              "type": "string"
            },
            {
              "internalType": "string",
              "name": "facilityName",
              "type": "string"
            },
            {
              "internalType": "string",
              "name": "phone",
              "type": "string"
            },
            {
              "internalType": "string",
              "name": "email",
              "type": "string"
            }
          ],
          "internalType": "struct EcommerceContract.QualityCheckRecord[]",
          "name": "",
          "type": "tuple[]"
        }
      ],
      "stateMutability": "view",
      "type": "function",
      "constant": true
    },
    {
      "inputs": [
        {
          "internalType": "uint256",
          "name": "productId",
          "type": "uint256"
        }
      ],
      "name": "getMarketingRecords",
      "outputs": [
        {
          "components": [
            {
              "internalType": "string",
              "name": "campaignType",
              "type": "string"
            },
            {
              "internalType": "string",
              "name": "managerName",
              "type": "string"
            },
            {
              "internalType": "string",
              "name": "channel",
              "type": "string"
            },
            {
              "internalType": "string",
              "name": "phone",
              "type": "string"
            },
            {
              "internalType": "string",
              "name": "campaignDate",
              "type": "string"
            },
            {
              "internalType": "string",
              "name": "progress",
              "type": "string"
            }
          ],
          "internalType": "struct EcommerceContract.MarketingRecord[]",
          "name": "",
          "type": "tuple[]"
        }
      ],
      "stateMutability": "view",
      "type": "function",
      "constant": true
    },
    {
      "inputs": [
        {
          "internalType": "uint256",
          "name": "productId",
          "type": "uint256"
        }
      ],
      "name": "getWarrantyData",
      "outputs": [
        {
          "components": [
            {
              "internalType": "string",
              "name": "warrantyId",
              "type": "string"
            },
            {
              "internalType": "string",
              "name": "provider",
              "type": "string"
            },
            {
              "internalType": "string",
              "name": "coverageType",
              "type": "string"
            },
            {
              "internalType": "uint256",
              "name": "maxClaimAmount",
              "type": "uint256"
            },
            {
              "internalType": "uint256",
              "name": "premium",
              "type": "uint256"
            },
            {
              "internalType": "string",
              "name": "claimId",
              "type": "string"
            },
            {
              "internalType": "uint256",
              "name": "amountClaimed",
              "type": "uint256"
            },
            {
              "internalType": "string",
              "name": "claimDate",
              "type": "string"
            },
            {
              "internalType": "string",
              "name": "status",
              "type": "string"
            }
          ],
          "internalType": "struct EcommerceContract.WarrantyData",
          "name": "",
          "type": "tuple"
        }
      ],
      "stateMutability": "view",
      "type": "function",
      "constant": true
    },
    {
      "inputs": [
        {
          "internalType": "uint256",
          "name": "productId",
          "type": "uint256"
        }
      ],
      "name": "getPurchaseAgreement",
      "outputs": [
        {
          "components": [
            {
              "internalType": "string",
              "name": "orderId",
              "type": "string"
            },
            {
              "internalType": "string",
              "name": "customerName",
              "type": "string"
            },
            {
              "internalType": "string",
              "name": "purchaseDate",
              "type": "string"
            },
            {
              "internalType": "string",
              "name": "returnPolicy",
              "type": "string"
            },
            {
              "internalType": "uint256",
              "name": "purchaseTotal",
              "type": "uint256"
            }
          ],
          "internalType": "struct EcommerceContract.PurchaseAgreement",
          "name": "",
          "type": "tuple"
        }
      ],
      "stateMutability": "view",
      "type": "function",
      "constant": true
    }
  ],
  "bytecode": "0x60806040523480156200001157600080fd5b5060006001819055506040518060400160405280601281526020017f45636f6d6d65204d61726b6574706c616365000000000000000000000000000081525060009081620000609190620002e1565b50620003c8565b600081519050919050565b7f4e487b7100000000000000000000000000000000000000000000000000000000600052604160045260246000fd5b7f4e487b7100000000000000000000000000000000000000000000000000000000600052602260045260246000fd5b60006002820490506001821680620000e957607f821691505b602082108103620000ff57620000fe620000a1565b5b50919050565b60008190508160005260206000209050919050565b60006020601f8301049050919050565b600082821b905092915050565b600060088302620001697fffffffffffffffffffffffffffffffffffffffffffffffffffffffffffffffff826200012a565b6200017586836200012a565b95508019841693508086168417925050509392505050565b6000819050919050565b6000819050919050565b6000620001c2620001bc620001b6846200018d565b62000197565b6200018d565b9050919050565b6000819050919050565b620001de83620001a1565b620001f6620001ed82620001c9565b84845462000137565b825550505050565b600090565b6200020d620001fe565b6200021a818484620001d3565b505050565b5b8181101562000242576200023660008262000203565b60018101905062000220565b5050565b601f82111562000291576200025b8162000105565b62000266846200011a565b8101602085101562000276578190505b6200028e62000285856200011a565b8301826200021f565b50505b505050565b600082821c905092915050565b6000620002b66000198460080262000296565b1980831691505092915050565b6000620002d18383620002a3565b9150826002028217905092915050565b620002ec8262000067565b67ffffffffffffffff81111562000308576200030762000072565b5b620003148254620000d0565b6200032182828562000246565b600060209050601f83116001811462000359576000841562000344578287015190505b620003508582620002c3565b865550620003c0565b601f198416620003698662000105565b60005b8281101562000393578489015182556001820191506020850194506020810190506200036c565b86831015620003b35784890151620003af601f891682620002a3565b8355505b6001600288020188555050505b505050505050565b61476b80620003d86000396000f3fe608060405234801561001057600080fd5b50600436106101215760003560e01c806384fee211116100ad578063de0c113411610071578063de0c113414610343578063dfd92f8a14610373578063fee4dc6c14610391578063ff3f64c4146103ad578063ff4074f3146103c957610121565b806384fee2111461028f57806385f3388c146102bf578063981d07cd146102ef578063a637047a1461030b578063c2e22f6d1461032757610121565b80636558bc59116100f45780636558bc59146101ae57806378a6d599146101de57806379a85e6c146101fc5780637acc0b201461022c5780637bd30e971461025f57610121565b80631d6069fc146101265780632ab1c2ca146101445780632c4d300514610160578063455d04b61461017e575b600080fd5b61012e6103e5565b60405161013b9190613253565b60405180910390f35b61015e600480360381019061015991906133f4565b610473565b005b61016861051d565b6040516101759190613253565b60405180910390f35b610198600480360381019061019391906134f1565b6105af565b6040516101a5919061365f565b60405180910390f35b6101c860048036038101906101c391906134f1565b61096a565b6040516101d5919061370c565b60405180910390f35b6101e6610bec565b6040516101f3919061373d565b60405180910390f35b610216600480360381019061021191906134f1565b610bf6565b60405161022391906138b7565b60405180910390f35b610246600480360381019061024191906134f1565b610fe2565b604051610256949392919061396b565b60405180910390f35b610279600480360381019061027491906134f1565b611cad565b60405161028691906139cc565b60405180910390f35b6102a960048036038101906102a491906134f1565b611fb7565b6040516102b69190613b5c565b60405180910390f35b6102d960048036038101906102d491906134f1565b612398565b6040516102e69190613cec565b60405180910390f35b61030960048036038101906103049190613d0e565b612779565b005b61032560048036038101906103209190613e95565b612881565b005b610341600480360381019061033c9190613fdf565b61297c565b005b61035d600480360381019061035891906134f1565b612abb565b60405161036a91906142a5565b60405180910390f35b61037b612e0a565b604051610388919061373d565b60405180910390f35b6103ab60048036038101906103a69190613e95565b612e2c565b005b6103c760048036038101906103c291906142c7565b612f27565b005b6103e360048036038101906103de91906142c7565b612fdd565b005b600080546103f29061440f565b80601f016020809104026020016040519081016040528092919081815260200182805461041e9061440f565b801561046b5780601f106104405761010080835404028352916020019161046b565b820191906000526020600020905b81548152906001019060200180831161044e57829003601f168201915b505050505081565b6040518060a001604052808681526020018581526020018481526020018381526020018281525060026000888152602001908152602001600020600e0160008201518160000190816104c591906145ec565b5060208201518160010190816104db91906145ec565b5060408201518160020190816104f191906145ec565b50606082015181600301908161050791906145ec565b5060808201518160040155905050505050505050565b60606000805461052c9061440f565b80601f01602080910402602001604051908101604052809291908181526020018280546105589061440f565b80156105a55780601f1061057a576101008083540402835291602001916105a5565b820191906000526020600020905b81548152906001019060200180831161058857829003601f168201915b5050505050905090565b6105b76130bb565b60026000838152602001908152602001600020601301604051806101200160405290816000820180546105e99061440f565b80601f01602080910402602001604051908101604052809291908181526020018280546106159061440f565b80156106625780601f1061063757610100808354040283529160200191610662565b820191906000526020600020905b81548152906001019060200180831161064557829003601f168201915b5050505050815260200160018201805461067b9061440f565b80601f01602080910402602001604051908101604052809291908181526020018280546106a79061440f565b80156106f45780601f106106c9576101008083540402835291602001916106f4565b820191906000526020600020905b8154815290600101906020018083116106d757829003601f168201915b5050505050815260200160028201805461070d9061440f565b80601f01602080910402602001604051908101604052809291908181526020018280546107399061440f565b80156107865780601f1061075b57610100808354040283529160200191610786565b820191906000526020600020905b81548152906001019060200180831161076957829003601f168201915b5050505050815260200160038201548152602001600482015481526020016005820180546107b39061440f565b80601f01602080910402602001604051908101604052809291908181526020018280546107df9061440f565b801561082c5780601f106108015761010080835404028352916020019161082c565b820191906000526020600020905b81548152906001019060200180831161080f57829003601f168201915b505050505081526020016006820154815260200160078201805461084f9061440f565b80601f016020809104026020016040519081016040528092919081815260200182805461087b9061440f565b80156108c85780601f1061089d576101008083540402835291602001916108c8565b820191906000526020600020905b8154815290600101906020018083116108ab57829003601f168201915b505050505081526020016008820180546108e19061440f565b80601f016020809104026020016040519081016040528092919081815260200182805461090d9061440f565b801561095a5780601f1061092f5761010080835404028352916020019161095a565b820191906000526020600020905b81548152906001019060200180831161093d57829003601f168201915b5050505050815250509050919050565b610972613107565b60026000838152602001908152602001600020600e016040518060a00160405290816000820180546109a39061440f565b80601f01602080910402602001604051908101604052809291908181526020018280546109cf9061440f565b8015610a1c5780601f106109f157610100808354040283529160200191610a1c565b820191906000526020600020905b8154815290600101906020018083116109ff57829003601f168201915b50505050508152602001600182018054610a359061440f565b80601f0160208091040260200160405190810160405280929190818152602001828054610a619061440f565b8015610aae5780601f10610a8357610100808354040283529160200191610aae565b820191906000526020600020905b815481529060010190602001808311610a9157829003601f168201915b50505050508152602001600282018054610ac79061440f565b80601f0160208091040260200160405190810160405280929190818152602001828054610af39061440f565b8015610b405780601f10610b1557610100808354040283529160200191610b40565b820191906000526020600020905b815481529060010190602001808311610b2357829003601f168201915b50505050508152602001600382018054610b599061440f565b80601f0160208091040260200160405190810160405280929190818152602001828054610b859061440f565b8015610bd25780601f10610ba757610100808354040283529160200191610bd2565b820191906000526020600020905b815481529060010190602001808311610bb557829003601f168201915b505050505081526020016004820154815250509050919050565b6000600154905090565b610bfe613136565b6002600083815260200190815260200160002060000160405180610120016040529081600082018054610c309061440f565b80601f0160208091040260200160405190810160405280929190818152602001828054610c5c9061440f565b8015610ca95780601f10610c7e57610100808354040283529160200191610ca9565b820191906000526020600020905b815481529060010190602001808311610c8c57829003601f168201915b50505050508152602001600182018054610cc29061440f565b80601f0160208091040260200160405190810160405280929190818152602001828054610cee9061440f565b8015610d3b5780601f10610d1057610100808354040283529160200191610d3b565b820191906000526020600020905b815481529060010190602001808311610d1e57829003601f168201915b50505050508152602001600282018054610d549061440f565b80601f0160208091040260200160405190810160405280929190818152602001828054610d809061440f565b8015610dcd5780601f10610da257610100808354040283529160200191610dcd565b820191906000526020600020905b815481529060010190602001808311610db057829003601f168201915b50505050508152602001600382018054610de69061440f565b80601f0160208091040260200160405190810160405280929190818152602001828054610e129061440f565b8015610e5f5780601f10610e3457610100808354040283529160200191610e5f565b820191906000526020600020905b815481529060010190602001808311610e4257829003601f168201915b50505050508152602001600482018054610e789061440f565b80601f0160208091040260200160405190810160405280929190818152602001828054610ea49061440f565b8015610ef15780601f10610ec657610100808354040283529160200191610ef1565b820191906000526020600020905b815481529060010190602001808311610ed457829003601f168201915b505050505081526020016005820154815260200160068201548152602001600782018054610f1e9061440f565b80601f0160208091040260200160405190810160405280929190818152602001828054610f4a9061440f565b8015610f975780601f10610f6c57610100808354040283529160200191610f97565b820191906000526020600020905b815481529060010190602001808311610f7a57829003601f168201915b505050505081526020016008820160009054906101000a900460ff166001811115610fc557610fc4613758565b5b6001811115610fd757610fd6613758565b5b815250509050919050565b600260205280600052604060002060009150905080600001604051806101200160405290816000820180546110169061440f565b80601f01602080910402602001604051908101604052809291908181526020018280546110429061440f565b801561108f5780601f106110645761010080835404028352916020019161108f565b820191906000526020600020905b81548152906001019060200180831161107257829003601f168201915b505050505081526020016001820180546110a89061440f565b80601f01602080910402602001604051908101604052809291908181526020018280546110d49061440f565b80156111215780601f106110f657610100808354040283529160200191611121565b820191906000526020600020905b81548152906001019060200180831161110457829003601f168201915b5050505050815260200160028201805461113a9061440f565b80601f01602080910402602001604051908101604052809291908181526020018280546111669061440f565b80156111b35780601f10611188576101008083540402835291602001916111b3565b820191906000526020600020905b81548152906001019060200180831161119657829003601f168201915b505050505081526020016003820180546111cc9061440f565b80601f01602080910402602001604051908101604052809291908181526020018280546111f89061440f565b80156112455780601f1061121a57610100808354040283529160200191611245565b820191906000526020600020905b81548152906001019060200180831161122857829003601f168201915b5050505050815260200160048201805461125e9061440f565b80601f016020809104026020016040519081016040528092919081815260200182805461128a9061440f565b80156112d75780601f106112ac576101008083540402835291602001916112d7565b820191906000526020600020905b8154815290600101906020018083116112ba57829003601f168201915b5050505050815260200160058201548152602001600682015481526020016007820180546113049061440f565b80601f01602080910402602001604051908101604052809291908181526020018280546113309061440f565b801561137d5780601f106113525761010080835404028352916020019161137d565b820191906000526020600020905b81548152906001019060200180831161136057829003601f168201915b505050505081526020016008820160009054906101000a900460ff1660018111156113ab576113aa613758565b5b60018111156113bd576113bc613758565b5b8152505090806009016040518060a00160405290816000820180546113e19061440f565b80601f016020809104026020016040519081016040528092919081815260200182805461140d9061440f565b801561145a5780601f1061142f5761010080835404028352916020019161145a565b820191906000526020600020905b81548152906001019060200180831161143d57829003601f168201915b505050505081526020016001820180546114739061440f565b80601f016020809104026020016040519081016040528092919081815260200182805461149f9061440f565b80156114ec5780601f106114c1576101008083540402835291602001916114ec565b820191906000526020600020905b8154815290600101906020018083116114cf57829003601f168201915b505050505081526020016002820180546115059061440f565b80601f01602080910402602001604051908101604052809291908181526020018280546115319061440f565b801561157e5780601f106115535761010080835404028352916020019161157e565b820191906000526020600020905b81548152906001019060200180831161156157829003601f168201915b505050505081526020016003820180546115979061440f565b80601f01602080910402602001604051908101604052809291908181526020018280546115c39061440f565b80156116105780601f106115e557610100808354040283529160200191611610565b820191906000526020600020905b8154815290600101906020018083116115f357829003601f168201915b505050505081526020016004820180546116299061440f565b80601f01602080910402602001604051908101604052809291908181526020018280546116559061440f565b80156116a25780601f10611677576101008083540402835291602001916116a2565b820191906000526020600020905b81548152906001019060200180831161168557829003601f168201915b5050505050815250509080600e016040518060a00160405290816000820180546116cb9061440f565b80601f01602080910402602001604051908101604052809291908181526020018280546116f79061440f565b80156117445780601f1061171957610100808354040283529160200191611744565b820191906000526020600020905b81548152906001019060200180831161172757829003601f168201915b5050505050815260200160018201805461175d9061440f565b80601f01602080910402602001604051908101604052809291908181526020018280546117899061440f565b80156117d65780601f106117ab576101008083540402835291602001916117d6565b820191906000526020600020905b8154815290600101906020018083116117b957829003601f168201915b505050505081526020016002820180546117ef9061440f565b80601f016020809104026020016040519081016040528092919081815260200182805461181b9061440f565b80156118685780601f1061183d57610100808354040283529160200191611868565b820191906000526020600020905b81548152906001019060200180831161184b57829003601f168201915b505050505081526020016003820180546118819061440f565b80601f01602080910402602001604051908101604052809291908181526020018280546118ad9061440f565b80156118fa5780601f106118cf576101008083540402835291602001916118fa565b820191906000526020600020905b8154815290600101906020018083116118dd57829003601f168201915b5050505050815260200160048201548152505090806013016040518061012001604052908160008201805461192e9061440f565b80601f016020809104026020016040519081016040528092919081815260200182805461195a9061440f565b80156119a75780601f1061197c576101008083540402835291602001916119a7565b820191906000526020600020905b81548152906001019060200180831161198a57829003601f168201915b505050505081526020016001820180546119c09061440f565b80601f01602080910402602001604051908101604052809291908181526020018280546119ec9061440f565b8015611a395780601f10611a0e57610100808354040283529160200191611a39565b820191906000526020600020905b815481529060010190602001808311611a1c57829003601f168201915b50505050508152602001600282018054611a529061440f565b80601f0160208091040260200160405190810160405280929190818152602001828054611a7e9061440f565b8015611acb5780601f10611aa057610100808354040283529160200191611acb565b820191906000526020600020905b815481529060010190602001808311611aae57829003601f168201915b505050505081526020016003820154815260200160048201548152602001600582018054611af89061440f565b80601f0160208091040260200160405190810160405280929190818152602001828054611b249061440f565b8015611b715780601f10611b4657610100808354040283529160200191611b71565b820191906000526020600020905b815481529060010190602001808311611b5457829003601f168201915b5050505050815260200160068201548152602001600782018054611b949061440f565b80601f0160208091040260200160405190810160405280929190818152602001828054611bc09061440f565b8015611c0d5780601f10611be257610100808354040283529160200191611c0d565b820191906000526020600020905b815481529060010190602001808311611bf057829003601f168201915b50505050508152602001600882018054611c269061440f565b80601f0160208091040260200160405190810160405280929190818152602001828054611c529061440f565b8015611c9f5780601f10611c7457610100808354040283529160200191611c9f565b820191906000526020600020905b815481529060010190602001808311611c8257829003601f168201915b505050505081525050905084565b611cb5613194565b600260008381526020019081526020016000206009016040518060a0016040529081600082018054611ce69061440f565b80601f0160208091040260200160405190810160405280929190818152602001828054611d129061440f565b8015611d5f5780601f10611d3457610100808354040283529160200191611d5f565b820191906000526020600020905b815481529060010190602001808311611d4257829003601f168201915b50505050508152602001600182018054611d789061440f565b80601f0160208091040260200160405190810160405280929190818152602001828054611da49061440f565b8015611df15780601f10611dc657610100808354040283529160200191611df1565b820191906000526020600020905b815481529060010190602001808311611dd457829003601f168201915b50505050508152602001600282018054611e0a9061440f565b80601f0160208091040260200160405190810160405280929190818152602001828054611e369061440f565b8015611e835780601f10611e5857610100808354040283529160200191611e83565b820191906000526020600020905b815481529060010190602001808311611e6657829003601f168201915b50505050508152602001600382018054611e9c9061440f565b80601f0160208091040260200160405190810160405280929190818152602001828054611ec89061440f565b8015611f155780601f10611eea57610100808354040283529160200191611f15565b820191906000526020600020905b815481529060010190602001808311611ef857829003601f168201915b50505050508152602001600482018054611f2e9061440f565b80601f0160208091040260200160405190810160405280929190818152602001828054611f5a9061440f565b8015611fa75780601f10611f7c57610100808354040283529160200191611fa7565b820191906000526020600020905b815481529060010190602001808311611f8a57829003601f168201915b5050505050815250509050919050565b606060026000838152602001908152602001600020601e01805480602002602001604051908101604052809291908181526020016000905b8282101561238d57838290600052602060002090600602016040518060c00160405290816000820180546120229061440f565b80601f016020809104026020016040519081016040528092919081815260200182805461204e9061440f565b801561209b5780601f106120705761010080835404028352916020019161209b565b820191906000526020600020905b81548152906001019060200180831161207e57829003601f168201915b505050505081526020016001820180546120b49061440f565b80601f01602080910402602001604051908101604052809291908181526020018280546120e09061440f565b801561212d5780601f106121025761010080835404028352916020019161212d565b820191906000526020600020905b81548152906001019060200180831161211057829003601f168201915b505050505081526020016002820180546121469061440f565b80601f01602080910402602001604051908101604052809291908181526020018280546121729061440f565b80156121bf5780601f10612194576101008083540402835291602001916121bf565b820191906000526020600020905b8154815290600101906020018083116121a257829003601f168201915b505050505081526020016003820180546121d89061440f565b80601f01602080910402602001604051908101604052809291908181526020018280546122049061440f565b80156122515780601f1061222657610100808354040283529160200191612251565b820191906000526020600020905b81548152906001019060200180831161223457829003601f168201915b5050505050815260200160048201805461226a9061440f565b80601f01602080910402602001604051908101604052809291908181526020018280546122969061440f565b80156122e35780601f106122b8576101008083540402835291602001916122e3565b820191906000526020600020905b8154815290600101906020018083116122c657829003601f168201915b505050505081526020016005820180546122fc9061440f565b80601f01602080910402602001604051908101604052809291908181526020018280546123289061440f565b80156123755780601f1061234a57610100808354040283529160200191612375565b820191906000526020600020905b81548152906001019060200180831161235857829003601f168201915b50505050508152505081526020019060010190611fef565b505050509050919050565b606060026000838152602001908152602001600020601d01805480602002602001604051908101604052809291908181526020016000905b8282101561276e57838290600052602060002090600602016040518060c00160405290816000820180546124039061440f565b80601f016020809104026020016040519081016040528092919081815260200182805461242f9061440f565b801561247c5780601f106124515761010080835404028352916020019161247c565b820191906000526020600020905b81548152906001019060200180831161245f57829003601f168201915b505050505081526020016001820180546124959061440f565b80601f01602080910402602001604051908101604052809291908181526020018280546124c19061440f565b801561250e5780601f106124e35761010080835404028352916020019161250e565b820191906000526020600020905b8154815290600101906020018083116124f157829003601f168201915b505050505081526020016002820180546125279061440f565b80601f01602080910402602001604051908101604052809291908181526020018280546125539061440f565b80156125a05780601f10612575576101008083540402835291602001916125a0565b820191906000526020600020905b81548152906001019060200180831161258357829003601f168201915b505050505081526020016003820180546125b99061440f565b80601f01602080910402602001604051908101604052809291908181526020018280546125e59061440f565b80156126325780601f1061260757610100808354040283529160200191612632565b820191906000526020600020905b81548152906001019060200180831161261557829003601f168201915b5050505050815260200160048201805461264b9061440f565b80601f01602080910402602001604051908101604052809291908181526020018280546126779061440f565b80156126c45780601f10612699576101008083540402835291602001916126c4565b820191906000526020600020905b8154815290600101906020018083116126a757829003601f168201915b505050505081526020016005820180546126dd9061440f565b80601f01602080910402602001604051908101604052809291908181526020018280546127099061440f565b80156127565780601f1061272b57610100808354040283529160200191612756565b820191906000526020600020905b81548152906001019060200180831161273957829003601f168201915b505050505081525050815260200190600101906123d0565b505050509050919050565b6040518061012001604052808a815260200189815260200188815260200187815260200186815260200185815260200184815260200183815260200182815250600260008c815260200190815260200160002060130160008201518160000190816127e491906145ec565b5060208201518160010190816127fa91906145ec565b50604082015181600201908161281091906145ec565b50606082015181600301556080820151816004015560a082015181600501908161283a91906145ec565b5060c0820151816006015560e082015181600701908161285a91906145ec565b5061010082015181600801908161287191906145ec565b5090505050505050505050505050565b60026000888152602001908152602001600020601d016040518060c00160405280888152602001878152602001868152602001858152602001848152602001838152509080600181540180825580915050600190039060005260206000209060060201600090919091909150600082015181600001908161290291906145ec565b50602082015181600101908161291891906145ec565b50604082015181600201908161292e91906145ec565b50606082015181600301908161294491906145ec565b50608082015181600401908161295a91906145ec565b5060a082015181600501908161297091906145ec565b50505050505050505050565b6040518061012001604052808981526020018881526020018781526020018681526020018581526020018481526020018381526020018281526020016001808111156129cb576129ca613758565b5b815250600260008b815260200190815260200160002060000160008201518160000190816129f991906145ec565b506020820151816001019081612a0f91906145ec565b506040820151816002019081612a2591906145ec565b506060820151816003019081612a3b91906145ec565b506080820151816004019081612a5191906145ec565b5060a0820151816005015560c0820151816006015560e0820151816007019081612a7b91906145ec565b506101008201518160080160006101000a81548160ff02191690836001811115612aa857612aa7613758565b5b0217905550905050505050505050505050565b606060026000838152602001908152602001600020601c01805480602002602001604051908101604052809291908181526020016000905b82821015612dff57838290600052602060002090600502016040518060a0016040529081600082018054612b269061440f565b80601f0160208091040260200160405190810160405280929190818152602001828054612b529061440f565b8015612b9f5780601f10612b7457610100808354040283529160200191612b9f565b820191906000526020600020905b815481529060010190602001808311612b8257829003601f168201915b50505050508152602001600182018054612bb89061440f565b80601f0160208091040260200160405190810160405280929190818152602001828054612be49061440f565b8015612c315780601f10612c0657610100808354040283529160200191612c31565b820191906000526020600020905b815481529060010190602001808311612c1457829003601f168201915b50505050508152602001600282018054612c4a9061440f565b80601f0160208091040260200160405190810160405280929190818152602001828054612c769061440f565b8015612cc35780601f10612c9857610100808354040283529160200191612cc3565b820191906000526020600020905b815481529060010190602001808311612ca657829003601f168201915b50505050508152602001600382018054612cdc9061440f565b80601f0160208091040260200160405190810160405280929190818152602001828054612d089061440f565b8015612d555780601f10612d2a57610100808354040283529160200191612d55565b820191906000526020600020905b815481529060010190602001808311612d3857829003601f168201915b50505050508152602001600482018054612d6e9061440f565b80601f0160208091040260200160405190810160405280929190818152602001828054612d9a9061440f565b8015612de75780601f10612dbc57610100808354040283529160200191612de7565b820191906000526020600020905b815481529060010190602001808311612dca57829003601f168201915b50505050508152505081526020019060010190612af3565b505050509050919050565b600060016000815480929190612e1f906146ed565b9190505550600154905090565b60026000888152602001908152602001600020601e016040518060c001604052808881526020018781526020018681526020018581526020018481526020018381525090806001815401808255809150506001900390600052602060002090600602016000909190919091506000820151816000019081612ead91906145ec565b506020820151816001019081612ec391906145ec565b506040820151816002019081612ed991906145ec565b506060820151816003019081612eef91906145ec565b506080820151816004019081612f0591906145ec565b5060a0820151816005019081612f1b91906145ec565b50505050505050505050565b6040518060a0016040528086815260200185815260200184815260200183815260200182815250600260008881526020019081526020016000206009016000820151816000019081612f7991906145ec565b506020820151816001019081612f8f91906145ec565b506040820151816002019081612fa591906145ec565b506060820151816003019081612fbb91906145ec565b506080820151816004019081612fd191906145ec565b50905050505050505050565b60026000878152602001908152602001600020601c016040518060a00160405280878152602001868152602001858152602001848152602001838152509080600181540180825580915050600190039060005260206000209060050201600090919091909150600082015181600001908161305891906145ec565b50602082015181600101908161306e91906145ec565b50604082015181600201908161308491906145ec565b50606082015181600301908161309a91906145ec565b5060808201518160040190816130b091906145ec565b505050505050505050565b6040518061012001604052806060815260200160608152602001606081526020016000815260200160008152602001606081526020016000815260200160608152602001606081525090565b6040518060a0016040528060608152602001606081526020016060815260200160608152602001600081525090565b60405180610120016040528060608152602001606081526020016060815260200160608152602001606081526020016000815260200160008152602001606081526020016000600181111561318e5761318d613758565b5b81525090565b6040518060a0016040528060608152602001606081526020016060815260200160608152602001606081525090565b600081519050919050565b600082825260208201905092915050565b60005b838110156131fd5780820151818401526020810190506131e2565b60008484015250505050565b6000601f19601f8301169050919050565b6000613225826131c3565b61322f81856131ce565b935061323f8185602086016131df565b61324881613209565b840191505092915050565b6000602082019050818103600083015261326d818461321a565b905092915050565b6000604051905090565b600080fd5b600080fd5b6000819050919050565b61329c81613289565b81146132a757600080fd5b50565b6000813590506132b981613293565b92915050565b600080fd5b600080fd5b7f4e487b7100000000000000000000000000000000000000000000000000000000600052604160045260246000fd5b61330182613209565b810181811067ffffffffffffffff821117156133205761331f6132c9565b5b80604052505050565b6000613333613275565b905061333f82826132f8565b919050565b600067ffffffffffffffff82111561335f5761335e6132c9565b5b61336882613209565b9050602081019050919050565b82818337600083830152505050565b600061339761339284613344565b613329565b9050828152602081018484840111156133b3576133b26132c4565b5b6133be848285613375565b509392505050565b600082601f8301126133db576133da6132bf565b5b81356133eb848260208601613384565b91505092915050565b60008060008060008060c087890312156134115761341061327f565b5b600061341f89828a016132aa565b965050602087013567ffffffffffffffff8111156134405761343f613284565b5b61344c89828a016133c6565b955050604087013567ffffffffffffffff81111561346d5761346c613284565b5b61347989828a016133c6565b945050606087013567ffffffffffffffff81111561349a57613499613284565b5b6134a689828a016133c6565b935050608087013567ffffffffffffffff8111156134c7576134c6613284565b5b6134d389828a016133c6565b92505060a06134e489828a016132aa565b9150509295509295509295565b6000602082840312156135075761350661327f565b5b6000613515848285016132aa565b91505092915050565b600082825260208201905092915050565b600061353a826131c3565b613544818561351e565b93506135548185602086016131df565b61355d81613209565b840191505092915050565b61357181613289565b82525050565b6000610120830160008301518482036000860152613595828261352f565b915050602083015184820360208601526135af828261352f565b915050604083015184820360408601526135c9828261352f565b91505060608301516135de6060860182613568565b5060808301516135f16080860182613568565b5060a083015184820360a0860152613609828261352f565b91505060c083015161361e60c0860182613568565b5060e083015184820360e0860152613636828261352f565b915050610100830151848203610100860152613652828261352f565b9150508091505092915050565b600060208201905081810360008301526136798184613577565b905092915050565b600060a083016000830151848203600086015261369e828261352f565b915050602083015184820360208601526136b8828261352f565b915050604083015184820360408601526136d2828261352f565b915050606083015184820360608601526136ec828261352f565b91505060808301516137016080860182613568565b508091505092915050565b600060208201905081810360008301526137268184613681565b905092915050565b61373781613289565b82525050565b6000602082019050613752600083018461372e565b92915050565b7f4e487b7100000000000000000000000000000000000000000000000000000000600052602160045260246000fd5b6002811061379857613797613758565b5b50565b60008190506137a982613787565b919050565b60006137b98261379b565b9050919050565b6137c9816137ae565b82525050565b60006101208301600083015184820360008601526137ed828261352f565b91505060208301518482036020860152613807828261352f565b91505060408301518482036040860152613821828261352f565b9150506060830151848203606086015261383b828261352f565b91505060808301518482036080860152613855828261352f565b91505060a083015161386a60a0860182613568565b5060c083015161387d60c0860182613568565b5060e083015184820360e0860152613895828261352f565b9150506101008301516138ac6101008601826137c0565b508091505092915050565b600060208201905081810360008301526138d181846137cf565b905092915050565b600060a08301600083015184820360008601526138f6828261352f565b91505060208301518482036020860152613910828261352f565b9150506040830151848203604086015261392a828261352f565b91505060608301518482036060860152613944828261352f565b9150506080830151848203608086015261395e828261352f565b9150508091505092915050565b6000608082019050818103600083015261398581876137cf565b9050818103602083015261399981866138d9565b905081810360408301526139ad8185613681565b905081810360608301526139c18184613577565b905095945050505050565b600060208201905081810360008301526139e681846138d9565b905092915050565b600081519050919050565b600082825260208201905092915050565b6000819050602082019050919050565b600060c0830160008301518482036000860152613a37828261352f565b91505060208301518482036020860152613a51828261352f565b91505060408301518482036040860152613a6b828261352f565b91505060608301518482036060860152613a85828261352f565b91505060808301518482036080860152613a9f828261352f565b91505060a083015184820360a0860152613ab9828261352f565b9150508091505092915050565b6000613ad28383613a1a565b905092915050565b6000602082019050919050565b6000613af2826139ee565b613afc81856139f9565b935083602082028501613b0e85613a0a565b8060005b85811015613b4a5784840389528151613b2b8582613ac6565b9450613b3683613ada565b925060208a01995050600181019050613b12565b50829750879550505050505092915050565b60006020820190508181036000830152613b768184613ae7565b905092915050565b600081519050919050565b600082825260208201905092915050565b6000819050602082019050919050565b600060c0830160008301518482036000860152613bc7828261352f565b91505060208301518482036020860152613be1828261352f565b91505060408301518482036040860152613bfb828261352f565b91505060608301518482036060860152613c15828261352f565b91505060808301518482036080860152613c2f828261352f565b91505060a083015184820360a0860152613c49828261352f565b9150508091505092915050565b6000613c628383613baa565b905092915050565b6000602082019050919050565b6000613c8282613b7e565b613c8c8185613b89565b935083602082028501613c9e85613b9a565b8060005b85811015613cda5784840389528151613cbb8582613c56565b9450613cc683613c6a565b925060208a01995050600181019050613ca2565b50829750879550505050505092915050565b60006020820190508181036000830152613d068184613c77565b905092915050565b6000806000806000806000806000806101408b8d031215613d3257613d3161327f565b5b6000613d408d828e016132aa565b9a505060208b013567ffffffffffffffff811115613d6157613d60613284565b5b613d6d8d828e016133c6565b99505060408b013567ffffffffffffffff811115613d8e57613d8d613284565b5b613d9a8d828e016133c6565b98505060608b013567ffffffffffffffff811115613dbb57613dba613284565b5b613dc78d828e016133c6565b9750506080613dd88d828e016132aa565b96505060a0613de98d828e016132aa565b95505060c08b013567ffffffffffffffff811115613e0a57613e09613284565b5b613e168d828e016133c6565b94505060e0613e278d828e016132aa565b9350506101008b013567ffffffffffffffff811115613e4957613e48613284565b5b613e558d828e016133c6565b9250506101208b013567ffffffffffffffff811115613e7757613e76613284565b5b613e838d828e016133c6565b9150509295989b9194979a5092959850565b600080600080600080600060e0888a031215613eb457613eb361327f565b5b6000613ec28a828b016132aa565b975050602088013567ffffffffffffffff811115613ee357613ee2613284565b5b613eef8a828b016133c6565b965050604088013567ffffffffffffffff811115613f1057613f0f613284565b5b613f1c8a828b016133c6565b955050606088013567ffffffffffffffff811115613f3d57613f3c613284565b5b613f498a828b016133c6565b945050608088013567ffffffffffffffff811115613f6a57613f69613284565b5b613f768a828b016133c6565b93505060a088013567ffffffffffffffff811115613f9757613f96613284565b5b613fa38a828b016133c6565b92505060c088013567ffffffffffffffff811115613fc457613fc3613284565b5b613fd08a828b016133c6565b91505092959891949750929550565b60008060008060008060008060006101208a8c0312156140025761400161327f565b5b60006140108c828d016132aa565b99505060208a013567ffffffffffffffff81111561403157614030613284565b5b61403d8c828d016133c6565b98505060408a013567ffffffffffffffff81111561405e5761405d613284565b5b61406a8c828d016133c6565b97505060608a013567ffffffffffffffff81111561408b5761408a613284565b5b6140978c828d016133c6565b96505060808a013567ffffffffffffffff8111156140b8576140b7613284565b5b6140c48c828d016133c6565b95505060a08a013567ffffffffffffffff8111156140e5576140e4613284565b5b6140f18c828d016133c6565b94505060c06141028c828d016132aa565b93505060e06141138c828d016132aa565b9250506101008a013567ffffffffffffffff81111561413557614134613284565b5b6141418c828d016133c6565b9150509295985092959850929598565b600081519050919050565b600082825260208201905092915050565b6000819050602082019050919050565b600060a083016000830151848203600086015261419a828261352f565b915050602083015184820360208601526141b4828261352f565b915050604083015184820360408601526141ce828261352f565b915050606083015184820360608601526141e8828261352f565b91505060808301518482036080860152614202828261352f565b9150508091505092915050565b600061421b838361417d565b905092915050565b6000602082019050919050565b600061423b82614151565b614245818561415c565b9350836020820285016142578561416d565b8060005b858110156142935784840389528151614274858261420f565b945061427f83614223565b925060208a0199505060018101905061425b565b50829750879550505050505092915050565b600060208201905081810360008301526142bf8184614230565b905092915050565b60008060008060008060c087890312156142e4576142e361327f565b5b60006142f289828a016132aa565b965050602087013567ffffffffffffffff81111561431357614312613284565b5b61431f89828a016133c6565b955050604087013567ffffffffffffffff8111156143405761433f613284565b5b61434c89828a016133c6565b945050606087013567ffffffffffffffff81111561436d5761436c613284565b5b61437989828a016133c6565b935050608087013567ffffffffffffffff81111561439a57614399613284565b5b6143a689828a016133c6565b92505060a087013567ffffffffffffffff8111156143c7576143c6613284565b5b6143d389828a016133c6565b9150509295509295509295565b7f4e487b7100000000000000000000000000000000000000000000000000000000600052602260045260246000fd5b6000600282049050600182168061442757607f821691505b60208210810361443a576144396143e0565b5b50919050565b60008190508160005260206000209050919050565b60006020601f8301049050919050565b600082821b905092915050565b6000600883026144a27fffffffffffffffffffffffffffffffffffffffffffffffffffffffffffffffff82614465565b6144ac8683614465565b95508019841693508086168417925050509392505050565b6000819050919050565b60006144e96144e46144df84613289565b6144c4565b613289565b9050919050565b6000819050919050565b614503836144ce565b61451761450f826144f0565b848454614472565b825550505050565b600090565b61452c61451f565b6145378184846144fa565b505050565b5b8181101561455b57614550600082614524565b60018101905061453d565b5050565b601f8211156145a05761457181614440565b61457a84614455565b81016020851015614589578190505b61459d61459585614455565b83018261453c565b50505b505050565b600082821c905092915050565b60006145c3600019846008026145a5565b1980831691505092915050565b60006145dc83836145b2565b9150826002028217905092915050565b6145f5826131c3565b67ffffffffffffffff81111561460e5761460d6132c9565b5b614618825461440f565b61462382828561455f565b600060209050601f8311600181146146565760008415614644578287015190505b61464e85826145d0565b8655506146b6565b601f19841661466486614440565b60005b8281101561468c57848901518255600182019150602085019450602081019050614667565b868310156146a957848901516146a5601f8916826145b2565b8355505b6001600288020188555050505b505050505050565b7f4e487b7100000000000000000000000000000000000000000000000000000000600052601160045260246000fd5b60006146f882613289565b91507fffffffffffffffffffffffffffffffffffffffffffffffffffffffffffffffff820361472a576147296146be565b5b60018201905091905056fea26469706673582212202665803e7f631ccd345abe21f85b31728a775621614f6b97288b507910d936e664736f6c63430008130033",
  "immutableReferences": {},
  "source": "// SPDX-License-Identifier: MIT\r\npragma solidity ^0.8.19;\r\n\r\ncontract EcommerceContract {\n    enum ProductStatus {Sold, Available}\n    \n    string public marketplaceName;\n    uint productCount;\n\r\n    // Constructor code is only run when the contract is created\r\n    constructor() {\r\n        productCount = 0;\r\n        marketplaceName = \"Ecomme Marketplace\";\r\n    }\r\n\r\n    function getMarketplaceName() public view returns(string memory){\r\n        return marketplaceName;\r\n    }\r\n\r\n    struct CustomerRecord {\r\n        string customerId;\r\n        string customerName;\r\n        string purchaseDate;\r\n        string phone;\r\n        string email;  \r\n    }\r\n\r\n    struct QualityCheckRecord {\r\n        string inspectionName;\r\n        string inspectionDate;\r\n        string inspectorName;\r\n        string facilityName;\r\n        string phone;\r\n        string email;\r\n    }\r\n\r\n    struct PurchaseAgreement {\r\n        string orderId;\r\n        string customerName;\r\n        string purchaseDate;\r\n        string returnPolicy;\r\n        uint256 purchaseTotal;\r\n    }\r\n  \r\n    struct WarrantyData {\r\n        string warrantyId;\r\n        string provider;\r\n        string coverageType;\r\n        uint256 maxClaimAmount;\r\n        uint256 premium;\r\n        string claimId;\r\n        uint256 amountClaimed;\r\n        string claimDate;\r\n        string status;\r\n    }\r\n\r\n    struct MarketingRecord {\r\n        string campaignType;\r\n        string managerName;\r\n        string channel;\r\n        string phone;\r\n        string campaignDate;\r\n        string progress;\r\n    }\r\n\r\n    struct SupplierWarehouseRecords {\r\n        string supplierName;\r\n        string warehouseAddress;\r\n        string supplierId;\r\n        string phone;\r\n        string email;       \r\n    }\r\n\r\n    struct ProductInformation {\n        string id;\n        string name;\n        string category;\n        string releaseDate;\n        string description;\n        uint256 price;\n        uint256 stock;\n        string image;\n        ProductStatus status;\n    }\n\r\n    struct Product {\r\n        ProductInformation productInfo;\r\n        SupplierWarehouseRecords supplierWarehouseRecords;\r\n        PurchaseAgreement purchaseAgreement;\r\n        WarrantyData warrantyData;\r\n        CustomerRecord[] customerRecords;\r\n        QualityCheckRecord[] qualityCheckHistory;\r\n        MarketingRecord[] marketingHistory;\r\n    }\r\n    mapping(uint256 => Product) public products;\r\n \r\n    function registerProduct() public returns (uint256) {\r\n        productCount++;\r\n    \r\n        return productCount;\r\n    }\r\n    \r\n    // Function to add product information\r\n    function addProductInfo(\n        uint256 productId,\n        string memory _id,\n        string memory _name,\n        string memory _category,\n        string memory _releaseDate,\n        string memory _description,\n        uint256 _price,\n        uint256 _stock,\n        string memory _image\n    ) public {\n        products[productId].productInfo = ProductInformation(\n            _id,\n            _name,\n            _category,\n            _releaseDate,\n            _description,\n            _price,\n            _stock,\n            _image,\n            ProductStatus.Available\n        );\n    }\n\r\n    // Function to add supplier and warehouse information\r\n    function addSupplierWarehouseInfo(uint256 productId, \r\n        string memory _supplierName,\r\n        string memory _warehouseAddress,\r\n        string memory _supplierId,\r\n        string memory _phone,\r\n        string memory _email ) public {\r\n            products[productId].supplierWarehouseRecords = SupplierWarehouseRecords(_supplierName, _warehouseAddress, _supplierId,\r\n            _phone, _email);\r\n\r\n    }\r\n   \r\n    // Function to add purchase agreement \r\n    function addPurchaseAgreement (uint256 productId, \r\n        string memory _orderId,\r\n        string memory _customerName,\r\n        string memory _purchaseDate,\r\n        string memory _returnPolicy,\r\n        uint256 _purchaseTotal) public {\r\n            products[productId].purchaseAgreement = PurchaseAgreement(_orderId, _customerName, _purchaseDate,\r\n            _returnPolicy, _purchaseTotal);\r\n\r\n    }\r\n\r\n    // Function to add warranty data \r\n    function addWarrantyData (uint256 productId, \r\n       string memory _warrantyId,\r\n        string memory _provider,\r\n        string memory _coverageType,\r\n        uint256 _maxClaimAmount,\r\n        uint256 _premium,\r\n        string memory _claimId,\r\n        uint256 _amountClaimed,\r\n        string memory _claimDate,\r\n        string memory _status) public {\r\n            products[productId].warrantyData = WarrantyData(_warrantyId, _provider, _coverageType,\r\n             _maxClaimAmount, _premium, _claimId, _amountClaimed, _claimDate, _status);\r\n\r\n    }\r\n      \r\n    // Function to add a new customer record\r\n    function addCustomerRecord (uint256 productId, \r\n        string memory _customerId,\r\n        string memory _customerName,\r\n        string memory _purchaseDate,\r\n        string memory _phone,\r\n        string memory _email ) public {\r\n            products[productId].customerRecords.push(CustomerRecord(_customerId, _customerName, _purchaseDate, _phone, _email));\r\n    }\r\n\r\n    function addQualityCheckRecord (uint256 productId, \r\n        string memory _inspectionName,\r\n        string memory _inspectionDate,\r\n        string memory _inspectorName,\r\n        string memory _facilityName,\r\n        string memory _phone,\r\n        string memory _email) public {\r\n            products[productId].qualityCheckHistory.push(QualityCheckRecord(_inspectionName, _inspectionDate, _inspectorName, _facilityName, _phone, _email));\r\n    }\r\n\r\n    function addMarketingRecord (uint256 productId, \r\n         string memory _campaignType,\r\n        string memory _managerName,\r\n        string memory _channel,\r\n        string memory _phone,\r\n        string memory _campaignDate,\r\n        string memory _progress) public {\r\n            products[productId].marketingHistory.push(MarketingRecord(_campaignType, _managerName, _channel, _phone,\r\n        _campaignDate, _progress));\r\n\r\n    }\r\n\r\n    //Write a function getNoOfProducts to obtain the productCount\r\n    function getNoOfProducts() public view returns (uint) {\r\n        return productCount;\r\n    }\r\n\r\n     // Function to retrieve product information\r\n    function getProductInfo(uint256 productId) public view returns (ProductInformation memory) {\r\n        return products[productId].productInfo;\r\n    }\r\n\r\n     // Function to retrieve supplier warehouse information\r\n    function getSupplierWarehouseInfo(uint256 productId) public view returns (SupplierWarehouseRecords memory) {\r\n        return products[productId].supplierWarehouseRecords;\r\n    }\r\n\r\n    // Function to retrieve customer records\r\n    function getCustomerRecords(uint256 productId) public view returns (CustomerRecord[] memory) {\r\n        return products[productId].customerRecords;\r\n    }\r\n\r\n    // Function to retrieve quality check records\r\n    function getQualityCheckRecords(uint256 productId) public view returns (QualityCheckRecord[] memory) {\r\n        return products[productId].qualityCheckHistory;\r\n    }\r\n\r\n    // Function to retrieve marketing records\r\n    function getMarketingRecords(uint256 productId) public view returns (MarketingRecord[] memory) {\r\n        return products[productId].marketingHistory;\r\n    }\r\n\r\n    // Function to retrieve warranty data\r\n    function getWarrantyData(uint256 productId) public view returns (WarrantyData memory) {\r\n        return products[productId].warrantyData;\r\n    }\r\n\r\n    // Function to retrieve purchase agreement details\r\n    function getPurchaseAgreement(uint256 productId) public view returns (PurchaseAgreement memory) {\r\n        return products[productId].purchaseAgreement;\r\n    }\r\n\r\n}\r\n",
  "sourcePath": "C:\\Users\\24035476\\OneDrive - Republic Polytechnic\\Documents\\Year-2, sems-2\\C373, Distributed Ledger Technology Solutioning\\C373, FA-GA\\GA\\contracts\\EcommerceContract.sol",
  "compiler": {
    "name": "solc",
    "version": "0.8.19+commit.7dd6d404.Emscripten.clang"
  },
  "schemaVersion": "3.4.16",
  "updatedAt": "2026-01-26T20:56:33.289Z",
  "networkType": "ethereum",
  "devdoc": {
    "kind": "dev",
    "methods": {},
    "version": 1
  },
  "userdoc": {
    "kind": "user",
    "methods": {},
    "version": 1
  }
}