{
  "contractName": "EcommerceContract",
  "abi": [
    {
      "inputs": [],
      "stateMutability": "nonpayable",
      "type": "constructor"
    },
    {
      "inputs": [],
      "name": "marketplaceName",
      "outputs": [
        {
          "internalType": "string",
          "name": "",
          "type": "string"
        }
      ],
      "stateMutability": "view",
      "type": "function"
    },
    {
      "inputs": [],
      "name": "getNoOfProducts",
      "outputs": [
        {
          "internalType": "uint256",
          "name": "",
          "type": "uint256"
        }
      ],
      "stateMutability": "view",
      "type": "function"
    },
    {
      "inputs": [],
      "name": "registerProduct",
      "outputs": [
        {
          "internalType": "uint256",
          "name": "",
          "type": "uint256"
        }
      ],
      "stateMutability": "nonpayable",
      "type": "function"
    },
    {
      "inputs": [
        {
          "internalType": "uint256",
          "name": "productId",
          "type": "uint256"
        },
        {
          "internalType": "string",
          "name": "_id",
          "type": "string"
        },
        {
          "internalType": "string",
          "name": "_name",
          "type": "string"
        },
        {
          "internalType": "string",
          "name": "_category",
          "type": "string"
        },
        {
          "internalType": "string",
          "name": "_releaseDate",
          "type": "string"
        },
        {
          "internalType": "string",
          "name": "_description",
          "type": "string"
        },
        {
          "internalType": "uint256",
          "name": "_price",
          "type": "uint256"
        },
        {
          "internalType": "uint256",
          "name": "_stock",
          "type": "uint256"
        },
        {
          "internalType": "string",
          "name": "_image",
          "type": "string"
        }
      ],
      "name": "addProductInfo",
      "outputs": [],
      "stateMutability": "nonpayable",
      "type": "function"
    },
    {
      "inputs": [
        {
          "internalType": "uint256",
          "name": "productId",
          "type": "uint256"
        }
      ],
      "name": "getProductInfo",
      "outputs": [
        {
          "internalType": "string",
          "name": "id",
          "type": "string"
        },
        {
          "internalType": "string",
          "name": "name",
          "type": "string"
        },
        {
          "internalType": "string",
          "name": "category",
          "type": "string"
        },
        {
          "internalType": "string",
          "name": "releaseDate",
          "type": "string"
        },
        {
          "internalType": "string",
          "name": "description",
          "type": "string"
        },
        {
          "internalType": "uint256",
          "name": "price",
          "type": "uint256"
        },
        {
          "internalType": "uint256",
          "name": "stock",
          "type": "uint256"
        },
        {
          "internalType": "string",
          "name": "image",
          "type": "string"
        },
        {
          "internalType": "bool",
          "name": "exists",
          "type": "bool"
        }
      ],
      "stateMutability": "view",
      "type": "function"
    }
  ],
  "bytecode": "0x60806040523480156200001157600080fd5b506040518060400160405280601281526020017f45636f6d6d65204d61726b6574706c616365000000000000000000000000000081525060009081620000589190620002d9565b50620003c0565b600081519050919050565b7f4e487b7100000000000000000000000000000000000000000000000000000000600052604160045260246000fd5b7f4e487b7100000000000000000000000000000000000000000000000000000000600052602260045260246000fd5b60006002820490506001821680620000e157607f821691505b602082108103620000f757620000f662000099565b5b50919050565b60008190508160005260206000209050919050565b60006020601f8301049050919050565b600082821b905092915050565b600060088302620001617fffffffffffffffffffffffffffffffffffffffffffffffffffffffffffffffff8262000122565b6200016d868362000122565b95508019841693508086168417925050509392505050565b6000819050919050565b6000819050919050565b6000620001ba620001b4620001ae8462000185565b6200018f565b62000185565b9050919050565b6000819050919050565b620001d68362000199565b620001ee620001e582620001c1565b8484546200012f565b825550505050565b600090565b62000205620001f6565b62000212818484620001cb565b505050565b5b818110156200023a576200022e600082620001fb565b60018101905062000218565b5050565b601f82111562000289576200025381620000fd565b6200025e8462000112565b810160208510156200026e578190505b620002866200027d8562000112565b83018262000217565b50505b505050565b600082821c905092915050565b6000620002ae600019846008026200028e565b1980831691505092915050565b6000620002c983836200029b565b9150826002028217905092915050565b620002e4826200005f565b67ffffffffffffffff8111156200030057620002ff6200006a565b5b6200030c8254620000c8565b620003198282856200023e565b600060209050601f8311600181146200035157600084156200033c578287015190505b620003488582620002bb565b865550620003b8565b601f1984166200036186620000fd565b60005b828110156200038b5784890151825560018201915060208501945060208101905062000364565b86831015620003ab5784890151620003a7601f8916826200029b565b8355505b6001600288020188555050505b505050505050565b610fb680620003d06000396000f3fe608060405234801561001057600080fd5b50600436106100575760003560e01c80631d6069fc1461005c57806378a6d5991461007a57806379a85e6c14610098578063c2e22f6d146100d0578063dfd92f8a146100ec575b600080fd5b61006461010a565b6040516100719190610783565b60405180910390f35b610082610198565b60405161008f91906107be565b60405180910390f35b6100b260048036038101906100ad9190610819565b6101a2565b6040516100c799989796959493929190610861565b60405180910390f35b6100ea60048036038101906100e59190610a4d565b610563565b005b6100f46106d1565b60405161010191906107be565b60405180910390f35b6000805461011790610bee565b80601f016020809104026020016040519081016040528092919081815260200182805461014390610bee565b80156101905780601f1061016557610100808354040283529160200191610190565b820191906000526020600020905b81548152906001019060200180831161017357829003601f168201915b505050505081565b6000600154905090565b60608060608060606000806060600080600260008c81526020019081526020016000209050806000018160010182600601836005018460020185600301548660040154876007018860080160009054906101000a900460ff1688805461020790610bee565b80601f016020809104026020016040519081016040528092919081815260200182805461023390610bee565b80156102805780601f1061025557610100808354040283529160200191610280565b820191906000526020600020905b81548152906001019060200180831161026357829003601f168201915b5050505050985087805461029390610bee565b80601f01602080910402602001604051908101604052809291908181526020018280546102bf90610bee565b801561030c5780601f106102e15761010080835404028352916020019161030c565b820191906000526020600020905b8154815290600101906020018083116102ef57829003601f168201915b5050505050975086805461031f90610bee565b80601f016020809104026020016040519081016040528092919081815260200182805461034b90610bee565b80156103985780601f1061036d57610100808354040283529160200191610398565b820191906000526020600020905b81548152906001019060200180831161037b57829003601f168201915b505050505096508580546103ab90610bee565b80601f01602080910402602001604051908101604052809291908181526020018280546103d790610bee565b80156104245780601f106103f957610100808354040283529160200191610424565b820191906000526020600020905b81548152906001019060200180831161040757829003601f168201915b5050505050955084805461043790610bee565b80601f016020809104026020016040519081016040528092919081815260200182805461046390610bee565b80156104b05780601f10610485576101008083540402835291602001916104b0565b820191906000526020600020905b81548152906001019060200180831161049357829003601f168201915b505050505094508180546104c390610bee565b80601f01602080910402602001604051908101604052809291908181526020018280546104ef90610bee565b801561053c5780601f106105115761010080835404028352916020019161053c565b820191906000526020600020905b81548152906001019060200180831161051f57829003601f168201915b50505050509150995099509950995099509950995099509950509193959799909294969850565b60008911801561057557506001548911155b6105b4576040517f08c379a00000000000000000000000000000000000000000000000000000000081526004016105ab90610c6b565b60405180910390fd5b60405180610120016040528089815260200188815260200185815260200184815260200183815260200186815260200187815260200182815260200160011515815250600260008b8152602001908152602001600020600082015181600001908161061f9190610e37565b5060208201518160010190816106359190610e37565b50604082015181600201908161064b9190610e37565b50606082015181600301556080820151816004015560a08201518160050190816106759190610e37565b5060c082015181600601908161068b9190610e37565b5060e08201518160070190816106a19190610e37565b506101008201518160080160006101000a81548160ff021916908315150217905550905050505050505050505050565b6000600160008154809291906106e690610f38565b9190505550600154905090565b600081519050919050565b600082825260208201905092915050565b60005b8381101561072d578082015181840152602081019050610712565b60008484015250505050565b6000601f19601f8301169050919050565b6000610755826106f3565b61075f81856106fe565b935061076f81856020860161070f565b61077881610739565b840191505092915050565b6000602082019050818103600083015261079d818461074a565b905092915050565b6000819050919050565b6107b8816107a5565b82525050565b60006020820190506107d360008301846107af565b92915050565b6000604051905090565b600080fd5b600080fd5b6107f6816107a5565b811461080157600080fd5b50565b600081359050610813816107ed565b92915050565b60006020828403121561082f5761082e6107e3565b5b600061083d84828501610804565b91505092915050565b60008115159050919050565b61085b81610846565b82525050565b600061012082019050818103600083015261087c818c61074a565b90508181036020830152610890818b61074a565b905081810360408301526108a4818a61074a565b905081810360608301526108b8818961074a565b905081810360808301526108cc818861074a565b90506108db60a08301876107af565b6108e860c08301866107af565b81810360e08301526108fa818561074a565b905061090a610100830184610852565b9a9950505050505050505050565b600080fd5b600080fd5b7f4e487b7100000000000000000000000000000000000000000000000000000000600052604160045260246000fd5b61095a82610739565b810181811067ffffffffffffffff8211171561097957610978610922565b5b80604052505050565b600061098c6107d9565b90506109988282610951565b919050565b600067ffffffffffffffff8211156109b8576109b7610922565b5b6109c182610739565b9050602081019050919050565b82818337600083830152505050565b60006109f06109eb8461099d565b610982565b905082815260208101848484011115610a0c57610a0b61091d565b5b610a178482856109ce565b509392505050565b600082601f830112610a3457610a33610918565b5b8135610a448482602086016109dd565b91505092915050565b60008060008060008060008060006101208a8c031215610a7057610a6f6107e3565b5b6000610a7e8c828d01610804565b99505060208a013567ffffffffffffffff811115610a9f57610a9e6107e8565b5b610aab8c828d01610a1f565b98505060408a013567ffffffffffffffff811115610acc57610acb6107e8565b5b610ad88c828d01610a1f565b97505060608a013567ffffffffffffffff811115610af957610af86107e8565b5b610b058c828d01610a1f565b96505060808a013567ffffffffffffffff811115610b2657610b256107e8565b5b610b328c828d01610a1f565b95505060a08a013567ffffffffffffffff811115610b5357610b526107e8565b5b610b5f8c828d01610a1f565b94505060c0610b708c828d01610804565b93505060e0610b818c828d01610804565b9250506101008a013567ffffffffffffffff811115610ba357610ba26107e8565b5b610baf8c828d01610a1f565b9150509295985092959850929598565b7f4e487b7100000000000000000000000000000000000000000000000000000000600052602260045260246000fd5b60006002820490506001821680610c0657607f821691505b602082108103610c1957610c18610bbf565b5b50919050565b7f496e76616c69642070726f647563744964000000000000000000000000000000600082015250565b6000610c556011836106fe565b9150610c6082610c1f565b602082019050919050565b60006020820190508181036000830152610c8481610c48565b9050919050565b60008190508160005260206000209050919050565b60006020601f8301049050919050565b600082821b905092915050565b600060088302610ced7fffffffffffffffffffffffffffffffffffffffffffffffffffffffffffffffff82610cb0565b610cf78683610cb0565b95508019841693508086168417925050509392505050565b6000819050919050565b6000610d34610d2f610d2a846107a5565b610d0f565b6107a5565b9050919050565b6000819050919050565b610d4e83610d19565b610d62610d5a82610d3b565b848454610cbd565b825550505050565b600090565b610d77610d6a565b610d82818484610d45565b505050565b5b81811015610da657610d9b600082610d6f565b600181019050610d88565b5050565b601f821115610deb57610dbc81610c8b565b610dc584610ca0565b81016020851015610dd4578190505b610de8610de085610ca0565b830182610d87565b50505b505050565b600082821c905092915050565b6000610e0e60001984600802610df0565b1980831691505092915050565b6000610e278383610dfd565b9150826002028217905092915050565b610e40826106f3565b67ffffffffffffffff811115610e5957610e58610922565b5b610e638254610bee565b610e6e828285610daa565b600060209050601f831160018114610ea15760008415610e8f578287015190505b610e998582610e1b565b865550610f01565b601f198416610eaf86610c8b565b60005b82811015610ed757848901518255600182019150602085019450602081019050610eb2565b86831015610ef45784890151610ef0601f891682610dfd565b8355505b6001600288020188555050505b505050505050565b7f4e487b7100000000000000000000000000000000000000000000000000000000600052601160045260246000fd5b6000610f43826107a5565b91507fffffffffffffffffffffffffffffffffffffffffffffffffffffffffffffffff8203610f7557610f74610f09565b5b60018201905091905056fea2646970667358221220db26c93a035d76815ddc2dbb855df17753c12b6501302dcaafcdcb1488348e9364736f6c63430008130033",
  "immutableReferences": {},
  "source": "// SPDX-License-Identifier: MIT\r\npragma solidity ^0.8.19;\r\n\r\ncontract EcommerceContract {\r\n    string public marketplaceName;\r\n    uint256 private productCount;\r\n\r\n    struct Product {\r\n        string id;\r\n        string name;\r\n        string description;\r\n        uint256 price;\r\n        uint256 stock;\r\n        string releaseDate;\r\n        string category;\r\n        string image;\r\n        bool exists;\r\n    }\r\n\r\n    mapping(uint256 => Product) private products;\r\n\r\n    constructor() {\r\n        marketplaceName = \"Ecomme Marketplace\";\r\n    }\r\n\r\n    function getNoOfProducts() public view returns (uint256) {\r\n        return productCount;\r\n    }\r\n\r\n    function registerProduct() public returns (uint256) {\r\n        productCount++;\r\n        return productCount;\r\n    }\r\n\r\n    function addProductInfo(\r\n        uint256 productId,\r\n        string memory _id,\r\n        string memory _name,\r\n        string memory _category,\r\n        string memory _releaseDate,\r\n        string memory _description,\r\n        uint256 _price,\r\n        uint256 _stock,\r\n        string memory _image\r\n    ) public {\r\n        require(productId > 0 && productId <= productCount, \"Invalid productId\");\r\n        products[productId] = Product({\r\n            id: _id,\r\n            name: _name,\r\n            description: _description,\r\n            price: _price,\r\n            stock: _stock,\r\n            releaseDate: _releaseDate,\r\n            category: _category,\r\n            image: _image,\r\n            exists: true\r\n        });\r\n    }\r\n\r\n    function getProductInfo(uint256 productId)\r\n        public\r\n        view\r\n        returns (\r\n            string memory id,\r\n            string memory name,\r\n            string memory category,\r\n            string memory releaseDate,\r\n            string memory description,\r\n            uint256 price,\r\n            uint256 stock,\r\n            string memory image,\r\n            bool exists\r\n        )\r\n    {\r\n        Product storage p = products[productId];\r\n        return (p.id, p.name, p.category, p.releaseDate, p.description, p.price, p.stock, p.image, p.exists);\r\n    }\r\n}\r\n",
  "sourcePath": "C:\\Users\\24035476\\OneDrive - Republic Polytechnic\\Documents\\Year-2, sems-2\\C373, Distributed Ledger Technology Solutioning\\C373, FA-GA\\GA\\contracts\\EcommerceContract.sol",
  "compiler": {
    "name": "solc",
    "version": "0.8.19+commit.7dd6d404.Emscripten.clang"
  },
  "schemaVersion": "3.4.16",
  "updatedAt": "2026-01-30T14:06:22.913Z",
  "devdoc": {
    "kind": "dev",
    "methods": {},
    "version": 1
  },
  "userdoc": {
    "kind": "user",
    "methods": {},
    "version": 1
  }
}