{
  "contractName": "LoyaltyToken",
  "abi": [
    {
      "inputs": [],
      "stateMutability": "nonpayable",
      "type": "constructor"
    },
    {
      "anonymous": false,
      "inputs": [
        {
          "indexed": true,
          "internalType": "address",
          "name": "tokenOwner",
          "type": "address"
        },
        {
          "indexed": true,
          "internalType": "address",
          "name": "spender",
          "type": "address"
        },
        {
          "indexed": false,
          "internalType": "uint256",
          "name": "value",
          "type": "uint256"
        }
      ],
      "name": "Approval",
      "type": "event"
    },
    {
      "anonymous": false,
      "inputs": [
        {
          "indexed": true,
          "internalType": "address",
          "name": "newMinter",
          "type": "address"
        }
      ],
      "name": "MinterUpdated",
      "type": "event"
    },
    {
      "anonymous": false,
      "inputs": [
        {
          "indexed": true,
          "internalType": "address",
          "name": "from",
          "type": "address"
        },
        {
          "indexed": true,
          "internalType": "address",
          "name": "to",
          "type": "address"
        },
        {
          "indexed": false,
          "internalType": "uint256",
          "name": "value",
          "type": "uint256"
        }
      ],
      "name": "Transfer",
      "type": "event"
    },
    {
      "inputs": [
        {
          "internalType": "address",
          "name": "",
          "type": "address"
        },
        {
          "internalType": "address",
          "name": "",
          "type": "address"
        }
      ],
      "name": "allowance",
      "outputs": [
        {
          "internalType": "uint256",
          "name": "",
          "type": "uint256"
        }
      ],
      "stateMutability": "view",
      "type": "function"
    },
    {
      "inputs": [
        {
          "internalType": "address",
          "name": "",
          "type": "address"
        }
      ],
      "name": "balanceOf",
      "outputs": [
        {
          "internalType": "uint256",
          "name": "",
          "type": "uint256"
        }
      ],
      "stateMutability": "view",
      "type": "function"
    },
    {
      "inputs": [],
      "name": "decimals",
      "outputs": [
        {
          "internalType": "uint8",
          "name": "",
          "type": "uint8"
        }
      ],
      "stateMutability": "view",
      "type": "function"
    },
    {
      "inputs": [],
      "name": "minter",
      "outputs": [
        {
          "internalType": "address",
          "name": "",
          "type": "address"
        }
      ],
      "stateMutability": "view",
      "type": "function"
    },
    {
      "inputs": [],
      "name": "name",
      "outputs": [
        {
          "internalType": "string",
          "name": "",
          "type": "string"
        }
      ],
      "stateMutability": "view",
      "type": "function"
    },
    {
      "inputs": [],
      "name": "owner",
      "outputs": [
        {
          "internalType": "address",
          "name": "",
          "type": "address"
        }
      ],
      "stateMutability": "view",
      "type": "function"
    },
    {
      "inputs": [],
      "name": "symbol",
      "outputs": [
        {
          "internalType": "string",
          "name": "",
          "type": "string"
        }
      ],
      "stateMutability": "view",
      "type": "function"
    },
    {
      "inputs": [],
      "name": "totalSupply",
      "outputs": [
        {
          "internalType": "uint256",
          "name": "",
          "type": "uint256"
        }
      ],
      "stateMutability": "view",
      "type": "function"
    },
    {
      "inputs": [
        {
          "internalType": "address",
          "name": "_minter",
          "type": "address"
        }
      ],
      "name": "setMinter",
      "outputs": [],
      "stateMutability": "nonpayable",
      "type": "function"
    },
    {
      "inputs": [
        {
          "internalType": "address",
          "name": "to",
          "type": "address"
        },
        {
          "internalType": "uint256",
          "name": "amount",
          "type": "uint256"
        }
      ],
      "name": "mint",
      "outputs": [],
      "stateMutability": "nonpayable",
      "type": "function"
    },
    {
      "inputs": [
        {
          "internalType": "address",
          "name": "to",
          "type": "address"
        },
        {
          "internalType": "uint256",
          "name": "amount",
          "type": "uint256"
        }
      ],
      "name": "transfer",
      "outputs": [
        {
          "internalType": "bool",
          "name": "",
          "type": "bool"
        }
      ],
      "stateMutability": "nonpayable",
      "type": "function"
    },
    {
      "inputs": [
        {
          "internalType": "address",
          "name": "spender",
          "type": "address"
        },
        {
          "internalType": "uint256",
          "name": "amount",
          "type": "uint256"
        }
      ],
      "name": "approve",
      "outputs": [
        {
          "internalType": "bool",
          "name": "",
          "type": "bool"
        }
      ],
      "stateMutability": "nonpayable",
      "type": "function"
    },
    {
      "inputs": [
        {
          "internalType": "address",
          "name": "from",
          "type": "address"
        },
        {
          "internalType": "address",
          "name": "to",
          "type": "address"
        },
        {
          "internalType": "uint256",
          "name": "amount",
          "type": "uint256"
        }
      ],
      "name": "transferFrom",
      "outputs": [
        {
          "internalType": "bool",
          "name": "",
          "type": "bool"
        }
      ],
      "stateMutability": "nonpayable",
      "type": "function"
    }
  ],
  "bytecode": "0x60806040526040518060400160405280600e81526020017f45636f6d6d652052657761726473000000000000000000000000000000000000815250600090816200004a9190620003be565b506040518060400160405280600481526020017f45434f4d0000000000000000000000000000000000000000000000000000000081525060019081620000919190620003be565b506012600260006101000a81548160ff021916908360ff160217905550348015620000bb57600080fd5b5033600460006101000a81548173ffffffffffffffffffffffffffffffffffffffff021916908373ffffffffffffffffffffffffffffffffffffffff16021790555033600560006101000a81548173ffffffffffffffffffffffffffffffffffffffff021916908373ffffffffffffffffffffffffffffffffffffffff160217905550620004a5565b600081519050919050565b7f4e487b7100000000000000000000000000000000000000000000000000000000600052604160045260246000fd5b7f4e487b7100000000000000000000000000000000000000000000000000000000600052602260045260246000fd5b60006002820490506001821680620001c657607f821691505b602082108103620001dc57620001db6200017e565b5b50919050565b60008190508160005260206000209050919050565b60006020601f8301049050919050565b600082821b905092915050565b600060088302620002467fffffffffffffffffffffffffffffffffffffffffffffffffffffffffffffffff8262000207565b62000252868362000207565b95508019841693508086168417925050509392505050565b6000819050919050565b6000819050919050565b60006200029f6200029962000293846200026a565b62000274565b6200026a565b9050919050565b6000819050919050565b620002bb836200027e565b620002d3620002ca82620002a6565b84845462000214565b825550505050565b600090565b620002ea620002db565b620002f7818484620002b0565b505050565b5b818110156200031f5762000313600082620002e0565b600181019050620002fd565b5050565b601f8211156200036e576200033881620001e2565b6200034384620001f7565b8101602085101562000353578190505b6200036b6200036285620001f7565b830182620002fc565b50505b505050565b600082821c905092915050565b6000620003936000198460080262000373565b1980831691505092915050565b6000620003ae838362000380565b9150826002028217905092915050565b620003c98262000144565b67ffffffffffffffff811115620003e557620003e46200014f565b5b620003f18254620001ad565b620003fe82828562000323565b600060209050601f83116001811462000436576000841562000421578287015190505b6200042d8582620003a0565b8655506200049d565b601f1984166200044686620001e2565b60005b82811015620004705784890151825560018201915060208501945060208101905062000449565b868310156200049057848901516200048c601f89168262000380565b8355505b6001600288020188555050505b505050505050565b61141080620004b56000396000f3fe608060405234801561001057600080fd5b50600436106100cf5760003560e01c806340c10f191161008c57806395d89b411161006657806395d89b4114610216578063a9059cbb14610234578063dd62ed3e14610264578063fca3b5aa14610294576100cf565b806340c10f19146101ac57806370a08231146101c85780638da5cb5b146101f8576100cf565b806306fdde03146100d457806307546172146100f2578063095ea7b31461011057806318160ddd1461014057806323b872dd1461015e578063313ce5671461018e575b600080fd5b6100dc6102b0565b6040516100e99190610ddf565b60405180910390f35b6100fa61033e565b6040516101079190610e42565b60405180910390f35b61012a60048036038101906101259190610ec4565b610364565b6040516101379190610f1f565b60405180910390f35b610148610456565b6040516101559190610f49565b60405180910390f35b61017860048036038101906101739190610f64565b61045c565b6040516101859190610f1f565b60405180910390f35b61019661074e565b6040516101a39190610fd3565b60405180910390f35b6101c660048036038101906101c19190610ec4565b610761565b005b6101e260048036038101906101dd9190610fee565b610939565b6040516101ef9190610f49565b60405180910390f35b610200610951565b60405161020d9190610e42565b60405180910390f35b61021e610977565b60405161022b9190610ddf565b60405180910390f35b61024e60048036038101906102499190610ec4565b610a05565b60405161025b9190610f1f565b60405180910390f35b61027e6004803603810190610279919061101b565b610ba4565b60405161028b9190610f49565b60405180910390f35b6102ae60048036038101906102a99190610fee565b610bc9565b005b600080546102bd9061108a565b80601f01602080910402602001604051908101604052809291908181526020018280546102e99061108a565b80156103365780601f1061030b57610100808354040283529160200191610336565b820191906000526020600020905b81548152906001019060200180831161031957829003601f168201915b505050505081565b600560009054906101000a900473ffffffffffffffffffffffffffffffffffffffff1681565b600081600760003373ffffffffffffffffffffffffffffffffffffffff1673ffffffffffffffffffffffffffffffffffffffff16815260200190815260200160002060008573ffffffffffffffffffffffffffffffffffffffff1673ffffffffffffffffffffffffffffffffffffffff168152602001908152602001600020819055508273ffffffffffffffffffffffffffffffffffffffff163373ffffffffffffffffffffffffffffffffffffffff167f8c5be1e5ebec7d5bd14f71427d1e84f3dd0314c0f7b2291e5b200ac8c7c3b925846040516104449190610f49565b60405180910390a36001905092915050565b60035481565b600081600660008673ffffffffffffffffffffffffffffffffffffffff1673ffffffffffffffffffffffffffffffffffffffff1681526020019081526020016000205410156104e0576040517f08c379a00000000000000000000000000000000000000000000000000000000081526004016104d790611107565b60405180910390fd5b81600760008673ffffffffffffffffffffffffffffffffffffffff1673ffffffffffffffffffffffffffffffffffffffff16815260200190815260200160002060003373ffffffffffffffffffffffffffffffffffffffff1673ffffffffffffffffffffffffffffffffffffffff16815260200190815260200160002054101561059f576040517f08c379a000000000000000000000000000000000000000000000000000000000815260040161059690611173565b60405180910390fd5b81600760008673ffffffffffffffffffffffffffffffffffffffff1673ffffffffffffffffffffffffffffffffffffffff16815260200190815260200160002060003373ffffffffffffffffffffffffffffffffffffffff1673ffffffffffffffffffffffffffffffffffffffff168152602001908152602001600020600082825461062b91906111c2565b9250508190555081600660008673ffffffffffffffffffffffffffffffffffffffff1673ffffffffffffffffffffffffffffffffffffffff168152602001908152602001600020600082825461068191906111c2565b9250508190555081600660008573ffffffffffffffffffffffffffffffffffffffff1673ffffffffffffffffffffffffffffffffffffffff16815260200190815260200160002060008282546106d791906111f6565b925050819055508273ffffffffffffffffffffffffffffffffffffffff168473ffffffffffffffffffffffffffffffffffffffff167fddf252ad1be2c89b69c2b068fc378daa952ba7f163c4a11628f55a4df523b3ef8460405161073b9190610f49565b60405180910390a3600190509392505050565b600260009054906101000a900460ff1681565b600560009054906101000a900473ffffffffffffffffffffffffffffffffffffffff1673ffffffffffffffffffffffffffffffffffffffff163373ffffffffffffffffffffffffffffffffffffffff16146107f1576040517f08c379a00000000000000000000000000000000000000000000000000000000081526004016107e890611276565b60405180910390fd5b600073ffffffffffffffffffffffffffffffffffffffff168273ffffffffffffffffffffffffffffffffffffffff1603610860576040517f08c379a0000000000000000000000000000000000000000000000000000000008152600401610857906112e2565b60405180910390fd5b806003600082825461087291906111f6565b9250508190555080600660008473ffffffffffffffffffffffffffffffffffffffff1673ffffffffffffffffffffffffffffffffffffffff16815260200190815260200160002060008282546108c891906111f6565b925050819055508173ffffffffffffffffffffffffffffffffffffffff16600073ffffffffffffffffffffffffffffffffffffffff167fddf252ad1be2c89b69c2b068fc378daa952ba7f163c4a11628f55a4df523b3ef8360405161092d9190610f49565b60405180910390a35050565b60066020528060005260406000206000915090505481565b600460009054906101000a900473ffffffffffffffffffffffffffffffffffffffff1681565b600180546109849061108a565b80601f01602080910402602001604051908101604052809291908181526020018280546109b09061108a565b80156109fd5780601f106109d2576101008083540402835291602001916109fd565b820191906000526020600020905b8154815290600101906020018083116109e057829003601f168201915b505050505081565b600081600660003373ffffffffffffffffffffffffffffffffffffffff1673ffffffffffffffffffffffffffffffffffffffff168152602001908152602001600020541015610a89576040517f08c379a0000000000000000000000000000000000000000000000000000000008152600401610a8090611107565b60405180910390fd5b81600660003373ffffffffffffffffffffffffffffffffffffffff1673ffffffffffffffffffffffffffffffffffffffff1681526020019081526020016000206000828254610ad891906111c2565b9250508190555081600660008573ffffffffffffffffffffffffffffffffffffffff1673ffffffffffffffffffffffffffffffffffffffff1681526020019081526020016000206000828254610b2e91906111f6565b925050819055508273ffffffffffffffffffffffffffffffffffffffff163373ffffffffffffffffffffffffffffffffffffffff167fddf252ad1be2c89b69c2b068fc378daa952ba7f163c4a11628f55a4df523b3ef84604051610b929190610f49565b60405180910390a36001905092915050565b6007602052816000526040600020602052806000526040600020600091509150505481565b600460009054906101000a900473ffffffffffffffffffffffffffffffffffffffff1673ffffffffffffffffffffffffffffffffffffffff163373ffffffffffffffffffffffffffffffffffffffff1614610c59576040517f08c379a0000000000000000000000000000000000000000000000000000000008152600401610c509061134e565b60405180910390fd5b600073ffffffffffffffffffffffffffffffffffffffff168173ffffffffffffffffffffffffffffffffffffffff1603610cc8576040517f08c379a0000000000000000000000000000000000000000000000000000000008152600401610cbf906113ba565b60405180910390fd5b80600560006101000a81548173ffffffffffffffffffffffffffffffffffffffff021916908373ffffffffffffffffffffffffffffffffffffffff1602179055508073ffffffffffffffffffffffffffffffffffffffff167fad0f299ec81a386c98df0ac27dae11dd020ed1b56963c53a7292e7a3a314539a60405160405180910390a250565b600081519050919050565b600082825260208201905092915050565b60005b83811015610d89578082015181840152602081019050610d6e565b60008484015250505050565b6000601f19601f8301169050919050565b6000610db182610d4f565b610dbb8185610d5a565b9350610dcb818560208601610d6b565b610dd481610d95565b840191505092915050565b60006020820190508181036000830152610df98184610da6565b905092915050565b600073ffffffffffffffffffffffffffffffffffffffff82169050919050565b6000610e2c82610e01565b9050919050565b610e3c81610e21565b82525050565b6000602082019050610e576000830184610e33565b92915050565b600080fd5b610e6b81610e21565b8114610e7657600080fd5b50565b600081359050610e8881610e62565b92915050565b6000819050919050565b610ea181610e8e565b8114610eac57600080fd5b50565b600081359050610ebe81610e98565b92915050565b60008060408385031215610edb57610eda610e5d565b5b6000610ee985828601610e79565b9250506020610efa85828601610eaf565b9150509250929050565b60008115159050919050565b610f1981610f04565b82525050565b6000602082019050610f346000830184610f10565b92915050565b610f4381610e8e565b82525050565b6000602082019050610f5e6000830184610f3a565b92915050565b600080600060608486031215610f7d57610f7c610e5d565b5b6000610f8b86828701610e79565b9350506020610f9c86828701610e79565b9250506040610fad86828701610eaf565b9150509250925092565b600060ff82169050919050565b610fcd81610fb7565b82525050565b6000602082019050610fe86000830184610fc4565b92915050565b60006020828403121561100457611003610e5d565b5b600061101284828501610e79565b91505092915050565b6000806040838503121561103257611031610e5d565b5b600061104085828601610e79565b925050602061105185828601610e79565b9150509250929050565b7f4e487b7100000000000000000000000000000000000000000000000000000000600052602260045260246000fd5b600060028204905060018216806110a257607f821691505b6020821081036110b5576110b461105b565b5b50919050565b7f496e73756666696369656e740000000000000000000000000000000000000000600082015250565b60006110f1600c83610d5a565b91506110fc826110bb565b602082019050919050565b60006020820190508181036000830152611120816110e4565b9050919050565b7f4e6f7420616c6c6f776564000000000000000000000000000000000000000000600082015250565b600061115d600b83610d5a565b915061116882611127565b602082019050919050565b6000602082019050818103600083015261118c81611150565b9050919050565b7f4e487b7100000000000000000000000000000000000000000000000000000000600052601160045260246000fd5b60006111cd82610e8e565b91506111d883610e8e565b92508282039050818111156111f0576111ef611193565b5b92915050565b600061120182610e8e565b915061120c83610e8e565b925082820190508082111561122457611223611193565b5b92915050565b7f4e6f74206d696e74657200000000000000000000000000000000000000000000600082015250565b6000611260600a83610d5a565b915061126b8261122a565b602082019050919050565b6000602082019050818103600083015261128f81611253565b9050919050565b7f42616420746f0000000000000000000000000000000000000000000000000000600082015250565b60006112cc600683610d5a565b91506112d782611296565b602082019050919050565b600060208201905081810360008301526112fb816112bf565b9050919050565b7f4e6f74206f776e65720000000000000000000000000000000000000000000000600082015250565b6000611338600983610d5a565b915061134382611302565b602082019050919050565b600060208201905081810360008301526113678161132b565b9050919050565b7f426164206d696e74657200000000000000000000000000000000000000000000600082015250565b60006113a4600a83610d5a565b91506113af8261136e565b602082019050919050565b600060208201905081810360008301526113d381611397565b905091905056fea2646970667358221220ea95864e5b9e98e0550733e0decd6148cf43ac1c2875adf95270e81c4309da6664736f6c63430008130033",
  "immutableReferences": {},
  "source": "// SPDX-License-Identifier: MIT\r\npragma solidity ^0.8.19;\r\n\r\n/*\r\nI declare that this code was written by me.\r\nI will not copy or allow others to copy my code.\r\nI understand that copying code is considered as plagiarism.\r\n\r\nStudent Name: Lin Yuhan\r\nStudent ID: 24023516\r\nClass: C003-03\r\nDate created: 28/01/2026\r\n*/\r\n\r\ncontract LoyaltyToken {\r\n    string public name = \"Ecomme Rewards\";\r\n    string public symbol = \"ECOM\";\r\n    uint8 public decimals = 18;\r\n\r\n    uint256 public totalSupply;\r\n\r\n    address public owner;\r\n    address public minter; // PaymentEscrow will become minter\r\n\r\n    mapping(address => uint256) public balanceOf;\r\n    mapping(address => mapping(address => uint256)) public allowance;\r\n\r\n    event Transfer(address indexed from, address indexed to, uint256 value);\r\n    event Approval(address indexed tokenOwner, address indexed spender, uint256 value);\r\n    event MinterUpdated(address indexed newMinter);\r\n\r\n    constructor() {\r\n        owner = msg.sender;\r\n        minter = msg.sender;\r\n    }\r\n\r\n    modifier onlyOwner() {\r\n        require(msg.sender == owner, \"Not owner\");\r\n        _;\r\n    }\r\n\r\n    modifier onlyMinter() {\r\n        require(msg.sender == minter, \"Not minter\");\r\n        _;\r\n    }\r\n\r\n    function setMinter(address _minter) external onlyOwner {\r\n        require(_minter != address(0), \"Bad minter\");\r\n        minter = _minter;\r\n        emit MinterUpdated(_minter);\r\n    }\r\n\r\n    function mint(address to, uint256 amount) external onlyMinter {\r\n        require(to != address(0), \"Bad to\");\r\n        totalSupply += amount;\r\n        balanceOf[to] += amount;\r\n        emit Transfer(address(0), to, amount);\r\n    }\r\n\r\n    function transfer(address to, uint256 amount) external returns (bool) {\r\n        require(balanceOf[msg.sender] >= amount, \"Insufficient\");\r\n        balanceOf[msg.sender] -= amount;\r\n        balanceOf[to] += amount;\r\n        emit Transfer(msg.sender, to, amount);\r\n        return true;\r\n    }\r\n\r\n    function approve(address spender, uint256 amount) external returns (bool) {\r\n        allowance[msg.sender][spender] = amount;\r\n        emit Approval(msg.sender, spender, amount);\r\n        return true;\r\n    }\r\n\r\n    function transferFrom(address from, address to, uint256 amount) external returns (bool) {\r\n        require(balanceOf[from] >= amount, \"Insufficient\");\r\n        require(allowance[from][msg.sender] >= amount, \"Not allowed\");\r\n        allowance[from][msg.sender] -= amount;\r\n        balanceOf[from] -= amount;\r\n        balanceOf[to] += amount;\r\n        emit Transfer(from, to, amount);\r\n        return true;\r\n    }\r\n}",
  "sourcePath": "C:\\Users\\24035476\\OneDrive - Republic Polytechnic\\Documents\\Year-2, sems-2\\C373, Distributed Ledger Technology Solutioning\\C373, FA-GA\\GA\\contracts\\LoyaltyToken.sol",
  "compiler": {
    "name": "solc",
    "version": "0.8.19+commit.7dd6d404.Emscripten.clang"
  },
  "schemaVersion": "3.4.16",
  "updatedAt": "2026-01-30T13:49:10.830Z",
  "devdoc": {
    "kind": "dev",
    "methods": {},
    "version": 1
  },
  "userdoc": {
    "kind": "user",
    "methods": {},
    "version": 1
  }
}