{
  "contractName": "PaymentEscrow",
  "abi": [
    {
      "inputs": [
        {
          "internalType": "address",
          "name": "tokenAddress",
          "type": "address"
        },
        {
          "internalType": "uint256",
          "name": "_rewardRate",
          "type": "uint256"
        }
      ],
      "stateMutability": "nonpayable",
      "type": "constructor"
    },
    {
      "anonymous": false,
      "inputs": [
        {
          "indexed": false,
          "internalType": "address",
          "name": "tokenAddress",
          "type": "address"
        },
        {
          "indexed": false,
          "internalType": "uint256",
          "name": "rewardRate",
          "type": "uint256"
        }
      ],
      "name": "LoyaltyConfigured",
      "type": "event"
    },
    {
      "anonymous": false,
      "inputs": [
        {
          "indexed": true,
          "internalType": "bytes32",
          "name": "orderHash",
          "type": "bytes32"
        },
        {
          "indexed": false,
          "internalType": "string",
          "name": "orderId",
          "type": "string"
        },
        {
          "indexed": true,
          "internalType": "address",
          "name": "buyer",
          "type": "address"
        },
        {
          "indexed": false,
          "internalType": "uint256",
          "name": "tokenAmount",
          "type": "uint256"
        }
      ],
      "name": "LoyaltyMinted",
      "type": "event"
    },
    {
      "anonymous": false,
      "inputs": [
        {
          "indexed": true,
          "internalType": "bytes32",
          "name": "orderHash",
          "type": "bytes32"
        },
        {
          "indexed": false,
          "internalType": "string",
          "name": "orderId",
          "type": "string"
        },
        {
          "indexed": true,
          "internalType": "address",
          "name": "buyer",
          "type": "address"
        },
        {
          "indexed": true,
          "internalType": "address",
          "name": "seller",
          "type": "address"
        },
        {
          "indexed": false,
          "internalType": "uint256",
          "name": "amountWei",
          "type": "uint256"
        }
      ],
      "name": "OrderCreated",
      "type": "event"
    },
    {
      "anonymous": false,
      "inputs": [
        {
          "indexed": true,
          "internalType": "bytes32",
          "name": "orderHash",
          "type": "bytes32"
        },
        {
          "indexed": false,
          "internalType": "string",
          "name": "orderId",
          "type": "string"
        },
        {
          "indexed": true,
          "internalType": "address",
          "name": "seller",
          "type": "address"
        },
        {
          "indexed": false,
          "internalType": "uint256",
          "name": "amountWei",
          "type": "uint256"
        }
      ],
      "name": "PaymentReleased",
      "type": "event"
    },
    {
      "anonymous": false,
      "inputs": [
        {
          "indexed": true,
          "internalType": "bytes32",
          "name": "orderHash",
          "type": "bytes32"
        },
        {
          "indexed": false,
          "internalType": "string",
          "name": "orderId",
          "type": "string"
        },
        {
          "indexed": true,
          "internalType": "address",
          "name": "buyer",
          "type": "address"
        },
        {
          "indexed": false,
          "internalType": "uint256",
          "name": "amountWei",
          "type": "uint256"
        }
      ],
      "name": "Refunded",
      "type": "event"
    },
    {
      "anonymous": false,
      "inputs": [
        {
          "indexed": true,
          "internalType": "address",
          "name": "staffAddress",
          "type": "address"
        },
        {
          "indexed": false,
          "internalType": "bool",
          "name": "allowed",
          "type": "bool"
        }
      ],
      "name": "StaffUpdated",
      "type": "event"
    },
    {
      "inputs": [],
      "name": "loyaltyToken",
      "outputs": [
        {
          "internalType": "contract LoyaltyToken",
          "name": "",
          "type": "address"
        }
      ],
      "stateMutability": "view",
      "type": "function"
    },
    {
      "inputs": [],
      "name": "owner",
      "outputs": [
        {
          "internalType": "address",
          "name": "",
          "type": "address"
        }
      ],
      "stateMutability": "view",
      "type": "function"
    },
    {
      "inputs": [],
      "name": "rewardRate",
      "outputs": [
        {
          "internalType": "uint256",
          "name": "",
          "type": "uint256"
        }
      ],
      "stateMutability": "view",
      "type": "function"
    },
    {
      "inputs": [
        {
          "internalType": "address",
          "name": "",
          "type": "address"
        }
      ],
      "name": "staff",
      "outputs": [
        {
          "internalType": "bool",
          "name": "",
          "type": "bool"
        }
      ],
      "stateMutability": "view",
      "type": "function"
    },
    {
      "inputs": [
        {
          "internalType": "string",
          "name": "orderId",
          "type": "string"
        },
        {
          "internalType": "address",
          "name": "seller",
          "type": "address"
        }
      ],
      "name": "createOrder",
      "outputs": [],
      "stateMutability": "payable",
      "type": "function"
    },
    {
      "inputs": [
        {
          "internalType": "string",
          "name": "orderId",
          "type": "string"
        }
      ],
      "name": "confirmDelivery",
      "outputs": [],
      "stateMutability": "nonpayable",
      "type": "function"
    },
    {
      "inputs": [
        {
          "internalType": "string",
          "name": "orderId",
          "type": "string"
        }
      ],
      "name": "refund",
      "outputs": [],
      "stateMutability": "nonpayable",
      "type": "function"
    },
    {
      "inputs": [
        {
          "internalType": "address",
          "name": "staffAddress",
          "type": "address"
        },
        {
          "internalType": "bool",
          "name": "allowed",
          "type": "bool"
        }
      ],
      "name": "setStaff",
      "outputs": [],
      "stateMutability": "nonpayable",
      "type": "function"
    },
    {
      "inputs": [
        {
          "internalType": "string",
          "name": "orderId",
          "type": "string"
        }
      ],
      "name": "getOrder",
      "outputs": [
        {
          "internalType": "address",
          "name": "buyer",
          "type": "address"
        },
        {
          "internalType": "address",
          "name": "seller",
          "type": "address"
        },
        {
          "internalType": "uint256",
          "name": "amountWei",
          "type": "uint256"
        },
        {
          "internalType": "uint8",
          "name": "status",
          "type": "uint8"
        },
        {
          "internalType": "uint256",
          "name": "createdAt",
          "type": "uint256"
        }
      ],
      "stateMutability": "view",
      "type": "function"
    }
  ],
  "bytecode": "0x60806040523480156200001157600080fd5b50604051620020ac380380620020ac833981810160405281019062000037919062000270565b600073ffffffffffffffffffffffffffffffffffffffff168273ffffffffffffffffffffffffffffffffffffffff1603620000a9576040517f08c379a0000000000000000000000000000000000000000000000000000000008152600401620000a09062000318565b60405180910390fd5b336000806101000a81548173ffffffffffffffffffffffffffffffffffffffff021916908373ffffffffffffffffffffffffffffffffffffffff16021790555060018060003373ffffffffffffffffffffffffffffffffffffffff1673ffffffffffffffffffffffffffffffffffffffff16815260200190815260200160002060006101000a81548160ff02191690831515021790555081600260006101000a81548173ffffffffffffffffffffffffffffffffffffffff021916908373ffffffffffffffffffffffffffffffffffffffff160217905550806003819055507f2e9ced88f3292a818ac1f71ff3b9805c4450eac066a82ffbe372b8e07da638048282604051620001bb9291906200035c565b60405180910390a1505062000389565b600080fd5b600073ffffffffffffffffffffffffffffffffffffffff82169050919050565b6000620001fd82620001d0565b9050919050565b6200020f81620001f0565b81146200021b57600080fd5b50565b6000815190506200022f8162000204565b92915050565b6000819050919050565b6200024a8162000235565b81146200025657600080fd5b50565b6000815190506200026a816200023f565b92915050565b600080604083850312156200028a5762000289620001cb565b5b60006200029a858286016200021e565b9250506020620002ad8582860162000259565b9150509250929050565b600082825260208201905092915050565b7f496e76616c696420746f6b656e00000000000000000000000000000000000000600082015250565b600062000300600d83620002b7565b91506200030d82620002c8565b602082019050919050565b600060208201905081810360008301526200033381620002f1565b9050919050565b6200034581620001f0565b82525050565b620003568162000235565b82525050565b60006040820190506200037360008301856200033a565b6200038260208301846200034b565b9392505050565b611d1380620003996000396000f3fe6080604052600436106100865760003560e01c80637b0a47ee116100595780637b0a47ee1461015d5780638da5cb5b146101885780639453f767146101b3578063a4506460146101cf578063fe5f2e88146101f857610086565b8063328d13e31461008b5780634f83158a146100b4578063712ca0f8146100f1578063770aa84d14610132575b600080fd5b34801561009757600080fd5b506100b260048036038101906100ad9190611256565b610221565b005b3480156100c057600080fd5b506100db60048036038101906100d69190611296565b6103c7565b6040516100e891906112d2565b60405180910390f35b3480156100fd57600080fd5b5061011860048036038101906101139190611352565b6103e7565b6040516101299594939291906113e3565b60405180910390f35b34801561013e57600080fd5b5061014761059d565b6040516101549190611495565b60405180910390f35b34801561016957600080fd5b506101726105c3565b60405161017f91906114b0565b60405180910390f35b34801561019457600080fd5b5061019d6105c9565b6040516101aa91906114cb565b60405180910390f35b6101cd60048036038101906101c891906114e6565b6105ed565b005b3480156101db57600080fd5b506101f660048036038101906101f19190611352565b610938565b005b34801561020457600080fd5b5061021f600480360381019061021a9190611352565b610e0b565b005b60008054906101000a900473ffffffffffffffffffffffffffffffffffffffff1673ffffffffffffffffffffffffffffffffffffffff163373ffffffffffffffffffffffffffffffffffffffff16146102af576040517f08c379a00000000000000000000000000000000000000000000000000000000081526004016102a6906115a3565b60405180910390fd5b600073ffffffffffffffffffffffffffffffffffffffff168273ffffffffffffffffffffffffffffffffffffffff160361031e576040517f08c379a00000000000000000000000000000000000000000000000000000000081526004016103159061160f565b60405180910390fd5b80600160008473ffffffffffffffffffffffffffffffffffffffff1673ffffffffffffffffffffffffffffffffffffffff16815260200190815260200160002060006101000a81548160ff0219169083151502179055508173ffffffffffffffffffffffffffffffffffffffff167fa00d35df0d454f9707023be585b77e413aef3baf6d4bd2d655c9b57d0fc533a1826040516103bb91906112d2565b60405180910390a25050565b60016020528060005260406000206000915054906101000a900460ff1681565b60008060008060008061043d88888080601f016020809104026020016040519081016040528093929190818152602001838380828437600081840152601f19601f82011690508083019250505050505050611186565b90506000600460008381526020019081526020016000206040518060a00160405290816000820160009054906101000a900473ffffffffffffffffffffffffffffffffffffffff1673ffffffffffffffffffffffffffffffffffffffff1673ffffffffffffffffffffffffffffffffffffffff1681526020016001820160009054906101000a900473ffffffffffffffffffffffffffffffffffffffff1673ffffffffffffffffffffffffffffffffffffffff1673ffffffffffffffffffffffffffffffffffffffff168152602001600282015481526020016003820160009054906101000a900460ff16600381111561053a5761053961162f565b5b600381111561054c5761054b61162f565b5b81526020016004820154815250509050806000015181602001518260400151836060015160038111156105825761058161162f565b5b84608001519650965096509650965050509295509295909350565b600260009054906101000a900473ffffffffffffffffffffffffffffffffffffffff1681565b60035481565b60008054906101000a900473ffffffffffffffffffffffffffffffffffffffff1681565b600073ffffffffffffffffffffffffffffffffffffffff168173ffffffffffffffffffffffffffffffffffffffff160361065c576040517f08c379a0000000000000000000000000000000000000000000000000000000008152600401610653906116aa565b60405180910390fd5b6000341161069f576040517f08c379a000000000000000000000000000000000000000000000000000000000815260040161069690611716565b60405180910390fd5b60006106ee84848080601f016020809104026020016040519081016040528093929190818152602001838380828437600081840152601f19601f82011690508083019250505050505050611186565b9050600060038111156107045761070361162f565b5b6004600083815260200190815260200160002060030160009054906101000a900460ff16600381111561073a5761073961162f565b5b1461077a576040517f08c379a000000000000000000000000000000000000000000000000000000000815260040161077190611782565b60405180910390fd5b6040518060a001604052803373ffffffffffffffffffffffffffffffffffffffff1681526020018373ffffffffffffffffffffffffffffffffffffffff168152602001348152602001600160038111156107d7576107d661162f565b5b8152602001428152506004600083815260200190815260200160002060008201518160000160006101000a81548173ffffffffffffffffffffffffffffffffffffffff021916908373ffffffffffffffffffffffffffffffffffffffff16021790555060208201518160010160006101000a81548173ffffffffffffffffffffffffffffffffffffffff021916908373ffffffffffffffffffffffffffffffffffffffff1602179055506040820151816002015560608201518160030160006101000a81548160ff021916908360038111156108b6576108b561162f565b5b0217905550608082015181600401559050508173ffffffffffffffffffffffffffffffffffffffff163373ffffffffffffffffffffffffffffffffffffffff16827fe89555c2ac9920f3947a90510a3d4899562558b3159223b6808c5f05d9292dcd87873460405161092a939291906117ef565b60405180910390a450505050565b600560009054906101000a900460ff1615610988576040517f08c379a000000000000000000000000000000000000000000000000000000000815260040161097f9061186d565b60405180910390fd5b6001600560006101000a81548160ff021916908315150217905550600160003373ffffffffffffffffffffffffffffffffffffffff1673ffffffffffffffffffffffffffffffffffffffff16815260200190815260200160002060009054906101000a900460ff16610a2f576040517f08c379a0000000000000000000000000000000000000000000000000000000008152600401610a26906118d9565b60405180910390fd5b6000610a7e83838080601f016020809104026020016040519081016040528093929190818152602001838380828437600081840152601f19601f82011690508083019250505050505050611186565b9050600060046000838152602001908152602001600020905060016003811115610aab57610aaa61162f565b5b8160030160009054906101000a900460ff166003811115610acf57610ace61162f565b5b14610b0f576040517f08c379a0000000000000000000000000000000000000000000000000000000008152600401610b0690611945565b60405180910390fd5b60028160030160006101000a81548160ff02191690836003811115610b3757610b3661162f565b5b021790555060008160010160009054906101000a900473ffffffffffffffffffffffffffffffffffffffff1673ffffffffffffffffffffffffffffffffffffffff168260020154604051610b8a90611996565b60006040518083038185875af1925050503d8060008114610bc7576040519150601f19603f3d011682016040523d82523d6000602084013e610bcc565b606091505b5050905080610c10576040517f08c379a0000000000000000000000000000000000000000000000000000000008152600401610c07906119f7565b60405180910390fd5b8160010160009054906101000a900473ffffffffffffffffffffffffffffffffffffffff1673ffffffffffffffffffffffffffffffffffffffff16837f01a5301d5c0c3f2a31f9a73346d669fbfb5288aa263db0800b83506c9d04faa887878660020154604051610c83939291906117ef565b60405180910390a36000670de0b6b3a76400006003548460020154610ca89190611a46565b610cb29190611ab7565b90506000811115610de857600260009054906101000a900473ffffffffffffffffffffffffffffffffffffffff1673ffffffffffffffffffffffffffffffffffffffff166340c10f198460000160009054906101000a900473ffffffffffffffffffffffffffffffffffffffff16836040518363ffffffff1660e01b8152600401610d3e929190611ae8565b600060405180830381600087803b158015610d5857600080fd5b505af1158015610d6c573d6000803e3d6000fd5b505050508260000160009054906101000a900473ffffffffffffffffffffffffffffffffffffffff1673ffffffffffffffffffffffffffffffffffffffff16847ff8986525c80cf2d42b7c1cd83915d42e6f699ba112d21c9c302821cdc54e5042888885604051610ddf939291906117ef565b60405180910390a35b505050506000600560006101000a81548160ff0219169083151502179055505050565b600560009054906101000a900460ff1615610e5b576040517f08c379a0000000000000000000000000000000000000000000000000000000008152600401610e529061186d565b60405180910390fd5b6001600560006101000a81548160ff0219169083151502179055506000610ec583838080601f016020809104026020016040519081016040528093929190818152602001838380828437600081840152601f19601f82011690508083019250505050505050611186565b9050600060046000838152602001908152602001600020905060016003811115610ef257610ef161162f565b5b8160030160009054906101000a900460ff166003811115610f1657610f1561162f565b5b14610f56576040517f08c379a0000000000000000000000000000000000000000000000000000000008152600401610f4d90611b5d565b60405180910390fd5b8060000160009054906101000a900473ffffffffffffffffffffffffffffffffffffffff1673ffffffffffffffffffffffffffffffffffffffff163373ffffffffffffffffffffffffffffffffffffffff1614610fe8576040517f08c379a0000000000000000000000000000000000000000000000000000000008152600401610fdf90611bc9565b60405180910390fd5b60038160030160006101000a81548160ff021916908360038111156110105761100f61162f565b5b021790555060008160000160009054906101000a900473ffffffffffffffffffffffffffffffffffffffff1673ffffffffffffffffffffffffffffffffffffffff16826002015460405161106390611996565b60006040518083038185875af1925050503d80600081146110a0576040519150601f19603f3d011682016040523d82523d6000602084013e6110a5565b606091505b50509050806110e9576040517f08c379a00000000000000000000000000000000000000000000000000000000081526004016110e090611c35565b60405180910390fd5b8160000160009054906101000a900473ffffffffffffffffffffffffffffffffffffffff1673ffffffffffffffffffffffffffffffffffffffff16837f22077269dba2381c1c1211c03e83c5966f7fed3c441ca21bbf82a28014ff73108787866002015460405161115c939291906117ef565b60405180910390a35050506000600560006101000a81548160ff0219169083151502179055505050565b6000816040516020016111999190611cc6565b604051602081830303815290604052805190602001209050919050565b600080fd5b600080fd5b600073ffffffffffffffffffffffffffffffffffffffff82169050919050565b60006111eb826111c0565b9050919050565b6111fb816111e0565b811461120657600080fd5b50565b600081359050611218816111f2565b92915050565b60008115159050919050565b6112338161121e565b811461123e57600080fd5b50565b6000813590506112508161122a565b92915050565b6000806040838503121561126d5761126c6111b6565b5b600061127b85828601611209565b925050602061128c85828601611241565b9150509250929050565b6000602082840312156112ac576112ab6111b6565b5b60006112ba84828501611209565b91505092915050565b6112cc8161121e565b82525050565b60006020820190506112e760008301846112c3565b92915050565b600080fd5b600080fd5b600080fd5b60008083601f840112611312576113116112ed565b5b8235905067ffffffffffffffff81111561132f5761132e6112f2565b5b60208301915083600182028301111561134b5761134a6112f7565b5b9250929050565b60008060208385031215611369576113686111b6565b5b600083013567ffffffffffffffff811115611387576113866111bb565b5b611393858286016112fc565b92509250509250929050565b6113a8816111e0565b82525050565b6000819050919050565b6113c1816113ae565b82525050565b600060ff82169050919050565b6113dd816113c7565b82525050565b600060a0820190506113f8600083018861139f565b611405602083018761139f565b61141260408301866113b8565b61141f60608301856113d4565b61142c60808301846113b8565b9695505050505050565b6000819050919050565b600061145b611456611451846111c0565b611436565b6111c0565b9050919050565b600061146d82611440565b9050919050565b600061147f82611462565b9050919050565b61148f81611474565b82525050565b60006020820190506114aa6000830184611486565b92915050565b60006020820190506114c560008301846113b8565b92915050565b60006020820190506114e0600083018461139f565b92915050565b6000806000604084860312156114ff576114fe6111b6565b5b600084013567ffffffffffffffff81111561151d5761151c6111bb565b5b611529868287016112fc565b9350935050602061153c86828701611209565b9150509250925092565b600082825260208201905092915050565b7f4f6e6c79206f776e657200000000000000000000000000000000000000000000600082015250565b600061158d600a83611546565b915061159882611557565b602082019050919050565b600060208201905081810360008301526115bc81611580565b9050919050565b7f496e76616c696420737461666600000000000000000000000000000000000000600082015250565b60006115f9600d83611546565b9150611604826115c3565b602082019050919050565b60006020820190508181036000830152611628816115ec565b9050919050565b7f4e487b7100000000000000000000000000000000000000000000000000000000600052602160045260246000fd5b7f496e76616c69642073656c6c6572000000000000000000000000000000000000600082015250565b6000611694600e83611546565b915061169f8261165e565b602082019050919050565b600060208201905081810360008301526116c381611687565b9050919050565b7f5061796d656e7420726571756972656400000000000000000000000000000000600082015250565b6000611700601083611546565b915061170b826116ca565b602082019050919050565b6000602082019050818103600083015261172f816116f3565b9050919050565b7f4f72646572206578697374730000000000000000000000000000000000000000600082015250565b600061176c600c83611546565b915061177782611736565b602082019050919050565b6000602082019050818103600083015261179b8161175f565b9050919050565b82818337600083830152505050565b6000601f19601f8301169050919050565b60006117ce8385611546565b93506117db8385846117a2565b6117e4836117b1565b840190509392505050565b6000604082019050818103600083015261180a8185876117c2565b905061181960208301846113b8565b949350505050565b7f5265656e7472616e637920626c6f636b65640000000000000000000000000000600082015250565b6000611857601283611546565b915061186282611821565b602082019050919050565b600060208201905081810360008301526118868161184a565b9050919050565b7f4f6e6c7920737461666600000000000000000000000000000000000000000000600082015250565b60006118c3600a83611546565b91506118ce8261188d565b602082019050919050565b600060208201905081810360008301526118f2816118b6565b9050919050565b7f4e6f7420696e20657363726f7700000000000000000000000000000000000000600082015250565b600061192f600d83611546565b915061193a826118f9565b602082019050919050565b6000602082019050818103600083015261195e81611922565b9050919050565b600081905092915050565b50565b6000611980600083611965565b915061198b82611970565b600082019050919050565b60006119a182611973565b9150819050919050565b7f5472616e73666572206661696c65640000000000000000000000000000000000600082015250565b60006119e1600f83611546565b91506119ec826119ab565b602082019050919050565b60006020820190508181036000830152611a10816119d4565b9050919050565b7f4e487b7100000000000000000000000000000000000000000000000000000000600052601160045260246000fd5b6000611a51826113ae565b9150611a5c836113ae565b9250828202611a6a816113ae565b91508282048414831517611a8157611a80611a17565b5b5092915050565b7f4e487b7100000000000000000000000000000000000000000000000000000000600052601260045260246000fd5b6000611ac2826113ae565b9150611acd836113ae565b925082611add57611adc611a88565b5b828204905092915050565b6000604082019050611afd600083018561139f565b611b0a60208301846113b8565b9392505050565b7f526566756e64206e6f7420616c6c6f7765640000000000000000000000000000600082015250565b6000611b47601283611546565b9150611b5282611b11565b602082019050919050565b60006020820190508181036000830152611b7681611b3a565b9050919050565b7f4f6e6c7920627579657200000000000000000000000000000000000000000000600082015250565b6000611bb3600a83611546565b9150611bbe82611b7d565b602082019050919050565b60006020820190508181036000830152611be281611ba6565b9050919050565b7f526566756e64206661696c656400000000000000000000000000000000000000600082015250565b6000611c1f600d83611546565b9150611c2a82611be9565b602082019050919050565b60006020820190508181036000830152611c4e81611c12565b9050919050565b600081519050919050565b600081905092915050565b60005b83811015611c89578082015181840152602081019050611c6e565b60008484015250505050565b6000611ca082611c55565b611caa8185611c60565b9350611cba818560208601611c6b565b80840191505092915050565b6000611cd28284611c95565b91508190509291505056fea2646970667358221220ae3296cdd4043457eb888b4a7f88b4714f877481261cae005c0a3d3f31b150d364736f6c63430008130033",
  "immutableReferences": {},
  "source": "// SPDX-License-Identifier: MIT\r\npragma solidity ^0.8.19;\r\n\r\n/*\r\nI declare that this code was written by me.\r\nI will not copy or allow others to copy my code.\r\nI understand that copying code is considered as plagiarism.\r\n\r\nStudent Name: Mizyana Binte Mansoor Ali\r\nStudent ID: 24030289\r\nClass: C003-03\r\nDate created: 23/01/2026\r\n*/\r\n\r\nimport \"./LoyaltyToken.sol\";\r\n\r\ncontract PaymentEscrow {\r\n    address public owner;\r\n    mapping(address => bool) public staff;\r\n\r\n    // Loyalty rewards\r\n        LoyaltyToken public loyaltyToken;\r\n        uint256 public rewardRate; // tokens per 1 ETH, scaled to 18 decimals (e.g., 1000 * 1e18)\r\n\r\n    enum OrderStatus {\r\n        None,        // 0\r\n        FundsLocked, // 1\r\n        Released,    // 2\r\n        Refunded     // 3\r\n    }\r\n\r\n    struct Order {\r\n        address buyer;\r\n        address seller;\r\n        uint256 amountWei;\r\n        OrderStatus status;\r\n        uint256 createdAt;\r\n    }\r\n\r\n    mapping(bytes32 => Order) private orders;\r\n\r\n    event OrderCreated(bytes32 indexed orderHash, string orderId, address indexed buyer, address indexed seller, uint256 amountWei);\r\n    event PaymentReleased(bytes32 indexed orderHash, string orderId, address indexed seller, uint256 amountWei);\r\n    event Refunded(bytes32 indexed orderHash, string orderId, address indexed buyer, uint256 amountWei);\r\n    event StaffUpdated(address indexed staffAddress, bool allowed);\r\n\r\n    // Loyalty events\r\n    event LoyaltyConfigured(address tokenAddress, uint256 rewardRate);\r\n    event LoyaltyMinted(bytes32 indexed orderHash, string orderId, address indexed buyer, uint256 tokenAmount);\r\n\r\n    bool private locked;\r\n    modifier nonReentrant() {\r\n        require(!locked, \"Reentrancy blocked\");\r\n        locked = true;\r\n        _;\r\n        locked = false;\r\n    }\r\n\r\n    modifier onlyOwner() {\r\n        require(msg.sender == owner, \"Only owner\");\r\n        _;\r\n    }\r\n\r\n    modifier onlyStaff() {\r\n        require(staff[msg.sender], \"Only staff\");\r\n        _;\r\n    }\r\n\r\n    constructor(address tokenAddress, uint256 _rewardRate) {\r\n    require(tokenAddress != address(0), \"Invalid token\");\r\n\r\n    owner = msg.sender;\r\n    staff[msg.sender] = true; // owner is default staff\r\n\r\n    loyaltyToken = LoyaltyToken(tokenAddress);\r\n    rewardRate = _rewardRate;\r\n\r\n    emit LoyaltyConfigured(tokenAddress, _rewardRate);\r\n    }\r\n\r\n    function _hash(string memory orderId) internal pure returns (bytes32) {\r\n        return keccak256(abi.encodePacked(orderId));\r\n    }\r\n\r\n    // Buyer locks funds into escrow (contract holds ETH)\r\n    function createOrder(string calldata orderId, address seller) external payable {\r\n        require(seller != address(0), \"Invalid seller\");\r\n        require(msg.value > 0, \"Payment required\");\r\n\r\n        bytes32 orderHash = _hash(orderId);\r\n        require(orders[orderHash].status == OrderStatus.None, \"Order exists\");\r\n\r\n        orders[orderHash] = Order({\r\n            buyer: msg.sender,\r\n            seller: seller,\r\n            amountWei: msg.value,\r\n            status: OrderStatus.FundsLocked,\r\n            createdAt: block.timestamp\r\n        });\r\n\r\n        emit OrderCreated(orderHash, orderId, msg.sender, seller, msg.value);\r\n    }\r\n\r\n    // Delivery confirmed by staff -> release funds to seller\r\n    function confirmDelivery(string calldata orderId) external nonReentrant onlyStaff {\r\n        bytes32 orderHash = _hash(orderId);\r\n        Order storage o = orders[orderHash];\r\n\r\n        require(o.status == OrderStatus.FundsLocked, \"Not in escrow\");\r\n\r\n        o.status = OrderStatus.Released;\r\n        (bool ok, ) = o.seller.call{value: o.amountWei}(\"\");\r\n        require(ok, \"Transfer failed\");\r\n\r\n        emit PaymentReleased(orderHash, orderId, o.seller, o.amountWei);\r\n        \r\n        // Mint loyalty tokens to buyer after successful delivery confirmation\r\n        uint256 tokenAmount = (o.amountWei * rewardRate) / 1e18;\r\n\r\n        if (tokenAmount > 0) {\r\n            loyaltyToken.mint(o.buyer, tokenAmount);\r\n            emit LoyaltyMinted(orderHash, orderId, o.buyer, tokenAmount);\r\n        }\r\n\r\n    }\r\n\r\n\r\n    // Optional: refund before delivery confirmation\r\n    function refund(string calldata orderId) external nonReentrant {\r\n        bytes32 orderHash = _hash(orderId);\r\n        Order storage o = orders[orderHash];\r\n\r\n        require(o.status == OrderStatus.FundsLocked, \"Refund not allowed\");\r\n        require(msg.sender == o.buyer, \"Only buyer\");\r\n\r\n        o.status = OrderStatus.Refunded;\r\n        (bool ok, ) = o.buyer.call{value: o.amountWei}(\"\");\r\n        require(ok, \"Refund failed\");\r\n\r\n        emit Refunded(orderHash, orderId, o.buyer, o.amountWei);\r\n    }\r\n\r\n    function setStaff(address staffAddress, bool allowed) external onlyOwner {\r\n        require(staffAddress != address(0), \"Invalid staff\");\r\n        staff[staffAddress] = allowed;\r\n        emit StaffUpdated(staffAddress, allowed);\r\n    }\r\n\r\n    // Read order state for UI\r\n    function getOrder(string calldata orderId)\r\n        external\r\n        view\r\n        returns (address buyer, address seller, uint256 amountWei, uint8 status, uint256 createdAt)\r\n    {\r\n        bytes32 orderHash = _hash(orderId);\r\n        Order memory o = orders[orderHash];\r\n        return (o.buyer, o.seller, o.amountWei, uint8(o.status), o.createdAt);\r\n    }\r\n}\r\n",
  "sourcePath": "C:\\Users\\24023516\\GA\\contracts\\PaymentEscrow.sol",
  "compiler": {
    "name": "solc",
    "version": "0.8.19+commit.7dd6d404.Emscripten.clang"
  },
  "schemaVersion": "3.4.16",
  "updatedAt": "2026-01-28T11:19:36.992Z",
  "devdoc": {
    "kind": "dev",
    "methods": {},
    "version": 1
  },
  "userdoc": {
    "kind": "user",
    "methods": {},
    "version": 1
  }
}