{
  "contractName": "PaymentEscrow",
  "abi": [
    {
      "inputs": [],
      "stateMutability": "nonpayable",
      "type": "constructor"
    },
    {
      "anonymous": false,
      "inputs": [
        {
          "indexed": true,
          "internalType": "bytes32",
          "name": "orderHash",
          "type": "bytes32"
        },
        {
          "indexed": false,
          "internalType": "string",
          "name": "orderId",
          "type": "string"
        },
        {
          "indexed": true,
          "internalType": "address",
          "name": "buyer",
          "type": "address"
        },
        {
          "indexed": true,
          "internalType": "address",
          "name": "seller",
          "type": "address"
        },
        {
          "indexed": false,
          "internalType": "uint256",
          "name": "amountWei",
          "type": "uint256"
        }
      ],
      "name": "OrderCreated",
      "type": "event"
    },
    {
      "anonymous": false,
      "inputs": [
        {
          "indexed": true,
          "internalType": "bytes32",
          "name": "orderHash",
          "type": "bytes32"
        },
        {
          "indexed": false,
          "internalType": "string",
          "name": "orderId",
          "type": "string"
        },
        {
          "indexed": true,
          "internalType": "address",
          "name": "seller",
          "type": "address"
        },
        {
          "indexed": false,
          "internalType": "uint256",
          "name": "amountWei",
          "type": "uint256"
        }
      ],
      "name": "PaymentReleased",
      "type": "event"
    },
    {
      "anonymous": false,
      "inputs": [
        {
          "indexed": true,
          "internalType": "bytes32",
          "name": "orderHash",
          "type": "bytes32"
        },
        {
          "indexed": false,
          "internalType": "string",
          "name": "orderId",
          "type": "string"
        },
        {
          "indexed": true,
          "internalType": "address",
          "name": "buyer",
          "type": "address"
        },
        {
          "indexed": false,
          "internalType": "uint256",
          "name": "amountWei",
          "type": "uint256"
        }
      ],
      "name": "Refunded",
      "type": "event"
    },
    {
      "anonymous": false,
      "inputs": [
        {
          "indexed": true,
          "internalType": "address",
          "name": "staffAddress",
          "type": "address"
        },
        {
          "indexed": false,
          "internalType": "bool",
          "name": "allowed",
          "type": "bool"
        }
      ],
      "name": "StaffUpdated",
      "type": "event"
    },
    {
      "inputs": [],
      "name": "owner",
      "outputs": [
        {
          "internalType": "address",
          "name": "",
          "type": "address"
        }
      ],
      "stateMutability": "view",
      "type": "function"
    },
    {
      "inputs": [
        {
          "internalType": "address",
          "name": "",
          "type": "address"
        }
      ],
      "name": "staff",
      "outputs": [
        {
          "internalType": "bool",
          "name": "",
          "type": "bool"
        }
      ],
      "stateMutability": "view",
      "type": "function"
    },
    {
      "inputs": [
        {
          "internalType": "string",
          "name": "orderId",
          "type": "string"
        },
        {
          "internalType": "address",
          "name": "seller",
          "type": "address"
        }
      ],
      "name": "createOrder",
      "outputs": [],
      "stateMutability": "payable",
      "type": "function"
    },
    {
      "inputs": [
        {
          "internalType": "string",
          "name": "orderId",
          "type": "string"
        }
      ],
      "name": "confirmDelivery",
      "outputs": [],
      "stateMutability": "nonpayable",
      "type": "function"
    },
    {
      "inputs": [
        {
          "internalType": "string",
          "name": "orderId",
          "type": "string"
        }
      ],
      "name": "refund",
      "outputs": [],
      "stateMutability": "nonpayable",
      "type": "function"
    },
    {
      "inputs": [
        {
          "internalType": "address",
          "name": "staffAddress",
          "type": "address"
        },
        {
          "internalType": "bool",
          "name": "allowed",
          "type": "bool"
        }
      ],
      "name": "setStaff",
      "outputs": [],
      "stateMutability": "nonpayable",
      "type": "function"
    },
    {
      "inputs": [
        {
          "internalType": "string",
          "name": "orderId",
          "type": "string"
        }
      ],
      "name": "getOrder",
      "outputs": [
        {
          "internalType": "address",
          "name": "buyer",
          "type": "address"
        },
        {
          "internalType": "address",
          "name": "seller",
          "type": "address"
        },
        {
          "internalType": "uint256",
          "name": "amountWei",
          "type": "uint256"
        },
        {
          "internalType": "uint8",
          "name": "status",
          "type": "uint8"
        },
        {
          "internalType": "uint256",
          "name": "createdAt",
          "type": "uint256"
        }
      ],
      "stateMutability": "view",
      "type": "function"
    }
  ],
  "bytecode": "0x608060405234801561001057600080fd5b50336000806101000a81548173ffffffffffffffffffffffffffffffffffffffff021916908373ffffffffffffffffffffffffffffffffffffffff16021790555060018060003373ffffffffffffffffffffffffffffffffffffffff1673ffffffffffffffffffffffffffffffffffffffff16815260200190815260200160002060006101000a81548160ff02191690831515021790555061198e806100b76000396000f3fe6080604052600436106100705760003560e01c80638da5cb5b1161004e5780638da5cb5b1461011c5780639453f76714610147578063a450646014610163578063fe5f2e881461018c57610070565b8063328d13e3146100755780634f83158a1461009e578063712ca0f8146100db575b600080fd5b34801561008157600080fd5b5061009c60048036038101906100979190611060565b6101b5565b005b3480156100aa57600080fd5b506100c560048036038101906100c091906110a0565b61035b565b6040516100d291906110dc565b60405180910390f35b3480156100e757600080fd5b5061010260048036038101906100fd919061115c565b61037b565b6040516101139594939291906111ed565b60405180910390f35b34801561012857600080fd5b50610131610531565b60405161013e9190611240565b60405180910390f35b610161600480360381019061015c919061125b565b610555565b005b34801561016f57600080fd5b5061018a6004803603810190610185919061115c565b6108a0565b005b34801561019857600080fd5b506101b360048036038101906101ae919061115c565b610c15565b005b60008054906101000a900473ffffffffffffffffffffffffffffffffffffffff1673ffffffffffffffffffffffffffffffffffffffff163373ffffffffffffffffffffffffffffffffffffffff1614610243576040517f08c379a000000000000000000000000000000000000000000000000000000000815260040161023a90611318565b60405180910390fd5b600073ffffffffffffffffffffffffffffffffffffffff168273ffffffffffffffffffffffffffffffffffffffff16036102b2576040517f08c379a00000000000000000000000000000000000000000000000000000000081526004016102a990611384565b60405180910390fd5b80600160008473ffffffffffffffffffffffffffffffffffffffff1673ffffffffffffffffffffffffffffffffffffffff16815260200190815260200160002060006101000a81548160ff0219169083151502179055508173ffffffffffffffffffffffffffffffffffffffff167fa00d35df0d454f9707023be585b77e413aef3baf6d4bd2d655c9b57d0fc533a18260405161034f91906110dc565b60405180910390a25050565b60016020528060005260406000206000915054906101000a900460ff1681565b6000806000806000806103d188888080601f016020809104026020016040519081016040528093929190818152602001838380828437600081840152601f19601f82011690508083019250505050505050610f90565b90506000600260008381526020019081526020016000206040518060a00160405290816000820160009054906101000a900473ffffffffffffffffffffffffffffffffffffffff1673ffffffffffffffffffffffffffffffffffffffff1673ffffffffffffffffffffffffffffffffffffffff1681526020016001820160009054906101000a900473ffffffffffffffffffffffffffffffffffffffff1673ffffffffffffffffffffffffffffffffffffffff1673ffffffffffffffffffffffffffffffffffffffff168152602001600282015481526020016003820160009054906101000a900460ff1660038111156104ce576104cd6113a4565b5b60038111156104e0576104df6113a4565b5b8152602001600482015481525050905080600001518160200151826040015183606001516003811115610516576105156113a4565b5b84608001519650965096509650965050509295509295909350565b60008054906101000a900473ffffffffffffffffffffffffffffffffffffffff1681565b600073ffffffffffffffffffffffffffffffffffffffff168173ffffffffffffffffffffffffffffffffffffffff16036105c4576040517f08c379a00000000000000000000000000000000000000000000000000000000081526004016105bb9061141f565b60405180910390fd5b60003411610607576040517f08c379a00000000000000000000000000000000000000000000000000000000081526004016105fe9061148b565b60405180910390fd5b600061065684848080601f016020809104026020016040519081016040528093929190818152602001838380828437600081840152601f19601f82011690508083019250505050505050610f90565b90506000600381111561066c5761066b6113a4565b5b6002600083815260200190815260200160002060030160009054906101000a900460ff1660038111156106a2576106a16113a4565b5b146106e2576040517f08c379a00000000000000000000000000000000000000000000000000000000081526004016106d9906114f7565b60405180910390fd5b6040518060a001604052803373ffffffffffffffffffffffffffffffffffffffff1681526020018373ffffffffffffffffffffffffffffffffffffffff1681526020013481526020016001600381111561073f5761073e6113a4565b5b8152602001428152506002600083815260200190815260200160002060008201518160000160006101000a81548173ffffffffffffffffffffffffffffffffffffffff021916908373ffffffffffffffffffffffffffffffffffffffff16021790555060208201518160010160006101000a81548173ffffffffffffffffffffffffffffffffffffffff021916908373ffffffffffffffffffffffffffffffffffffffff1602179055506040820151816002015560608201518160030160006101000a81548160ff0219169083600381111561081e5761081d6113a4565b5b0217905550608082015181600401559050508173ffffffffffffffffffffffffffffffffffffffff163373ffffffffffffffffffffffffffffffffffffffff16827fe89555c2ac9920f3947a90510a3d4899562558b3159223b6808c5f05d9292dcd87873460405161089293929190611564565b60405180910390a450505050565b600360009054906101000a900460ff16156108f0576040517f08c379a00000000000000000000000000000000000000000000000000000000081526004016108e7906115e2565b60405180910390fd5b6001600360006101000a81548160ff021916908315150217905550600160003373ffffffffffffffffffffffffffffffffffffffff1673ffffffffffffffffffffffffffffffffffffffff16815260200190815260200160002060009054906101000a900460ff16610997576040517f08c379a000000000000000000000000000000000000000000000000000000000815260040161098e9061164e565b60405180910390fd5b60006109e683838080601f016020809104026020016040519081016040528093929190818152602001838380828437600081840152601f19601f82011690508083019250505050505050610f90565b9050600060026000838152602001908152602001600020905060016003811115610a1357610a126113a4565b5b8160030160009054906101000a900460ff166003811115610a3757610a366113a4565b5b14610a77576040517f08c379a0000000000000000000000000000000000000000000000000000000008152600401610a6e906116ba565b60405180910390fd5b60028160030160006101000a81548160ff02191690836003811115610a9f57610a9e6113a4565b5b021790555060008160010160009054906101000a900473ffffffffffffffffffffffffffffffffffffffff1673ffffffffffffffffffffffffffffffffffffffff168260020154604051610af29061170b565b60006040518083038185875af1925050503d8060008114610b2f576040519150601f19603f3d011682016040523d82523d6000602084013e610b34565b606091505b5050905080610b78576040517f08c379a0000000000000000000000000000000000000000000000000000000008152600401610b6f9061176c565b60405180910390fd5b8160010160009054906101000a900473ffffffffffffffffffffffffffffffffffffffff1673ffffffffffffffffffffffffffffffffffffffff16837f01a5301d5c0c3f2a31f9a73346d669fbfb5288aa263db0800b83506c9d04faa887878660020154604051610beb93929190611564565b60405180910390a35050506000600360006101000a81548160ff0219169083151502179055505050565b600360009054906101000a900460ff1615610c65576040517f08c379a0000000000000000000000000000000000000000000000000000000008152600401610c5c906115e2565b60405180910390fd5b6001600360006101000a81548160ff0219169083151502179055506000610ccf83838080601f016020809104026020016040519081016040528093929190818152602001838380828437600081840152601f19601f82011690508083019250505050505050610f90565b9050600060026000838152602001908152602001600020905060016003811115610cfc57610cfb6113a4565b5b8160030160009054906101000a900460ff166003811115610d2057610d1f6113a4565b5b14610d60576040517f08c379a0000000000000000000000000000000000000000000000000000000008152600401610d57906117d8565b60405180910390fd5b8060000160009054906101000a900473ffffffffffffffffffffffffffffffffffffffff1673ffffffffffffffffffffffffffffffffffffffff163373ffffffffffffffffffffffffffffffffffffffff1614610df2576040517f08c379a0000000000000000000000000000000000000000000000000000000008152600401610de990611844565b60405180910390fd5b60038160030160006101000a81548160ff02191690836003811115610e1a57610e196113a4565b5b021790555060008160000160009054906101000a900473ffffffffffffffffffffffffffffffffffffffff1673ffffffffffffffffffffffffffffffffffffffff168260020154604051610e6d9061170b565b60006040518083038185875af1925050503d8060008114610eaa576040519150601f19603f3d011682016040523d82523d6000602084013e610eaf565b606091505b5050905080610ef3576040517f08c379a0000000000000000000000000000000000000000000000000000000008152600401610eea906118b0565b60405180910390fd5b8160000160009054906101000a900473ffffffffffffffffffffffffffffffffffffffff1673ffffffffffffffffffffffffffffffffffffffff16837f22077269dba2381c1c1211c03e83c5966f7fed3c441ca21bbf82a28014ff731087878660020154604051610f6693929190611564565b60405180910390a35050506000600360006101000a81548160ff0219169083151502179055505050565b600081604051602001610fa39190611941565b604051602081830303815290604052805190602001209050919050565b600080fd5b600080fd5b600073ffffffffffffffffffffffffffffffffffffffff82169050919050565b6000610ff582610fca565b9050919050565b61100581610fea565b811461101057600080fd5b50565b60008135905061102281610ffc565b92915050565b60008115159050919050565b61103d81611028565b811461104857600080fd5b50565b60008135905061105a81611034565b92915050565b6000806040838503121561107757611076610fc0565b5b600061108585828601611013565b92505060206110968582860161104b565b9150509250929050565b6000602082840312156110b6576110b5610fc0565b5b60006110c484828501611013565b91505092915050565b6110d681611028565b82525050565b60006020820190506110f160008301846110cd565b92915050565b600080fd5b600080fd5b600080fd5b60008083601f84011261111c5761111b6110f7565b5b8235905067ffffffffffffffff811115611139576111386110fc565b5b60208301915083600182028301111561115557611154611101565b5b9250929050565b6000806020838503121561117357611172610fc0565b5b600083013567ffffffffffffffff81111561119157611190610fc5565b5b61119d85828601611106565b92509250509250929050565b6111b281610fea565b82525050565b6000819050919050565b6111cb816111b8565b82525050565b600060ff82169050919050565b6111e7816111d1565b82525050565b600060a08201905061120260008301886111a9565b61120f60208301876111a9565b61121c60408301866111c2565b61122960608301856111de565b61123660808301846111c2565b9695505050505050565b600060208201905061125560008301846111a9565b92915050565b60008060006040848603121561127457611273610fc0565b5b600084013567ffffffffffffffff81111561129257611291610fc5565b5b61129e86828701611106565b935093505060206112b186828701611013565b9150509250925092565b600082825260208201905092915050565b7f4f6e6c79206f776e657200000000000000000000000000000000000000000000600082015250565b6000611302600a836112bb565b915061130d826112cc565b602082019050919050565b60006020820190508181036000830152611331816112f5565b9050919050565b7f496e76616c696420737461666600000000000000000000000000000000000000600082015250565b600061136e600d836112bb565b915061137982611338565b602082019050919050565b6000602082019050818103600083015261139d81611361565b9050919050565b7f4e487b7100000000000000000000000000000000000000000000000000000000600052602160045260246000fd5b7f496e76616c69642073656c6c6572000000000000000000000000000000000000600082015250565b6000611409600e836112bb565b9150611414826113d3565b602082019050919050565b60006020820190508181036000830152611438816113fc565b9050919050565b7f5061796d656e7420726571756972656400000000000000000000000000000000600082015250565b60006114756010836112bb565b91506114808261143f565b602082019050919050565b600060208201905081810360008301526114a481611468565b9050919050565b7f4f72646572206578697374730000000000000000000000000000000000000000600082015250565b60006114e1600c836112bb565b91506114ec826114ab565b602082019050919050565b60006020820190508181036000830152611510816114d4565b9050919050565b82818337600083830152505050565b6000601f19601f8301169050919050565b600061154383856112bb565b9350611550838584611517565b61155983611526565b840190509392505050565b6000604082019050818103600083015261157f818587611537565b905061158e60208301846111c2565b949350505050565b7f5265656e7472616e637920626c6f636b65640000000000000000000000000000600082015250565b60006115cc6012836112bb565b91506115d782611596565b602082019050919050565b600060208201905081810360008301526115fb816115bf565b9050919050565b7f4f6e6c7920737461666600000000000000000000000000000000000000000000600082015250565b6000611638600a836112bb565b915061164382611602565b602082019050919050565b600060208201905081810360008301526116678161162b565b9050919050565b7f4e6f7420696e20657363726f7700000000000000000000000000000000000000600082015250565b60006116a4600d836112bb565b91506116af8261166e565b602082019050919050565b600060208201905081810360008301526116d381611697565b9050919050565b600081905092915050565b50565b60006116f56000836116da565b9150611700826116e5565b600082019050919050565b6000611716826116e8565b9150819050919050565b7f5472616e73666572206661696c65640000000000000000000000000000000000600082015250565b6000611756600f836112bb565b915061176182611720565b602082019050919050565b6000602082019050818103600083015261178581611749565b9050919050565b7f526566756e64206e6f7420616c6c6f7765640000000000000000000000000000600082015250565b60006117c26012836112bb565b91506117cd8261178c565b602082019050919050565b600060208201905081810360008301526117f1816117b5565b9050919050565b7f4f6e6c7920627579657200000000000000000000000000000000000000000000600082015250565b600061182e600a836112bb565b9150611839826117f8565b602082019050919050565b6000602082019050818103600083015261185d81611821565b9050919050565b7f526566756e64206661696c656400000000000000000000000000000000000000600082015250565b600061189a600d836112bb565b91506118a582611864565b602082019050919050565b600060208201905081810360008301526118c98161188d565b9050919050565b600081519050919050565b600081905092915050565b60005b838110156119045780820151818401526020810190506118e9565b60008484015250505050565b600061191b826118d0565b61192581856118db565b93506119358185602086016118e6565b80840191505092915050565b600061194d8284611910565b91508190509291505056fea26469706673582212206cd73fa75df2610bcc668e42e0a717fc0b984b4c2fe0673a394fdefc014a759e64736f6c63430008130033",
  "immutableReferences": {},
  "source": "// SPDX-License-Identifier: MIT\r\npragma solidity ^0.8.19;\r\n\r\n/*\r\nI declare that this code was written by me.\r\nI will not copy or allow others to copy my code.\r\nI understand that copying code is considered as plagiarism.\r\n\r\nStudent Name: Mizyana Binte Mansoor Ali\r\nStudent ID: 24030289\r\nClass: C003-03\r\nDate created: 23/01/2026\r\n*/\r\n\r\ncontract PaymentEscrow {\r\n    address public owner;\r\n    mapping(address => bool) public staff;\r\n\r\n    enum OrderStatus {\r\n        None,        // 0\r\n        FundsLocked, // 1\r\n        Released,    // 2\r\n        Refunded     // 3\r\n    }\r\n\r\n    struct Order {\r\n        address buyer;\r\n        address seller;\r\n        uint256 amountWei;\r\n        OrderStatus status;\r\n        uint256 createdAt;\r\n    }\r\n\r\n    mapping(bytes32 => Order) private orders;\r\n\r\n    event OrderCreated(bytes32 indexed orderHash, string orderId, address indexed buyer, address indexed seller, uint256 amountWei);\r\n    event PaymentReleased(bytes32 indexed orderHash, string orderId, address indexed seller, uint256 amountWei);\r\n    event Refunded(bytes32 indexed orderHash, string orderId, address indexed buyer, uint256 amountWei);\r\n    event StaffUpdated(address indexed staffAddress, bool allowed);\r\n\r\n    bool private locked;\r\n    modifier nonReentrant() {\r\n        require(!locked, \"Reentrancy blocked\");\r\n        locked = true;\r\n        _;\r\n        locked = false;\r\n    }\r\n\r\n    modifier onlyOwner() {\r\n        require(msg.sender == owner, \"Only owner\");\r\n        _;\r\n    }\r\n\r\n    modifier onlyStaff() {\r\n        require(staff[msg.sender], \"Only staff\");\r\n        _;\r\n    }\r\n\r\n    constructor() {\r\n        owner = msg.sender;\r\n        staff[msg.sender] = true;\r\n    }\r\n\r\n    function _hash(string memory orderId) internal pure returns (bytes32) {\r\n        return keccak256(abi.encodePacked(orderId));\r\n    }\r\n\r\n    // Buyer locks funds into escrow (contract holds ETH)\r\n    function createOrder(string calldata orderId, address seller) external payable {\r\n        require(seller != address(0), \"Invalid seller\");\r\n        require(msg.value > 0, \"Payment required\");\r\n\r\n        bytes32 orderHash = _hash(orderId);\r\n        require(orders[orderHash].status == OrderStatus.None, \"Order exists\");\r\n\r\n        orders[orderHash] = Order({\r\n            buyer: msg.sender,\r\n            seller: seller,\r\n            amountWei: msg.value,\r\n            status: OrderStatus.FundsLocked,\r\n            createdAt: block.timestamp\r\n        });\r\n\r\n        emit OrderCreated(orderHash, orderId, msg.sender, seller, msg.value);\r\n    }\r\n\r\n    // Delivery confirmed by staff -> release funds to seller\r\n    function confirmDelivery(string calldata orderId) external nonReentrant onlyStaff {\r\n        bytes32 orderHash = _hash(orderId);\r\n        Order storage o = orders[orderHash];\r\n\r\n        require(o.status == OrderStatus.FundsLocked, \"Not in escrow\");\r\n\r\n        o.status = OrderStatus.Released;\r\n        (bool ok, ) = o.seller.call{value: o.amountWei}(\"\");\r\n        require(ok, \"Transfer failed\");\r\n\r\n        emit PaymentReleased(orderHash, orderId, o.seller, o.amountWei);\r\n    }\r\n\r\n    // Optional: refund before delivery confirmation\r\n    function refund(string calldata orderId) external nonReentrant {\r\n        bytes32 orderHash = _hash(orderId);\r\n        Order storage o = orders[orderHash];\r\n\r\n        require(o.status == OrderStatus.FundsLocked, \"Refund not allowed\");\r\n        require(msg.sender == o.buyer, \"Only buyer\");\r\n\r\n        o.status = OrderStatus.Refunded;\r\n        (bool ok, ) = o.buyer.call{value: o.amountWei}(\"\");\r\n        require(ok, \"Refund failed\");\r\n\r\n        emit Refunded(orderHash, orderId, o.buyer, o.amountWei);\r\n    }\r\n\r\n    function setStaff(address staffAddress, bool allowed) external onlyOwner {\r\n        require(staffAddress != address(0), \"Invalid staff\");\r\n        staff[staffAddress] = allowed;\r\n        emit StaffUpdated(staffAddress, allowed);\r\n    }\r\n\r\n    // Read order state for UI\r\n    function getOrder(string calldata orderId)\r\n        external\r\n        view\r\n        returns (address buyer, address seller, uint256 amountWei, uint8 status, uint256 createdAt)\r\n    {\r\n        bytes32 orderHash = _hash(orderId);\r\n        Order memory o = orders[orderHash];\r\n        return (o.buyer, o.seller, o.amountWei, uint8(o.status), o.createdAt);\r\n    }\r\n}\r\n",
  "sourcePath": "C:\\Users\\24024565\\C373Projects\\C373 FA GA Team 3 (interim)\\GA\\contracts\\PaymentEscrow.sol",
  "compiler": {
    "name": "solc",
    "version": "0.8.19+commit.7dd6d404.Emscripten.clang"
  },
  "schemaVersion": "3.4.16",
  "updatedAt": "2026-01-27T07:32:36.507Z",
  "devdoc": {
    "kind": "dev",
    "methods": {},
    "version": 1
  },
  "userdoc": {
    "kind": "user",
    "methods": {},
    "version": 1
  }
}