{
  "contractName": "PetContract",
  "abi": [
    {
      "inputs": [],
      "stateMutability": "nonpayable",
      "type": "constructor"
    },
    {
      "inputs": [],
      "name": "companyName",
      "outputs": [
        {
          "internalType": "string",
          "name": "",
          "type": "string"
        }
      ],
      "stateMutability": "view",
      "type": "function",
      "constant": true
    },
    {
      "inputs": [
        {
          "internalType": "uint256",
          "name": "",
          "type": "uint256"
        }
      ],
      "name": "pets",
      "outputs": [
        {
          "components": [
            {
              "internalType": "string",
              "name": "id",
              "type": "string"
            },
            {
              "internalType": "string",
              "name": "name",
              "type": "string"
            },
            {
              "internalType": "string",
              "name": "gender",
              "type": "string"
            },
            {
              "internalType": "string",
              "name": "dateOfBirth",
              "type": "string"
            }
          ],
          "internalType": "struct PetContract.PetInformation",
          "name": "petInfo",
          "type": "tuple"
        },
        {
          "components": [
            {
              "internalType": "string",
              "name": "name",
              "type": "string"
            },
            {
              "internalType": "string",
              "name": "companyAddress",
              "type": "string"
            },
            {
              "internalType": "string",
              "name": "licenseNumber",
              "type": "string"
            },
            {
              "internalType": "string",
              "name": "phone",
              "type": "string"
            },
            {
              "internalType": "string",
              "name": "email",
              "type": "string"
            }
          ],
          "internalType": "struct PetContract.BreederAndShelterRecords",
          "name": "breederAndShelterRecords",
          "type": "tuple"
        },
        {
          "components": [
            {
              "internalType": "string",
              "name": "agreementId",
              "type": "string"
            },
            {
              "internalType": "string",
              "name": "adopterName",
              "type": "string"
            },
            {
              "internalType": "string",
              "name": "dateSigned",
              "type": "string"
            },
            {
              "internalType": "string",
              "name": "returnPolicy",
              "type": "string"
            },
            {
              "internalType": "uint256",
              "name": "adoptionFee",
              "type": "uint256"
            }
          ],
          "internalType": "struct PetContract.AdoptionAgreement",
          "name": "adoptionAgreements",
          "type": "tuple"
        },
        {
          "components": [
            {
              "internalType": "string",
              "name": "policyNumber",
              "type": "string"
            },
            {
              "internalType": "string",
              "name": "provider",
              "type": "string"
            },
            {
              "internalType": "string",
              "name": "coverageType",
              "type": "string"
            },
            {
              "internalType": "uint256",
              "name": "maxClaimAmount",
              "type": "uint256"
            },
            {
              "internalType": "uint256",
              "name": "premium",
              "type": "uint256"
            },
            {
              "internalType": "string",
              "name": "claimId",
              "type": "string"
            },
            {
              "internalType": "uint256",
              "name": "amountClaimed",
              "type": "uint256"
            },
            {
              "internalType": "string",
              "name": "claimDate",
              "type": "string"
            },
            {
              "internalType": "string",
              "name": "status",
              "type": "string"
            }
          ],
          "internalType": "struct PetContract.PetInsuranceData",
          "name": "petInsuranceData",
          "type": "tuple"
        }
      ],
      "stateMutability": "view",
      "type": "function",
      "constant": true
    },
    {
      "inputs": [],
      "name": "getCompanyName",
      "outputs": [
        {
          "internalType": "string",
          "name": "",
          "type": "string"
        }
      ],
      "stateMutability": "view",
      "type": "function",
      "constant": true
    },
    {
      "inputs": [],
      "name": "registerPet",
      "outputs": [
        {
          "internalType": "uint256",
          "name": "",
          "type": "uint256"
        }
      ],
      "stateMutability": "nonpayable",
      "type": "function"
    },
    {
      "inputs": [
        {
          "internalType": "uint256",
          "name": "petId",
          "type": "uint256"
        },
        {
          "internalType": "string",
          "name": "_id",
          "type": "string"
        },
        {
          "internalType": "string",
          "name": "_name",
          "type": "string"
        },
        {
          "internalType": "string",
          "name": "_gender",
          "type": "string"
        },
        {
          "internalType": "string",
          "name": "_dateOfBirth",
          "type": "string"
        }
      ],
      "name": "addPetInfo",
      "outputs": [],
      "stateMutability": "nonpayable",
      "type": "function"
    },
    {
      "inputs": [
        {
          "internalType": "uint256",
          "name": "petId",
          "type": "uint256"
        },
        {
          "internalType": "string",
          "name": "_name",
          "type": "string"
        },
        {
          "internalType": "string",
          "name": "_companyAddress",
          "type": "string"
        },
        {
          "internalType": "string",
          "name": "_licenseNumber",
          "type": "string"
        },
        {
          "internalType": "string",
          "name": "_phone",
          "type": "string"
        },
        {
          "internalType": "string",
          "name": "_email",
          "type": "string"
        }
      ],
      "name": "addBreederShelterInfo",
      "outputs": [],
      "stateMutability": "nonpayable",
      "type": "function"
    },
    {
      "inputs": [
        {
          "internalType": "uint256",
          "name": "petId",
          "type": "uint256"
        },
        {
          "internalType": "string",
          "name": "_agreementId",
          "type": "string"
        },
        {
          "internalType": "string",
          "name": "_adopterName",
          "type": "string"
        },
        {
          "internalType": "string",
          "name": "_dateSigned",
          "type": "string"
        },
        {
          "internalType": "string",
          "name": "_returnPolicy",
          "type": "string"
        },
        {
          "internalType": "uint256",
          "name": "_adoptionFee",
          "type": "uint256"
        }
      ],
      "name": "addAdoptionAgreement",
      "outputs": [],
      "stateMutability": "nonpayable",
      "type": "function"
    },
    {
      "inputs": [
        {
          "internalType": "uint256",
          "name": "petId",
          "type": "uint256"
        },
        {
          "internalType": "string",
          "name": "_policyNumber",
          "type": "string"
        },
        {
          "internalType": "string",
          "name": "_provider",
          "type": "string"
        },
        {
          "internalType": "string",
          "name": "_coverageType",
          "type": "string"
        },
        {
          "internalType": "uint256",
          "name": "_maxClaimAmount",
          "type": "uint256"
        },
        {
          "internalType": "uint256",
          "name": "_premium",
          "type": "uint256"
        },
        {
          "internalType": "string",
          "name": "_claimId",
          "type": "string"
        },
        {
          "internalType": "uint256",
          "name": "_amountClaimed",
          "type": "uint256"
        },
        {
          "internalType": "string",
          "name": "_claimDate",
          "type": "string"
        },
        {
          "internalType": "string",
          "name": "_status",
          "type": "string"
        }
      ],
      "name": "addPetInsuranceData",
      "outputs": [],
      "stateMutability": "nonpayable",
      "type": "function"
    },
    {
      "inputs": [
        {
          "internalType": "uint256",
          "name": "petId",
          "type": "uint256"
        },
        {
          "internalType": "string",
          "name": "_ownerId",
          "type": "string"
        },
        {
          "internalType": "string",
          "name": "_ownerName",
          "type": "string"
        },
        {
          "internalType": "string",
          "name": "_transferDate",
          "type": "string"
        },
        {
          "internalType": "string",
          "name": "_phone",
          "type": "string"
        },
        {
          "internalType": "string",
          "name": "_email",
          "type": "string"
        }
      ],
      "name": "addOwnerShipRecord",
      "outputs": [],
      "stateMutability": "nonpayable",
      "type": "function"
    },
    {
      "inputs": [
        {
          "internalType": "uint256",
          "name": "petId",
          "type": "uint256"
        },
        {
          "internalType": "string",
          "name": "_vaccineName",
          "type": "string"
        },
        {
          "internalType": "string",
          "name": "_dateAdministered",
          "type": "string"
        },
        {
          "internalType": "string",
          "name": "_doctorname",
          "type": "string"
        },
        {
          "internalType": "string",
          "name": "_clinic",
          "type": "string"
        },
        {
          "internalType": "string",
          "name": "_phone",
          "type": "string"
        },
        {
          "internalType": "string",
          "name": "_email",
          "type": "string"
        }
      ],
      "name": "addVaccinationRecord",
      "outputs": [],
      "stateMutability": "nonpayable",
      "type": "function"
    },
    {
      "inputs": [
        {
          "internalType": "uint256",
          "name": "petId",
          "type": "uint256"
        },
        {
          "internalType": "string",
          "name": "_trainingType",
          "type": "string"
        },
        {
          "internalType": "string",
          "name": "_trainerName",
          "type": "string"
        },
        {
          "internalType": "string",
          "name": "_organization",
          "type": "string"
        },
        {
          "internalType": "string",
          "name": "_phone",
          "type": "string"
        },
        {
          "internalType": "string",
          "name": "_trainingDate",
          "type": "string"
        },
        {
          "internalType": "string",
          "name": "_progress",
          "type": "string"
        }
      ],
      "name": "addTrainingRecord",
      "outputs": [],
      "stateMutability": "nonpayable",
      "type": "function"
    },
    {
      "inputs": [],
      "name": "getNoOfPets",
      "outputs": [
        {
          "internalType": "uint256",
          "name": "",
          "type": "uint256"
        }
      ],
      "stateMutability": "view",
      "type": "function",
      "constant": true
    },
    {
      "inputs": [
        {
          "internalType": "uint256",
          "name": "petId",
          "type": "uint256"
        }
      ],
      "name": "getPetInfo",
      "outputs": [
        {
          "components": [
            {
              "internalType": "string",
              "name": "id",
              "type": "string"
            },
            {
              "internalType": "string",
              "name": "name",
              "type": "string"
            },
            {
              "internalType": "string",
              "name": "gender",
              "type": "string"
            },
            {
              "internalType": "string",
              "name": "dateOfBirth",
              "type": "string"
            }
          ],
          "internalType": "struct PetContract.PetInformation",
          "name": "",
          "type": "tuple"
        }
      ],
      "stateMutability": "view",
      "type": "function",
      "constant": true
    },
    {
      "inputs": [
        {
          "internalType": "uint256",
          "name": "petId",
          "type": "uint256"
        }
      ],
      "name": "getBreederShelterInfo",
      "outputs": [
        {
          "components": [
            {
              "internalType": "string",
              "name": "name",
              "type": "string"
            },
            {
              "internalType": "string",
              "name": "companyAddress",
              "type": "string"
            },
            {
              "internalType": "string",
              "name": "licenseNumber",
              "type": "string"
            },
            {
              "internalType": "string",
              "name": "phone",
              "type": "string"
            },
            {
              "internalType": "string",
              "name": "email",
              "type": "string"
            }
          ],
          "internalType": "struct PetContract.BreederAndShelterRecords",
          "name": "",
          "type": "tuple"
        }
      ],
      "stateMutability": "view",
      "type": "function",
      "constant": true
    },
    {
      "inputs": [
        {
          "internalType": "uint256",
          "name": "petId",
          "type": "uint256"
        }
      ],
      "name": "getOwnershipRecords",
      "outputs": [
        {
          "components": [
            {
              "internalType": "string",
              "name": "ownerId",
              "type": "string"
            },
            {
              "internalType": "string",
              "name": "ownerName",
              "type": "string"
            },
            {
              "internalType": "string",
              "name": "transferDate",
              "type": "string"
            },
            {
              "internalType": "string",
              "name": "phone",
              "type": "string"
            },
            {
              "internalType": "string",
              "name": "email",
              "type": "string"
            }
          ],
          "internalType": "struct PetContract.OwnershipRecord[]",
          "name": "",
          "type": "tuple[]"
        }
      ],
      "stateMutability": "view",
      "type": "function",
      "constant": true
    },
    {
      "inputs": [
        {
          "internalType": "uint256",
          "name": "petId",
          "type": "uint256"
        }
      ],
      "name": "getVaccinationRecords",
      "outputs": [
        {
          "components": [
            {
              "internalType": "string",
              "name": "vaccineName",
              "type": "string"
            },
            {
              "internalType": "string",
              "name": "dateAdministered",
              "type": "string"
            },
            {
              "internalType": "string",
              "name": "doctorname",
              "type": "string"
            },
            {
              "internalType": "string",
              "name": "clinic",
              "type": "string"
            },
            {
              "internalType": "string",
              "name": "phone",
              "type": "string"
            },
            {
              "internalType": "string",
              "name": "email",
              "type": "string"
            }
          ],
          "internalType": "struct PetContract.VaccinationRecord[]",
          "name": "",
          "type": "tuple[]"
        }
      ],
      "stateMutability": "view",
      "type": "function",
      "constant": true
    },
    {
      "inputs": [
        {
          "internalType": "uint256",
          "name": "petId",
          "type": "uint256"
        }
      ],
      "name": "getTrainingRecords",
      "outputs": [
        {
          "components": [
            {
              "internalType": "string",
              "name": "trainingType",
              "type": "string"
            },
            {
              "internalType": "string",
              "name": "traninerName",
              "type": "string"
            },
            {
              "internalType": "string",
              "name": "organization",
              "type": "string"
            },
            {
              "internalType": "string",
              "name": "phone",
              "type": "string"
            },
            {
              "internalType": "string",
              "name": "trainingDate",
              "type": "string"
            },
            {
              "internalType": "string",
              "name": "progress",
              "type": "string"
            }
          ],
          "internalType": "struct PetContract.TrainingRecord[]",
          "name": "",
          "type": "tuple[]"
        }
      ],
      "stateMutability": "view",
      "type": "function",
      "constant": true
    },
    {
      "inputs": [
        {
          "internalType": "uint256",
          "name": "petId",
          "type": "uint256"
        }
      ],
      "name": "getInsuranceData",
      "outputs": [
        {
          "components": [
            {
              "internalType": "string",
              "name": "policyNumber",
              "type": "string"
            },
            {
              "internalType": "string",
              "name": "provider",
              "type": "string"
            },
            {
              "internalType": "string",
              "name": "coverageType",
              "type": "string"
            },
            {
              "internalType": "uint256",
              "name": "maxClaimAmount",
              "type": "uint256"
            },
            {
              "internalType": "uint256",
              "name": "premium",
              "type": "uint256"
            },
            {
              "internalType": "string",
              "name": "claimId",
              "type": "string"
            },
            {
              "internalType": "uint256",
              "name": "amountClaimed",
              "type": "uint256"
            },
            {
              "internalType": "string",
              "name": "claimDate",
              "type": "string"
            },
            {
              "internalType": "string",
              "name": "status",
              "type": "string"
            }
          ],
          "internalType": "struct PetContract.PetInsuranceData",
          "name": "",
          "type": "tuple"
        }
      ],
      "stateMutability": "view",
      "type": "function",
      "constant": true
    },
    {
      "inputs": [
        {
          "internalType": "uint256",
          "name": "petId",
          "type": "uint256"
        }
      ],
      "name": "getAdoptionAgreement",
      "outputs": [
        {
          "components": [
            {
              "internalType": "string",
              "name": "agreementId",
              "type": "string"
            },
            {
              "internalType": "string",
              "name": "adopterName",
              "type": "string"
            },
            {
              "internalType": "string",
              "name": "dateSigned",
              "type": "string"
            },
            {
              "internalType": "string",
              "name": "returnPolicy",
              "type": "string"
            },
            {
              "internalType": "uint256",
              "name": "adoptionFee",
              "type": "uint256"
            }
          ],
          "internalType": "struct PetContract.AdoptionAgreement",
          "name": "",
          "type": "tuple"
        }
      ],
      "stateMutability": "view",
      "type": "function",
      "constant": true
    }
  ],
  "bytecode": "0x60806040523480156200001157600080fd5b5060006001819055506040518060400160405280600f81526020017f506574652773205065742053686f70000000000000000000000000000000000081525060009081620000609190620002e1565b50620003c8565b600081519050919050565b7f4e487b7100000000000000000000000000000000000000000000000000000000600052604160045260246000fd5b7f4e487b7100000000000000000000000000000000000000000000000000000000600052602260045260246000fd5b60006002820490506001821680620000e957607f821691505b602082108103620000ff57620000fe620000a1565b5b50919050565b60008190508160005260206000209050919050565b60006020601f8301049050919050565b600082821b905092915050565b600060088302620001697fffffffffffffffffffffffffffffffffffffffffffffffffffffffffffffffff826200012a565b6200017586836200012a565b95508019841693508086168417925050509392505050565b6000819050919050565b6000819050919050565b6000620001c2620001bc620001b6846200018d565b62000197565b6200018d565b9050919050565b6000819050919050565b620001de83620001a1565b620001f6620001ed82620001c9565b84845462000137565b825550505050565b600090565b6200020d620001fe565b6200021a818484620001d3565b505050565b5b8181101562000242576200023660008262000203565b60018101905062000220565b5050565b601f82111562000291576200025b8162000105565b62000266846200011a565b8101602085101562000276578190505b6200028e62000285856200011a565b8301826200021f565b50505b505050565b600082821c905092915050565b6000620002b66000198460080262000296565b1980831691505092915050565b6000620002d18383620002a3565b9150826002028217905092915050565b620002ec8262000067565b67ffffffffffffffff81111562000308576200030762000072565b5b620003148254620000d0565b6200032182828562000246565b600060209050601f83116001811462000359576000841562000344578287015190505b620003508582620002c3565b865550620003c0565b601f198416620003698662000105565b60005b8281101562000393578489015182556001820191506020850194506020810190506200036c565b86831015620003b35784890151620003af601f891682620002a3565b8355505b6001600288020188555050505b505050505050565b61423980620003d86000396000f3fe608060405234801561001057600080fd5b50600436106101215760003560e01c80636bf76e73116100ad578063a882c5d911610071578063a882c5d91461032a578063c051b45f14610348578063c518acfa14610378578063cfb869bf14610394578063f5ec2eed146103c757610121565b80636bf76e7314610288578063718bb4a4146102b85780637639b830146102d657806390c77f61146102f25780639392a5db1461030e57610121565b8063385ccc63116100f4578063385ccc63146101d257806339787761146101ee5780633f3bde5d1461020a57806343cfbd651461023a57806369c3f3161461025857610121565b806312ca702a1461012657806325a7b45e146101565780632f46c48714610186578063312222bd146101a2575b600080fd5b610140600480360381019061013b9190612e49565b6103e5565b60405161014d9190612fa0565b60405180910390f35b610170600480360381019061016b9190612e49565b610667565b60405161017d9190613116565b60405180910390f35b6101a0600480360381019061019b919061326d565b6109b6565b005b6101bc60048036038101906101b79190612e49565b610a94565b6040516101c991906134f4565b60405180910390f35b6101ec60048036038101906101e79190613516565b610e75565b005b61020860048036038101906102039190613601565b610f0e565b005b610224600480360381019061021f9190612e49565b611009565b6040516102319190613833565b60405180910390f35b6102426113c4565b60405161024f919061389f565b60405180910390f35b610272600480360381019061026d9190612e49565b611456565b60405161027f9190613939565b60405180910390f35b6102a2600480360381019061029d9190612e49565b6116ce565b6040516102af91906139ed565b60405180910390f35b6102c06119d8565b6040516102cd9190613a1e565b60405180910390f35b6102f060048036038101906102eb9190613601565b6119fa565b005b61030c60048036038101906103079190613a39565b611af5565b005b6103286004803603810190610323919061326d565b611bfd565b005b610332611cb3565b60405161033f9190613a1e565b60405180910390f35b610362600480360381019061035d9190612e49565b611cbd565b60405161036f9190613d2e565b60405180910390f35b610392600480360381019061038d9190613d50565b61209e565b005b6103ae60048036038101906103a99190612e49565b612148565b6040516103be9493929190613e4d565b60405180910390f35b6103cf612c9f565b6040516103dc919061389f565b60405180910390f35b6103ed612d2d565b600260008381526020019081526020016000206009016040518060a001604052908160008201805461041e90613edd565b80601f016020809104026020016040519081016040528092919081815260200182805461044a90613edd565b80156104975780601f1061046c57610100808354040283529160200191610497565b820191906000526020600020905b81548152906001019060200180831161047a57829003601f168201915b505050505081526020016001820180546104b090613edd565b80601f01602080910402602001604051908101604052809291908181526020018280546104dc90613edd565b80156105295780601f106104fe57610100808354040283529160200191610529565b820191906000526020600020905b81548152906001019060200180831161050c57829003601f168201915b5050505050815260200160028201805461054290613edd565b80601f016020809104026020016040519081016040528092919081815260200182805461056e90613edd565b80156105bb5780601f10610590576101008083540402835291602001916105bb565b820191906000526020600020905b81548152906001019060200180831161059e57829003601f168201915b505050505081526020016003820180546105d490613edd565b80601f016020809104026020016040519081016040528092919081815260200182805461060090613edd565b801561064d5780601f106106225761010080835404028352916020019161064d565b820191906000526020600020905b81548152906001019060200180831161063057829003601f168201915b505050505081526020016004820154815250509050919050565b606060026000838152602001908152602001600020601701805480602002602001604051908101604052809291908181526020016000905b828210156109ab57838290600052602060002090600502016040518060a00160405290816000820180546106d290613edd565b80601f01602080910402602001604051908101604052809291908181526020018280546106fe90613edd565b801561074b5780601f106107205761010080835404028352916020019161074b565b820191906000526020600020905b81548152906001019060200180831161072e57829003601f168201915b5050505050815260200160018201805461076490613edd565b80601f016020809104026020016040519081016040528092919081815260200182805461079090613edd565b80156107dd5780601f106107b2576101008083540402835291602001916107dd565b820191906000526020600020905b8154815290600101906020018083116107c057829003601f168201915b505050505081526020016002820180546107f690613edd565b80601f016020809104026020016040519081016040528092919081815260200182805461082290613edd565b801561086f5780601f106108445761010080835404028352916020019161086f565b820191906000526020600020905b81548152906001019060200180831161085257829003601f168201915b5050505050815260200160038201805461088890613edd565b80601f01602080910402602001604051908101604052809291908181526020018280546108b490613edd565b80156109015780601f106108d657610100808354040283529160200191610901565b820191906000526020600020905b8154815290600101906020018083116108e457829003601f168201915b5050505050815260200160048201805461091a90613edd565b80601f016020809104026020016040519081016040528092919081815260200182805461094690613edd565b80156109935780601f1061096857610100808354040283529160200191610993565b820191906000526020600020905b81548152906001019060200180831161097657829003601f168201915b5050505050815250508152602001906001019061069f565b505050509050919050565b600260008781526020019081526020016000206017016040518060a001604052808781526020018681526020018581526020018481526020018381525090806001815401808255809150506001900390600052602060002090600502016000909190919091506000820151816000019081610a3191906140ba565b506020820151816001019081610a4791906140ba565b506040820151816002019081610a5d91906140ba565b506060820151816003019081610a7391906140ba565b506080820151816004019081610a8991906140ba565b505050505050505050565b606060026000838152602001908152602001600020601901805480602002602001604051908101604052809291908181526020016000905b82821015610e6a57838290600052602060002090600602016040518060c0016040529081600082018054610aff90613edd565b80601f0160208091040260200160405190810160405280929190818152602001828054610b2b90613edd565b8015610b785780601f10610b4d57610100808354040283529160200191610b78565b820191906000526020600020905b815481529060010190602001808311610b5b57829003601f168201915b50505050508152602001600182018054610b9190613edd565b80601f0160208091040260200160405190810160405280929190818152602001828054610bbd90613edd565b8015610c0a5780601f10610bdf57610100808354040283529160200191610c0a565b820191906000526020600020905b815481529060010190602001808311610bed57829003601f168201915b50505050508152602001600282018054610c2390613edd565b80601f0160208091040260200160405190810160405280929190818152602001828054610c4f90613edd565b8015610c9c5780601f10610c7157610100808354040283529160200191610c9c565b820191906000526020600020905b815481529060010190602001808311610c7f57829003601f168201915b50505050508152602001600382018054610cb590613edd565b80601f0160208091040260200160405190810160405280929190818152602001828054610ce190613edd565b8015610d2e5780601f10610d0357610100808354040283529160200191610d2e565b820191906000526020600020905b815481529060010190602001808311610d1157829003601f168201915b50505050508152602001600482018054610d4790613edd565b80601f0160208091040260200160405190810160405280929190818152602001828054610d7390613edd565b8015610dc05780601f10610d9557610100808354040283529160200191610dc0565b820191906000526020600020905b815481529060010190602001808311610da357829003601f168201915b50505050508152602001600582018054610dd990613edd565b80601f0160208091040260200160405190810160405280929190818152602001828054610e0590613edd565b8015610e525780601f10610e2757610100808354040283529160200191610e52565b820191906000526020600020905b815481529060010190602001808311610e3557829003601f168201915b50505050508152505081526020019060010190610acc565b505050509050919050565b604051806080016040528085815260200184815260200183815260200182815250600260008781526020019081526020016000206000016000820151816000019081610ec191906140ba565b506020820151816001019081610ed791906140ba565b506040820151816002019081610eed91906140ba565b506060820151816003019081610f0391906140ba565b509050505050505050565b600260008881526020019081526020016000206018016040518060c001604052808881526020018781526020018681526020018581526020018481526020018381525090806001815401808255809150506001900390600052602060002090600602016000909190919091506000820151816000019081610f8f91906140ba565b506020820151816001019081610fa591906140ba565b506040820151816002019081610fbb91906140ba565b506060820151816003019081610fd191906140ba565b506080820151816004019081610fe791906140ba565b5060a0820151816005019081610ffd91906140ba565b50505050505050505050565b611011612d5c565b60026000838152602001908152602001600020600e016040518061012001604052908160008201805461104390613edd565b80601f016020809104026020016040519081016040528092919081815260200182805461106f90613edd565b80156110bc5780601f10611091576101008083540402835291602001916110bc565b820191906000526020600020905b81548152906001019060200180831161109f57829003601f168201915b505050505081526020016001820180546110d590613edd565b80601f016020809104026020016040519081016040528092919081815260200182805461110190613edd565b801561114e5780601f106111235761010080835404028352916020019161114e565b820191906000526020600020905b81548152906001019060200180831161113157829003601f168201915b5050505050815260200160028201805461116790613edd565b80601f016020809104026020016040519081016040528092919081815260200182805461119390613edd565b80156111e05780601f106111b5576101008083540402835291602001916111e0565b820191906000526020600020905b8154815290600101906020018083116111c357829003601f168201915b50505050508152602001600382015481526020016004820154815260200160058201805461120d90613edd565b80601f016020809104026020016040519081016040528092919081815260200182805461123990613edd565b80156112865780601f1061125b57610100808354040283529160200191611286565b820191906000526020600020905b81548152906001019060200180831161126957829003601f168201915b50505050508152602001600682015481526020016007820180546112a990613edd565b80601f01602080910402602001604051908101604052809291908181526020018280546112d590613edd565b80156113225780601f106112f757610100808354040283529160200191611322565b820191906000526020600020905b81548152906001019060200180831161130557829003601f168201915b5050505050815260200160088201805461133b90613edd565b80601f016020809104026020016040519081016040528092919081815260200182805461136790613edd565b80156113b45780601f10611389576101008083540402835291602001916113b4565b820191906000526020600020905b81548152906001019060200180831161139757829003601f168201915b5050505050815250509050919050565b6060600080546113d390613edd565b80601f01602080910402602001604051908101604052809291908181526020018280546113ff90613edd565b801561144c5780601f106114215761010080835404028352916020019161144c565b820191906000526020600020905b81548152906001019060200180831161142f57829003601f168201915b5050505050905090565b61145e612da8565b6002600083815260200190815260200160002060000160405180608001604052908160008201805461148f90613edd565b80601f01602080910402602001604051908101604052809291908181526020018280546114bb90613edd565b80156115085780601f106114dd57610100808354040283529160200191611508565b820191906000526020600020905b8154815290600101906020018083116114eb57829003601f168201915b5050505050815260200160018201805461152190613edd565b80601f016020809104026020016040519081016040528092919081815260200182805461154d90613edd565b801561159a5780601f1061156f5761010080835404028352916020019161159a565b820191906000526020600020905b81548152906001019060200180831161157d57829003601f168201915b505050505081526020016002820180546115b390613edd565b80601f01602080910402602001604051908101604052809291908181526020018280546115df90613edd565b801561162c5780601f106116015761010080835404028352916020019161162c565b820191906000526020600020905b81548152906001019060200180831161160f57829003601f168201915b5050505050815260200160038201805461164590613edd565b80601f016020809104026020016040519081016040528092919081815260200182805461167190613edd565b80156116be5780601f10611693576101008083540402835291602001916116be565b820191906000526020600020905b8154815290600101906020018083116116a157829003601f168201915b5050505050815250509050919050565b6116d6612dd0565b600260008381526020019081526020016000206004016040518060a001604052908160008201805461170790613edd565b80601f016020809104026020016040519081016040528092919081815260200182805461173390613edd565b80156117805780601f1061175557610100808354040283529160200191611780565b820191906000526020600020905b81548152906001019060200180831161176357829003601f168201915b5050505050815260200160018201805461179990613edd565b80601f01602080910402602001604051908101604052809291908181526020018280546117c590613edd565b80156118125780601f106117e757610100808354040283529160200191611812565b820191906000526020600020905b8154815290600101906020018083116117f557829003601f168201915b5050505050815260200160028201805461182b90613edd565b80601f016020809104026020016040519081016040528092919081815260200182805461185790613edd565b80156118a45780601f10611879576101008083540402835291602001916118a4565b820191906000526020600020905b81548152906001019060200180831161188757829003601f168201915b505050505081526020016003820180546118bd90613edd565b80601f01602080910402602001604051908101604052809291908181526020018280546118e990613edd565b80156119365780601f1061190b57610100808354040283529160200191611936565b820191906000526020600020905b81548152906001019060200180831161191957829003601f168201915b5050505050815260200160048201805461194f90613edd565b80601f016020809104026020016040519081016040528092919081815260200182805461197b90613edd565b80156119c85780601f1061199d576101008083540402835291602001916119c8565b820191906000526020600020905b8154815290600101906020018083116119ab57829003601f168201915b5050505050815250509050919050565b6000600160008154809291906119ed906141bb565b9190505550600154905090565b600260008881526020019081526020016000206019016040518060c001604052808881526020018781526020018681526020018581526020018481526020018381525090806001815401808255809150506001900390600052602060002090600602016000909190919091506000820151816000019081611a7b91906140ba565b506020820151816001019081611a9191906140ba565b506040820151816002019081611aa791906140ba565b506060820151816003019081611abd91906140ba565b506080820151816004019081611ad391906140ba565b5060a0820151816005019081611ae991906140ba565b50505050505050505050565b6040518061012001604052808a815260200189815260200188815260200187815260200186815260200185815260200184815260200183815260200182815250600260008c8152602001908152602001600020600e016000820151816000019081611b6091906140ba565b506020820151816001019081611b7691906140ba565b506040820151816002019081611b8c91906140ba565b50606082015181600301556080820151816004015560a0820151816005019081611bb691906140ba565b5060c0820151816006015560e0820151816007019081611bd691906140ba565b50610100820151816008019081611bed91906140ba565b5090505050505050505050505050565b6040518060a0016040528086815260200185815260200184815260200183815260200182815250600260008881526020019081526020016000206004016000820151816000019081611c4f91906140ba565b506020820151816001019081611c6591906140ba565b506040820151816002019081611c7b91906140ba565b506060820151816003019081611c9191906140ba565b506080820151816004019081611ca791906140ba565b50905050505050505050565b6000600154905090565b606060026000838152602001908152602001600020601801805480602002602001604051908101604052809291908181526020016000905b8282101561209357838290600052602060002090600602016040518060c0016040529081600082018054611d2890613edd565b80601f0160208091040260200160405190810160405280929190818152602001828054611d5490613edd565b8015611da15780601f10611d7657610100808354040283529160200191611da1565b820191906000526020600020905b815481529060010190602001808311611d8457829003601f168201915b50505050508152602001600182018054611dba90613edd565b80601f0160208091040260200160405190810160405280929190818152602001828054611de690613edd565b8015611e335780601f10611e0857610100808354040283529160200191611e33565b820191906000526020600020905b815481529060010190602001808311611e1657829003601f168201915b50505050508152602001600282018054611e4c90613edd565b80601f0160208091040260200160405190810160405280929190818152602001828054611e7890613edd565b8015611ec55780601f10611e9a57610100808354040283529160200191611ec5565b820191906000526020600020905b815481529060010190602001808311611ea857829003601f168201915b50505050508152602001600382018054611ede90613edd565b80601f0160208091040260200160405190810160405280929190818152602001828054611f0a90613edd565b8015611f575780601f10611f2c57610100808354040283529160200191611f57565b820191906000526020600020905b815481529060010190602001808311611f3a57829003601f168201915b50505050508152602001600482018054611f7090613edd565b80601f0160208091040260200160405190810160405280929190818152602001828054611f9c90613edd565b8015611fe95780601f10611fbe57610100808354040283529160200191611fe9565b820191906000526020600020905b815481529060010190602001808311611fcc57829003601f168201915b5050505050815260200160058201805461200290613edd565b80601f016020809104026020016040519081016040528092919081815260200182805461202e90613edd565b801561207b5780601f106120505761010080835404028352916020019161207b565b820191906000526020600020905b81548152906001019060200180831161205e57829003601f168201915b50505050508152505081526020019060010190611cf5565b505050509050919050565b6040518060a00160405280868152602001858152602001848152602001838152602001828152506002600088815260200190815260200160002060090160008201518160000190816120f091906140ba565b50602082015181600101908161210691906140ba565b50604082015181600201908161211c91906140ba565b50606082015181600301908161213291906140ba565b5060808201518160040155905050505050505050565b60026020528060005260406000206000915090508060000160405180608001604052908160008201805461217b90613edd565b80601f01602080910402602001604051908101604052809291908181526020018280546121a790613edd565b80156121f45780601f106121c9576101008083540402835291602001916121f4565b820191906000526020600020905b8154815290600101906020018083116121d757829003601f168201915b5050505050815260200160018201805461220d90613edd565b80601f016020809104026020016040519081016040528092919081815260200182805461223990613edd565b80156122865780601f1061225b57610100808354040283529160200191612286565b820191906000526020600020905b81548152906001019060200180831161226957829003601f168201915b5050505050815260200160028201805461229f90613edd565b80601f01602080910402602001604051908101604052809291908181526020018280546122cb90613edd565b80156123185780601f106122ed57610100808354040283529160200191612318565b820191906000526020600020905b8154815290600101906020018083116122fb57829003601f168201915b5050505050815260200160038201805461233190613edd565b80601f016020809104026020016040519081016040528092919081815260200182805461235d90613edd565b80156123aa5780601f1061237f576101008083540402835291602001916123aa565b820191906000526020600020905b81548152906001019060200180831161238d57829003601f168201915b50505050508152505090806004016040518060a00160405290816000820180546123d390613edd565b80601f01602080910402602001604051908101604052809291908181526020018280546123ff90613edd565b801561244c5780601f106124215761010080835404028352916020019161244c565b820191906000526020600020905b81548152906001019060200180831161242f57829003601f168201915b5050505050815260200160018201805461246590613edd565b80601f016020809104026020016040519081016040528092919081815260200182805461249190613edd565b80156124de5780601f106124b3576101008083540402835291602001916124de565b820191906000526020600020905b8154815290600101906020018083116124c157829003601f168201915b505050505081526020016002820180546124f790613edd565b80601f016020809104026020016040519081016040528092919081815260200182805461252390613edd565b80156125705780601f1061254557610100808354040283529160200191612570565b820191906000526020600020905b81548152906001019060200180831161255357829003601f168201915b5050505050815260200160038201805461258990613edd565b80601f01602080910402602001604051908101604052809291908181526020018280546125b590613edd565b80156126025780601f106125d757610100808354040283529160200191612602565b820191906000526020600020905b8154815290600101906020018083116125e557829003601f168201915b5050505050815260200160048201805461261b90613edd565b80601f016020809104026020016040519081016040528092919081815260200182805461264790613edd565b80156126945780601f1061266957610100808354040283529160200191612694565b820191906000526020600020905b81548152906001019060200180831161267757829003601f168201915b50505050508152505090806009016040518060a00160405290816000820180546126bd90613edd565b80601f01602080910402602001604051908101604052809291908181526020018280546126e990613edd565b80156127365780601f1061270b57610100808354040283529160200191612736565b820191906000526020600020905b81548152906001019060200180831161271957829003601f168201915b5050505050815260200160018201805461274f90613edd565b80601f016020809104026020016040519081016040528092919081815260200182805461277b90613edd565b80156127c85780601f1061279d576101008083540402835291602001916127c8565b820191906000526020600020905b8154815290600101906020018083116127ab57829003601f168201915b505050505081526020016002820180546127e190613edd565b80601f016020809104026020016040519081016040528092919081815260200182805461280d90613edd565b801561285a5780601f1061282f5761010080835404028352916020019161285a565b820191906000526020600020905b81548152906001019060200180831161283d57829003601f168201915b5050505050815260200160038201805461287390613edd565b80601f016020809104026020016040519081016040528092919081815260200182805461289f90613edd565b80156128ec5780601f106128c1576101008083540402835291602001916128ec565b820191906000526020600020905b8154815290600101906020018083116128cf57829003601f168201915b505050505081526020016004820154815250509080600e016040518061012001604052908160008201805461292090613edd565b80601f016020809104026020016040519081016040528092919081815260200182805461294c90613edd565b80156129995780601f1061296e57610100808354040283529160200191612999565b820191906000526020600020905b81548152906001019060200180831161297c57829003601f168201915b505050505081526020016001820180546129b290613edd565b80601f01602080910402602001604051908101604052809291908181526020018280546129de90613edd565b8015612a2b5780601f10612a0057610100808354040283529160200191612a2b565b820191906000526020600020905b815481529060010190602001808311612a0e57829003601f168201915b50505050508152602001600282018054612a4490613edd565b80601f0160208091040260200160405190810160405280929190818152602001828054612a7090613edd565b8015612abd5780601f10612a9257610100808354040283529160200191612abd565b820191906000526020600020905b815481529060010190602001808311612aa057829003601f168201915b505050505081526020016003820154815260200160048201548152602001600582018054612aea90613edd565b80601f0160208091040260200160405190810160405280929190818152602001828054612b1690613edd565b8015612b635780601f10612b3857610100808354040283529160200191612b63565b820191906000526020600020905b815481529060010190602001808311612b4657829003601f168201915b5050505050815260200160068201548152602001600782018054612b8690613edd565b80601f0160208091040260200160405190810160405280929190818152602001828054612bb290613edd565b8015612bff5780601f10612bd457610100808354040283529160200191612bff565b820191906000526020600020905b815481529060010190602001808311612be257829003601f168201915b50505050508152602001600882018054612c1890613edd565b80601f0160208091040260200160405190810160405280929190818152602001828054612c4490613edd565b8015612c915780601f10612c6657610100808354040283529160200191612c91565b820191906000526020600020905b815481529060010190602001808311612c7457829003601f168201915b505050505081525050905084565b60008054612cac90613edd565b80601f0160208091040260200160405190810160405280929190818152602001828054612cd890613edd565b8015612d255780601f10612cfa57610100808354040283529160200191612d25565b820191906000526020600020905b815481529060010190602001808311612d0857829003601f168201915b505050505081565b6040518060a0016040528060608152602001606081526020016060815260200160608152602001600081525090565b6040518061012001604052806060815260200160608152602001606081526020016000815260200160008152602001606081526020016000815260200160608152602001606081525090565b6040518060800160405280606081526020016060815260200160608152602001606081525090565b6040518060a0016040528060608152602001606081526020016060815260200160608152602001606081525090565b6000604051905090565b600080fd5b600080fd5b6000819050919050565b612e2681612e13565b8114612e3157600080fd5b50565b600081359050612e4381612e1d565b92915050565b600060208284031215612e5f57612e5e612e09565b5b6000612e6d84828501612e34565b91505092915050565b600081519050919050565b600082825260208201905092915050565b60005b83811015612eb0578082015181840152602081019050612e95565b60008484015250505050565b6000601f19601f8301169050919050565b6000612ed882612e76565b612ee28185612e81565b9350612ef2818560208601612e92565b612efb81612ebc565b840191505092915050565b612f0f81612e13565b82525050565b600060a0830160008301518482036000860152612f328282612ecd565b91505060208301518482036020860152612f4c8282612ecd565b91505060408301518482036040860152612f668282612ecd565b91505060608301518482036060860152612f808282612ecd565b9150506080830151612f956080860182612f06565b508091505092915050565b60006020820190508181036000830152612fba8184612f15565b905092915050565b600081519050919050565b600082825260208201905092915050565b6000819050602082019050919050565b600060a083016000830151848203600086015261300b8282612ecd565b915050602083015184820360208601526130258282612ecd565b9150506040830151848203604086015261303f8282612ecd565b915050606083015184820360608601526130598282612ecd565b915050608083015184820360808601526130738282612ecd565b9150508091505092915050565b600061308c8383612fee565b905092915050565b6000602082019050919050565b60006130ac82612fc2565b6130b68185612fcd565b9350836020820285016130c885612fde565b8060005b8581101561310457848403895281516130e58582613080565b94506130f083613094565b925060208a019950506001810190506130cc565b50829750879550505050505092915050565b6000602082019050818103600083015261313081846130a1565b905092915050565b600080fd5b600080fd5b7f4e487b7100000000000000000000000000000000000000000000000000000000600052604160045260246000fd5b61317a82612ebc565b810181811067ffffffffffffffff8211171561319957613198613142565b5b80604052505050565b60006131ac612dff565b90506131b88282613171565b919050565b600067ffffffffffffffff8211156131d8576131d7613142565b5b6131e182612ebc565b9050602081019050919050565b82818337600083830152505050565b600061321061320b846131bd565b6131a2565b90508281526020810184848401111561322c5761322b61313d565b5b6132378482856131ee565b509392505050565b600082601f83011261325457613253613138565b5b81356132648482602086016131fd565b91505092915050565b60008060008060008060c0878903121561328a57613289612e09565b5b600061329889828a01612e34565b965050602087013567ffffffffffffffff8111156132b9576132b8612e0e565b5b6132c589828a0161323f565b955050604087013567ffffffffffffffff8111156132e6576132e5612e0e565b5b6132f289828a0161323f565b945050606087013567ffffffffffffffff81111561331357613312612e0e565b5b61331f89828a0161323f565b935050608087013567ffffffffffffffff8111156133405761333f612e0e565b5b61334c89828a0161323f565b92505060a087013567ffffffffffffffff81111561336d5761336c612e0e565b5b61337989828a0161323f565b9150509295509295509295565b600081519050919050565b600082825260208201905092915050565b6000819050602082019050919050565b600060c08301600083015184820360008601526133cf8282612ecd565b915050602083015184820360208601526133e98282612ecd565b915050604083015184820360408601526134038282612ecd565b9150506060830151848203606086015261341d8282612ecd565b915050608083015184820360808601526134378282612ecd565b91505060a083015184820360a08601526134518282612ecd565b9150508091505092915050565b600061346a83836133b2565b905092915050565b6000602082019050919050565b600061348a82613386565b6134948185613391565b9350836020820285016134a6856133a2565b8060005b858110156134e257848403895281516134c3858261345e565b94506134ce83613472565b925060208a019950506001810190506134aa565b50829750879550505050505092915050565b6000602082019050818103600083015261350e818461347f565b905092915050565b600080600080600060a0868803121561353257613531612e09565b5b600061354088828901612e34565b955050602086013567ffffffffffffffff81111561356157613560612e0e565b5b61356d8882890161323f565b945050604086013567ffffffffffffffff81111561358e5761358d612e0e565b5b61359a8882890161323f565b935050606086013567ffffffffffffffff8111156135bb576135ba612e0e565b5b6135c78882890161323f565b925050608086013567ffffffffffffffff8111156135e8576135e7612e0e565b5b6135f48882890161323f565b9150509295509295909350565b600080600080600080600060e0888a0312156136205761361f612e09565b5b600061362e8a828b01612e34565b975050602088013567ffffffffffffffff81111561364f5761364e612e0e565b5b61365b8a828b0161323f565b965050604088013567ffffffffffffffff81111561367c5761367b612e0e565b5b6136888a828b0161323f565b955050606088013567ffffffffffffffff8111156136a9576136a8612e0e565b5b6136b58a828b0161323f565b945050608088013567ffffffffffffffff8111156136d6576136d5612e0e565b5b6136e28a828b0161323f565b93505060a088013567ffffffffffffffff81111561370357613702612e0e565b5b61370f8a828b0161323f565b92505060c088013567ffffffffffffffff8111156137305761372f612e0e565b5b61373c8a828b0161323f565b91505092959891949750929550565b60006101208301600083015184820360008601526137698282612ecd565b915050602083015184820360208601526137838282612ecd565b9150506040830151848203604086015261379d8282612ecd565b91505060608301516137b26060860182612f06565b5060808301516137c56080860182612f06565b5060a083015184820360a08601526137dd8282612ecd565b91505060c08301516137f260c0860182612f06565b5060e083015184820360e086015261380a8282612ecd565b9150506101008301518482036101008601526138268282612ecd565b9150508091505092915050565b6000602082019050818103600083015261384d818461374b565b905092915050565b600082825260208201905092915050565b600061387182612e76565b61387b8185613855565b935061388b818560208601612e92565b61389481612ebc565b840191505092915050565b600060208201905081810360008301526138b98184613866565b905092915050565b600060808301600083015184820360008601526138de8282612ecd565b915050602083015184820360208601526138f88282612ecd565b915050604083015184820360408601526139128282612ecd565b9150506060830151848203606086015261392c8282612ecd565b9150508091505092915050565b6000602082019050818103600083015261395381846138c1565b905092915050565b600060a08301600083015184820360008601526139788282612ecd565b915050602083015184820360208601526139928282612ecd565b915050604083015184820360408601526139ac8282612ecd565b915050606083015184820360608601526139c68282612ecd565b915050608083015184820360808601526139e08282612ecd565b9150508091505092915050565b60006020820190508181036000830152613a07818461395b565b905092915050565b613a1881612e13565b82525050565b6000602082019050613a336000830184613a0f565b92915050565b6000806000806000806000806000806101408b8d031215613a5d57613a5c612e09565b5b6000613a6b8d828e01612e34565b9a505060208b013567ffffffffffffffff811115613a8c57613a8b612e0e565b5b613a988d828e0161323f565b99505060408b013567ffffffffffffffff811115613ab957613ab8612e0e565b5b613ac58d828e0161323f565b98505060608b013567ffffffffffffffff811115613ae657613ae5612e0e565b5b613af28d828e0161323f565b9750506080613b038d828e01612e34565b96505060a0613b148d828e01612e34565b95505060c08b013567ffffffffffffffff811115613b3557613b34612e0e565b5b613b418d828e0161323f565b94505060e0613b528d828e01612e34565b9350506101008b013567ffffffffffffffff811115613b7457613b73612e0e565b5b613b808d828e0161323f565b9250506101208b013567ffffffffffffffff811115613ba257613ba1612e0e565b5b613bae8d828e0161323f565b9150509295989b9194979a5092959850565b600081519050919050565b600082825260208201905092915050565b6000819050602082019050919050565b600060c0830160008301518482036000860152613c098282612ecd565b91505060208301518482036020860152613c238282612ecd565b91505060408301518482036040860152613c3d8282612ecd565b91505060608301518482036060860152613c578282612ecd565b91505060808301518482036080860152613c718282612ecd565b91505060a083015184820360a0860152613c8b8282612ecd565b9150508091505092915050565b6000613ca48383613bec565b905092915050565b6000602082019050919050565b6000613cc482613bc0565b613cce8185613bcb565b935083602082028501613ce085613bdc565b8060005b85811015613d1c5784840389528151613cfd8582613c98565b9450613d0883613cac565b925060208a01995050600181019050613ce4565b50829750879550505050505092915050565b60006020820190508181036000830152613d488184613cb9565b905092915050565b60008060008060008060c08789031215613d6d57613d6c612e09565b5b6000613d7b89828a01612e34565b965050602087013567ffffffffffffffff811115613d9c57613d9b612e0e565b5b613da889828a0161323f565b955050604087013567ffffffffffffffff811115613dc957613dc8612e0e565b5b613dd589828a0161323f565b945050606087013567ffffffffffffffff811115613df657613df5612e0e565b5b613e0289828a0161323f565b935050608087013567ffffffffffffffff811115613e2357613e22612e0e565b5b613e2f89828a0161323f565b92505060a0613e4089828a01612e34565b9150509295509295509295565b60006080820190508181036000830152613e6781876138c1565b90508181036020830152613e7b818661395b565b90508181036040830152613e8f8185612f15565b90508181036060830152613ea3818461374b565b905095945050505050565b7f4e487b7100000000000000000000000000000000000000000000000000000000600052602260045260246000fd5b60006002820490506001821680613ef557607f821691505b602082108103613f0857613f07613eae565b5b50919050565b60008190508160005260206000209050919050565b60006020601f8301049050919050565b600082821b905092915050565b600060088302613f707fffffffffffffffffffffffffffffffffffffffffffffffffffffffffffffffff82613f33565b613f7a8683613f33565b95508019841693508086168417925050509392505050565b6000819050919050565b6000613fb7613fb2613fad84612e13565b613f92565b612e13565b9050919050565b6000819050919050565b613fd183613f9c565b613fe5613fdd82613fbe565b848454613f40565b825550505050565b600090565b613ffa613fed565b614005818484613fc8565b505050565b5b818110156140295761401e600082613ff2565b60018101905061400b565b5050565b601f82111561406e5761403f81613f0e565b61404884613f23565b81016020851015614057578190505b61406b61406385613f23565b83018261400a565b50505b505050565b600082821c905092915050565b600061409160001984600802614073565b1980831691505092915050565b60006140aa8383614080565b9150826002028217905092915050565b6140c382612e76565b67ffffffffffffffff8111156140dc576140db613142565b5b6140e68254613edd565b6140f182828561402d565b600060209050601f8311600181146141245760008415614112578287015190505b61411c858261409e565b865550614184565b601f19841661413286613f0e565b60005b8281101561415a57848901518255600182019150602085019450602081019050614135565b868310156141775784890151614173601f891682614080565b8355505b6001600288020188555050505b505050505050565b7f4e487b7100000000000000000000000000000000000000000000000000000000600052601160045260246000fd5b60006141c682612e13565b91507fffffffffffffffffffffffffffffffffffffffffffffffffffffffffffffffff82036141f8576141f761418c565b5b60018201905091905056fea2646970667358221220b73825c3d6bfcbcb09f307ed7e395a336ce089b676d79b3bc11943d93320b89964736f6c63430008130033",
  "immutableReferences": {},
  "source": "// SPDX-License-Identifier: MIT\r\npragma solidity ^0.8.19;\r\n\r\ncontract PetContract {\r\n    enum PetStatus {Sold, Available}\r\n    \r\n    string public companyName;\r\n    uint petCount;\r\n\r\n    // Constructor code is only run when the contract is created\r\n    constructor() {\r\n        petCount=0;\r\n        companyName = \"Pete's Pet Shop\";\r\n    }\r\n\r\n    function getCompanyName() public view returns(string memory){\r\n        return companyName;\r\n    }\r\n\r\n   struct OwnershipRecord {\r\n        string ownerId;\r\n        string ownerName;\r\n        string transferDate;\r\n        string phone;\r\n        string email;  \r\n    }\r\n\r\n    struct VaccinationRecord {\r\n        string vaccineName;\r\n        string dateAdministered;\r\n        string doctorname;\r\n        string clinic;\r\n        string phone;\r\n        string email;\r\n    }\r\n\r\n    struct AdoptionAgreement {\r\n        string agreementId;\r\n        string adopterName;\r\n        string dateSigned;\r\n        string returnPolicy;\r\n        uint256 adoptionFee;\r\n    }\r\n  \r\n    struct PetInsuranceData {\r\n        string policyNumber;\r\n        string provider;\r\n        string coverageType;\r\n        uint256 maxClaimAmount;\r\n        uint256 premium;\r\n        string claimId;\r\n        uint256 amountClaimed;\r\n        string claimDate;\r\n        string status;\r\n    }\r\n\r\n    struct TrainingRecord {\r\n        string trainingType;\r\n        string traninerName;\r\n        string organization;\r\n        string phone;\r\n        string trainingDate;\r\n        string progress;\r\n    }\r\n\r\n    struct BreederAndShelterRecords {\r\n        string name;\r\n        string companyAddress;\r\n        string licenseNumber;\r\n        string phone;\r\n        string email;       \r\n    }\r\n\r\n    struct PetInformation {\r\n        string id;\r\n        string name;\r\n        string gender;\r\n        string dateOfBirth;\r\n    }\r\n\r\n    struct Pet {\r\n        PetInformation petInfo;\r\n        BreederAndShelterRecords breederAndShelterRecords;\r\n        AdoptionAgreement adoptionAgreements;\r\n        PetInsuranceData petInsuranceData;\r\n        OwnershipRecord[] ownershipRecords;\r\n        VaccinationRecord[] vaccinationHistory;\r\n        TrainingRecord[] trainingHistory;\r\n    }\r\n    mapping(uint256 => Pet) public pets;\r\n \r\n    function registerPet() public returns (uint256) {\r\n        petCount++;\r\n    \r\n        return petCount;\r\n    }\r\n    \r\n    // Function to add pet  information\r\n    function addPetInfo(\r\n        uint256 petId,\r\n        string memory _id,\r\n        string memory _name,\r\n        string memory _gender,\r\n        string memory _dateOfBirth\r\n    ) public {\r\n        pets[petId].petInfo = PetInformation(_id, _name, _gender, _dateOfBirth);\r\n    }\r\n\r\n    // Function to add breeder and shelter company information\r\n    function addBreederShelterInfo(uint256 petId, \r\n        string memory _name,\r\n        string memory _companyAddress,\r\n        string memory _licenseNumber,\r\n        string memory _phone,\r\n        string memory _email ) public {\r\n            pets[petId].breederAndShelterRecords = BreederAndShelterRecords(_name, _companyAddress, _licenseNumber,\r\n            _phone, _email);\r\n\r\n    }\r\n   \r\n    // Function to add adoption agreement \r\n    function addAdoptionAgreement (uint256 petId, \r\n        string memory _agreementId,\r\n        string memory _adopterName,\r\n        string memory _dateSigned,\r\n        string memory _returnPolicy,\r\n        uint256 _adoptionFee) public {\r\n            pets[petId].adoptionAgreements = AdoptionAgreement(_agreementId, _adopterName, _dateSigned,\r\n            _returnPolicy, _adoptionFee);\r\n\r\n    }\r\n\r\n    // Function to add insurace data \r\n    function addPetInsuranceData (uint256 petId, \r\n       string memory _policyNumber,\r\n        string memory _provider,\r\n        string memory _coverageType,\r\n        uint256 _maxClaimAmount,\r\n        uint256 _premium,\r\n        string memory _claimId,\r\n        uint256 _amountClaimed,\r\n        string memory _claimDate,\r\n        string memory _status) public {\r\n            pets[petId].petInsuranceData = PetInsuranceData(_policyNumber, _provider, _coverageType,\r\n             _maxClaimAmount, _premium, _claimId, _amountClaimed, _claimDate, _status);\r\n\r\n    }\r\n      \r\n    // Function to add a new ownership record\r\n    function addOwnerShipRecord (uint256 petId, \r\n        string memory _ownerId,\r\n        string memory _ownerName,\r\n        string memory _transferDate,\r\n        string memory _phone,\r\n        string memory _email ) public {\r\n            pets[petId].ownershipRecords.push(OwnershipRecord(_ownerId, _ownerName, _transferDate, _phone, _email));\r\n    }\r\n\r\n    function addVaccinationRecord (uint256 petId, \r\n        string memory _vaccineName,\r\n        string memory _dateAdministered,\r\n        string memory _doctorname,\r\n        string memory _clinic,\r\n        string memory _phone,\r\n        string memory _email) public {\r\n            pets[petId].vaccinationHistory.push(VaccinationRecord(_vaccineName, _dateAdministered, _doctorname, _clinic, _phone, _email));\r\n    }\r\n\r\n    function addTrainingRecord (uint256 petId, \r\n         string memory _trainingType,\r\n        string memory _trainerName,\r\n        string memory _organization,\r\n        string memory _phone,\r\n        string memory _trainingDate,\r\n        string memory _progress) public {\r\n            pets[petId].trainingHistory.push(TrainingRecord(_trainingType, _trainerName, _organization, _phone,\r\n        _trainingDate, _progress));\r\n\r\n    }\r\n\r\n    //Write a function getNoOfPets to obtain the petCount\r\n    function getNoOfPets() public view returns (uint) {\r\n        return petCount;\r\n    }\r\n\r\n     // Function to retrieve pet  information\r\n    function getPetInfo(uint256 petId) public view returns (PetInformation memory) {\r\n        return pets[petId].petInfo;\r\n    }\r\n\r\n     // Function to retrieve breeder shelter  information\r\n    function getBreederShelterInfo(uint256 petId) public view returns (BreederAndShelterRecords memory) {\r\n        return pets[petId].breederAndShelterRecords;\r\n    }\r\n\r\n    // Function to retrieve ownership records\r\n    function getOwnershipRecords(uint256 petId) public view returns (OwnershipRecord[] memory) {\r\n        return pets[petId].ownershipRecords;\r\n    }\r\n\r\n    // Function to retrieve vaccination records\r\n    function getVaccinationRecords(uint256 petId) public view returns (VaccinationRecord[] memory) {\r\n        return pets[petId].vaccinationHistory;\r\n    }\r\n\r\n    // Function to retrieve training records\r\n    function getTrainingRecords(uint256 petId) public view returns (TrainingRecord[] memory) {\r\n        return pets[petId].trainingHistory;\r\n    }\r\n\r\n    // Function to retrieve insurance data\r\n    function getInsuranceData(uint256 petId) public view returns (PetInsuranceData memory) {\r\n        return pets[petId].petInsuranceData;\r\n    }\r\n\r\n    // Function to retrieve adoption agreement details\r\n    function getAdoptionAgreement(uint256 petId) public view returns (AdoptionAgreement memory) {\r\n        return pets[petId].adoptionAgreements;\r\n    }\r\n\r\n}\r\n",
  "sourcePath": "C:\\Users\\24024565\\C373Projects\\GA\\contracts\\PetContract.sol",
  "compiler": {
    "name": "solc",
    "version": "0.8.19+commit.7dd6d404.Emscripten.clang"
  },
  "schemaVersion": "3.4.16",
  "updatedAt": "2026-01-16T13:20:39.479Z",
  "networkType": "ethereum",
  "devdoc": {
    "kind": "dev",
    "methods": {},
    "version": 1
  },
  "userdoc": {
    "kind": "user",
    "methods": {},
    "version": 1
  }
}