{
  "contractName": "UserRegistry",
  "abi": [
    {
      "anonymous": false,
      "inputs": [
        {
          "indexed": true,
          "internalType": "string",
          "name": "email",
          "type": "string"
        },
        {
          "indexed": false,
          "internalType": "string",
          "name": "role",
          "type": "string"
        },
        {
          "indexed": true,
          "internalType": "address",
          "name": "by",
          "type": "address"
        }
      ],
      "name": "UserUpserted",
      "type": "event"
    },
    {
      "inputs": [
        {
          "internalType": "string",
          "name": "name",
          "type": "string"
        },
        {
          "internalType": "string",
          "name": "email",
          "type": "string"
        },
        {
          "internalType": "string",
          "name": "phone",
          "type": "string"
        },
        {
          "internalType": "string",
          "name": "role",
          "type": "string"
        }
      ],
      "name": "upsertUser",
      "outputs": [],
      "stateMutability": "nonpayable",
      "type": "function"
    },
    {
      "inputs": [
        {
          "internalType": "string",
          "name": "email",
          "type": "string"
        }
      ],
      "name": "getUser",
      "outputs": [
        {
          "components": [
            {
              "internalType": "string",
              "name": "name",
              "type": "string"
            },
            {
              "internalType": "string",
              "name": "email",
              "type": "string"
            },
            {
              "internalType": "string",
              "name": "phone",
              "type": "string"
            },
            {
              "internalType": "string",
              "name": "role",
              "type": "string"
            },
            {
              "internalType": "address",
              "name": "registeredBy",
              "type": "address"
            },
            {
              "internalType": "uint256",
              "name": "createdAt",
              "type": "uint256"
            }
          ],
          "internalType": "struct UserRegistry.User",
          "name": "",
          "type": "tuple"
        }
      ],
      "stateMutability": "view",
      "type": "function",
      "constant": true
    }
  ],
  "bytecode": "0x608060405234801561001057600080fd5b50610d4a806100206000396000f3fe608060405234801561001057600080fd5b50600436106100365760003560e01c806331feb6711461003b5780637ed9280d1461006b575b600080fd5b610055600480360381019061005091906106be565b610087565b604051610062919061087e565b60405180910390f35b610085600480360381019061008091906108a0565b610381565b005b61008f610518565b600080836040516020016100a391906109b3565b6040516020818303038152906040528051906020012081526020019081526020016000206040518060c00160405290816000820180546100e2906109f9565b80601f016020809104026020016040519081016040528092919081815260200182805461010e906109f9565b801561015b5780601f106101305761010080835404028352916020019161015b565b820191906000526020600020905b81548152906001019060200180831161013e57829003601f168201915b50505050508152602001600182018054610174906109f9565b80601f01602080910402602001604051908101604052809291908181526020018280546101a0906109f9565b80156101ed5780601f106101c2576101008083540402835291602001916101ed565b820191906000526020600020905b8154815290600101906020018083116101d057829003601f168201915b50505050508152602001600282018054610206906109f9565b80601f0160208091040260200160405190810160405280929190818152602001828054610232906109f9565b801561027f5780601f106102545761010080835404028352916020019161027f565b820191906000526020600020905b81548152906001019060200180831161026257829003601f168201915b50505050508152602001600382018054610298906109f9565b80601f01602080910402602001604051908101604052809291908181526020018280546102c4906109f9565b80156103115780601f106102e657610100808354040283529160200191610311565b820191906000526020600020905b8154815290600101906020018083116102f457829003601f168201915b505050505081526020016004820160009054906101000a900473ffffffffffffffffffffffffffffffffffffffff1673ffffffffffffffffffffffffffffffffffffffff1673ffffffffffffffffffffffffffffffffffffffff1681526020016005820154815250509050919050565b60008360405160200161039491906109b3565b6040516020818303038152906040528051906020012090506040518060c001604052808681526020018581526020018481526020018381526020013373ffffffffffffffffffffffffffffffffffffffff1681526020014281525060008083815260200190815260200160002060008201518160000190816104169190610bd6565b50602082015181600101908161042c9190610bd6565b5060408201518160020190816104429190610bd6565b5060608201518160030190816104589190610bd6565b5060808201518160040160006101000a81548173ffffffffffffffffffffffffffffffffffffffff021916908373ffffffffffffffffffffffffffffffffffffffff16021790555060a082015181600501559050503373ffffffffffffffffffffffffffffffffffffffff16846040516104d291906109b3565b60405180910390207f419a117712c7a0c4417dce83163115c24338d8c0566474203cc60bc8ffd1298a846040516105099190610cf2565b60405180910390a35050505050565b6040518060c0016040528060608152602001606081526020016060815260200160608152602001600073ffffffffffffffffffffffffffffffffffffffff168152602001600081525090565b6000604051905090565b600080fd5b600080fd5b600080fd5b600080fd5b6000601f19601f8301169050919050565b7f4e487b7100000000000000000000000000000000000000000000000000000000600052604160045260246000fd5b6105cb82610582565b810181811067ffffffffffffffff821117156105ea576105e9610593565b5b80604052505050565b60006105fd610564565b905061060982826105c2565b919050565b600067ffffffffffffffff82111561062957610628610593565b5b61063282610582565b9050602081019050919050565b82818337600083830152505050565b600061066161065c8461060e565b6105f3565b90508281526020810184848401111561067d5761067c61057d565b5b61068884828561063f565b509392505050565b600082601f8301126106a5576106a4610578565b5b81356106b584826020860161064e565b91505092915050565b6000602082840312156106d4576106d361056e565b5b600082013567ffffffffffffffff8111156106f2576106f1610573565b5b6106fe84828501610690565b91505092915050565b600081519050919050565b600082825260208201905092915050565b60005b83811015610741578082015181840152602081019050610726565b60008484015250505050565b600061075882610707565b6107628185610712565b9350610772818560208601610723565b61077b81610582565b840191505092915050565b600073ffffffffffffffffffffffffffffffffffffffff82169050919050565b60006107b182610786565b9050919050565b6107c1816107a6565b82525050565b6000819050919050565b6107da816107c7565b82525050565b600060c08301600083015184820360008601526107fd828261074d565b91505060208301518482036020860152610817828261074d565b91505060408301518482036040860152610831828261074d565b9150506060830151848203606086015261084b828261074d565b915050608083015161086060808601826107b8565b5060a083015161087360a08601826107d1565b508091505092915050565b6000602082019050818103600083015261089881846107e0565b905092915050565b600080600080608085870312156108ba576108b961056e565b5b600085013567ffffffffffffffff8111156108d8576108d7610573565b5b6108e487828801610690565b945050602085013567ffffffffffffffff81111561090557610904610573565b5b61091187828801610690565b935050604085013567ffffffffffffffff81111561093257610931610573565b5b61093e87828801610690565b925050606085013567ffffffffffffffff81111561095f5761095e610573565b5b61096b87828801610690565b91505092959194509250565b600081905092915050565b600061098d82610707565b6109978185610977565b93506109a7818560208601610723565b80840191505092915050565b60006109bf8284610982565b915081905092915050565b7f4e487b7100000000000000000000000000000000000000000000000000000000600052602260045260246000fd5b60006002820490506001821680610a1157607f821691505b602082108103610a2457610a236109ca565b5b50919050565b60008190508160005260206000209050919050565b60006020601f8301049050919050565b600082821b905092915050565b600060088302610a8c7fffffffffffffffffffffffffffffffffffffffffffffffffffffffffffffffff82610a4f565b610a968683610a4f565b95508019841693508086168417925050509392505050565b6000819050919050565b6000610ad3610ace610ac9846107c7565b610aae565b6107c7565b9050919050565b6000819050919050565b610aed83610ab8565b610b01610af982610ada565b848454610a5c565b825550505050565b600090565b610b16610b09565b610b21818484610ae4565b505050565b5b81811015610b4557610b3a600082610b0e565b600181019050610b27565b5050565b601f821115610b8a57610b5b81610a2a565b610b6484610a3f565b81016020851015610b73578190505b610b87610b7f85610a3f565b830182610b26565b50505b505050565b600082821c905092915050565b6000610bad60001984600802610b8f565b1980831691505092915050565b6000610bc68383610b9c565b9150826002028217905092915050565b610bdf82610707565b67ffffffffffffffff811115610bf857610bf7610593565b5b610c0282546109f9565b610c0d828285610b49565b600060209050601f831160018114610c405760008415610c2e578287015190505b610c388582610bba565b865550610ca0565b601f198416610c4e86610a2a565b60005b82811015610c7657848901518255600182019150602085019450602081019050610c51565b86831015610c935784890151610c8f601f891682610b9c565b8355505b6001600288020188555050505b505050505050565b600082825260208201905092915050565b6000610cc482610707565b610cce8185610ca8565b9350610cde818560208601610723565b610ce781610582565b840191505092915050565b60006020820190508181036000830152610d0c8184610cb9565b90509291505056fea264697066735822122066d6b78c454bf083d1bc8bc3e1799c46161c78cff9fbf6e617ceb9c48c8963f664736f6c63430008130033",
  "immutableReferences": {},
  "source": "// SPDX-License-Identifier: MIT\npragma solidity ^0.8.19;\n\ncontract UserRegistry {\n    struct User {\n        string name;\n        string email;\n        string phone;\n        string role; // \"customer\" or \"admin\"\n        address registeredBy;\n        uint256 createdAt;\n    }\n\n    mapping(bytes32 => User) private users;\n    event UserUpserted(string indexed email, string role, address indexed by);\n\n    function upsertUser(\n        string memory name,\n        string memory email,\n        string memory phone,\n        string memory role\n    ) external {\n        bytes32 key = keccak256(abi.encodePacked(email));\n        users[key] = User({\n            name: name,\n            email: email,\n            phone: phone,\n            role: role,\n            registeredBy: msg.sender,\n            createdAt: block.timestamp\n        });\n        emit UserUpserted(email, role, msg.sender);\n    }\n\n    function getUser(string memory email) external view returns (User memory) {\n        return users[keccak256(abi.encodePacked(email))];\n    }\n}\n",
  "sourcePath": "C:\\Users\\24035476\\OneDrive - Republic Polytechnic\\Documents\\Year-2, sems-2\\C373, Distributed Ledger Technology Solutioning\\C373, FA-GA\\GA\\contracts\\UserRegistry.sol",
  "compiler": {
    "name": "solc",
    "version": "0.8.19+commit.7dd6d404.Emscripten.clang"
  },
  "schemaVersion": "3.4.16",
  "updatedAt": "2026-01-30T09:09:00.968Z",
  "networkType": "ethereum",
  "devdoc": {
    "kind": "dev",
    "methods": {},
    "version": 1
  },
  "userdoc": {
    "kind": "user",
    "methods": {},
    "version": 1
  }
}